:020000040800F2
:10000000800B002065010008C514000809090008DC
:1000100000000000000000000000000000000000E0
:10002000000000000000000000000000C9140008EB
:100030000000000000000000C7140008CB140008F6
:100040007701000800000000770100087701000830
:1000500077010008770100087701000877010008A0
:100060000000000077010008770100087701000810
:100070007701000877010008770100080000000000
:100080007701000800000000000000007701000870
:1000900000000000770100087701000877010008E0
:1000A0007701000877010008770100087701000850
:1000B00077010008000000000000000000000000C0
:1000C00000F002F800F03EF80CA030C80838241800
:1000D0002D18671EA246AB4654465D46AC4201D180
:1000E00000F030F87E460F3EB6460FCC0126334274
:1000F00000D0FB1A3343A246AB4618479456000083
:10010000B4560000103A02D378C878C1FAD8520722
:1001100001D330C830C101D504680C6070470000BD
:100120000023002400250026103A01D378C1FBD813
:10013000520700D330C100D50B6070471FB51FBDFB
:1001400010B510BD00F04DF81146FFF7F7FF01F0B4
:10015000BBFA00F065F803B4FFF7F2FF03BC00F050
:100160006BF800000748804707480047FEE7FEE7B6
:10017000FEE7FEE7FEE7FEE704480549054A064BB1
:1001800070470000CD150008C10000088005002060
:10019000800B0020800700208007002001E004C0C1
:1001A000091F0429FBD28B0701D50280801CC907D7
:1001B00000D00270704700290BD0C30702D0027034
:1001C000401C491E022904D3830702D50280801CEB
:1001D000891EE3E70022EEE70022DFE77047704761
:1001E0007047754600F024F8AE4605006946534650
:1001F000C008C000854618B020B5FFF7BDFF60BC41
:10020000B64600260027C0C5C0C5C0C5C0C5C0C50C
:10021000C0C5C0C5C0C5403D490849008D467047AE
:1002200010B50446C046C0462046FFF794FF10BDF7
:10023000004870471000002001491820ABBEFEE7BF
:10024000260002007047EFF3108072B6FEE7000050
:10025000F0B58CB00B916A4A904201D0052200E0C3
:10026000032200920B990F68002F00D1C6E00123F2
:10027000002635460293099608960A9013E03A4301
:10028000614802600A980B9A17683A46DA40361DB0
:1002900008355B1C0999891C09910899491C08912A
:1002A000002A00D1AAE0591E029C07918C402740E9
:1002B000E9D0069505960B9A516803260D46354000
:1002C0006A1E012A04911BD8032209998A400A98C0
:1002D000806890430B9EF6688E4006430A988660BD
:1002E0000498C006C00F079988400A9E7668A64306
:1002F00006430A984660D4430A98089949000BE0DF
:10030000324609998A40D443032D05D109990391B6
:100310003546059E049923E0C268019422400B9C57
:10032000A4688C401443C460022D039115D11C2095
:10033000059E30400F2282400799CC08A4000A9DF8
:100340002C19256A95430B990A6982402A43226237
:100350000A98496803250D4001E0059E0499019C17
:10036000039A9540026822402A4302608A03920F52
:10037000069D88D0182028400F2585400322079924
:1003800091430A9A1F4C6618346EAC4360360525BB
:100390002D07AA4208D01D4DAA4207D01C4DAA42E3
:1003A000009D04D1022502E0002500E001258540E2
:1003B00025433560134802680B984068C40201D594
:1003C0003A4300E0BA43059E069D0E4C22606268E7
:1003D000840201D53A4300E0BA430A4C62600A4AFB
:1003E0005268840301D53A4300E0BA43064C626088
:1003F0002268C00300D542E7BA4341E70CB0F0BD24
:10040000000C005000180240801802400004005008
:1004100000080050F64800687047C046B0B5024674
:100420004120135C0220202B19D1134640331C7845
:10043000012C14D024205870106802680124A243B3
:100440000260220305689543056002680A43026062
:100450000168214301600020187020215970B0BD4F
:10046000B0B502464120135C0220202B19D113465F
:1004700040331C78012C14D0242058701068026876
:100480000124A24302600F2212020568954309026B
:100490002943016001682143016000201870202178
:1004A0005970B0BDF0B581B0002822D00446054691
:1004B00040356878002804D100202870204600F0DC
:1004C0005BF9242068702068026801218A43026079
:1004D0000F22120663689343036183681C4A13402A
:1004E0008360A368E668012E06D1CE0333438360A0
:1004F0000CE0012001B0F0BD2127BF023B43836027
:10050000022E03D1CB0246681E4302E0CB024668AE
:100510009E43466043680F4E1E434660C3681340C7
:10052000C360226963691343A26912021A43C2605D
:10053000E269236A1343036002680A4302600020F1
:100540006064202169702063A87001B0F0BDC046CE
:10055000FF7FFFFF00800002F0B585B01C46054616
:1005600041202B5C0220202B00D0F5E02B464033AD
:100570001E78012E00D1EFE0019204910120029338
:1005800003901870FFF746FF064629688869000443
:1005900015D42120029A50701020907000236B64B3
:1005A0006C85019F6F626B63688D000A039325D091
:1005B000FF202885012213062C46283428E00398C2
:1005C000C70302E088693842E3D019212846324641
:1005D00000F09CF9002800D0AFE0FFF71BFF801B64
:1005E00029681A28EED388693842EBD0686C20213C
:1005F00008436864029A51700120AAE0688D28853A
:100600002C46283401225206002800D1A6E01346C9
:100610003A788A627A1C6A62421E2A856A8D521E64
:100620006A85514A049F1740C0B200040497C2195A
:100630001A430A9F48684D4B034013430120019021
:10064000400318434860688D002805D15FE02868A2
:1006500080698007CAD529688869800710D4284630
:100660003946324600F052F9002863D1781CF2D0A6
:10067000FFF7D0FE002FEAD0801BB842EBD9E6E7A7
:10068000686A02788A626A8D521E6A85401C6862B6
:10069000288D401E28856A8D002AD4D0000405D0FC
:1006A000D1E7286880690006A0D529688869000616
:1006B00010D428463946324600F028F9002839D1AE
:1006C000781CF2D0FFF7A6FE002FEAD0801BB842BC
:1006D000EBD9E6E7688D000A08D0FF2020804A6841
:1006E000234802400498234B1043AAE76A8D2A85C9
:1006F00048681F4B1840D2B21204049BD218019BC9
:100700005B0610439DE78869800600D46EE7886920
:10071000800615D428463946324600F0F7F80028FE
:1007200008D1FFF777FE2968002FECD0801BB84274
:10073000EDD9E8E7019805B0F0BD039805B0F0BD2C
:100740002020C8614A68B14B13404B60029A507038
:10075000039800211170917005B0F0BD0248049B10
:100760000340049364E7C046FF030000009800FCC8
:10077000009C00FC0000FF0110B586B00068154920
:10078000884201D006B010BD03200103124C226A3A
:100790008A432262216802221143216021681140AC
:1007A00000910621059100210491039112210291EB
:1007B000000201900098094801A9FFF749FD0120B6
:1007C0004005A1680143A160A16801400091009823
:1007D00006B010BD00540040341002400004005028
:1007E0001F48007802490A68101808607047C04620
:1007F0007C05002010B50124200208490A68024344
:100800000A60032000F00CF8002801D0204610BD3B
:1008100000F02AF80024204610BDC0460020024007
:10082000B0B505460E4801780124002916D07D2078
:10083000C00002F041FA0146ED48006802F03CFABF
:1008400000F048F8032D09D8002807D10024E04320
:100850002946224600F01EF8024805602046B0BD39
:10086000040000200800002082B0094841680122ED
:1008700011434160416811400191019911070268DB
:100880000A430260006808400090009802B0704778
:100890003C100240002805D40322034693430C4A2F
:1008A0009A1806E00F220240083A03239A43074BA6
:1008B000D2188007C00E8901C9B28140FF2383404E
:1008C00010689843084310607047C0461CED00E074
:1008D00000E400E0401E010E01D0012070470749EE
:1008E000074A5060074803680B40032189075918DD
:1008F000016000209060072111607047FFFFFF003A
:1009000010E000E020ED00E0FEE70000F0B583B06D
:100910000D4604464030029020688169C90602D421
:1009200000210F463BE01021C1618169890632D464
:100930001646012007468003019003E02068816984
:10094000890628D4681CF9D0FFF764FD002D02D079
:10095000801BA842F2D9206842680299897883698D
:100960001B040BD5019B1A4008D1202906D04168F1
:10097000019A11434160FFF74DFD064620688069EA
:100980008006DBD4FFF746FD801B1928F6D92068C6
:100990008169242103E02021C1610127042101256F
:1009A0008269D30503D52B02C36129432F466B020D
:1009B000560506D41A420AD1002F0BD1002003B0ED
:1009C000F0BDAD02C561082529431A4202D0C361BA
:1009D000022211438269920701D500228262826954
:1009E000D20703D182690123134383614268074B15
:1009F00013404360606C0843606420200299487093
:100A0000002008708870012003B0F0BD00E800FEEF
:100A10008268D20712D1C268094B13404A681A4350
:100A20008B681343CA681A43C260032292070369A2
:100A30009343096819430161002070470120704702
:100A4000C73FFFFFF0B5C268C2688268D20713D102
:100A500001225305C2689202134A0FD54C68F02C4C
:100A60000CD1C46814400D6825430E460C3654CE94
:100A70002A43224332430CE00120F0BDC4681440F5
:100A80000D6825430F460837D4CF2A43224332430B
:100A90003A43C260C46800221C4203D04968836A9A
:100AA0000B4383621046F0BD3CC2FEFFF0B583B03D
:100AB0000B68002B5AD000220191029016E0764379
:100AC00076430F2171438C4377432743029EF750AF
:100AD000019D009B696848433168194001433160BA
:100AE0002B682946521C1C46D4403FD00124944018
:100AF0001C40F7D04868431E022B0090204615D2B8
:100B000060438F6847430325454302998E68AE438F
:100B10003E4302998E600199CE68664302994F6800
:100B2000A74337430199029B5F6002E060430325BE
:100B30004543EB430D460E6946430299CF681F407B
:100B400037430299CF60029E00990229C2D10093D7
:100B5000260A01D0242300E0202301994F6902993D
:100B6000CC58002EABD106464643AAE7002003B07E
:100B7000F0BD0000F0B50268012352061A4629D4E0
:100B80000268174C14400A6822434C681443CA6830
:100B900022430C6914434A6914438D692543CE6985
:100BA0002E430C6A264306608D68120C2A43466861
:100BB0000C4F374017434760EA0A04D10122120361
:100BC000456815434560012255030022AC4201D11E
:100BD000898C0161D902C3698B43C3611046F0BDA2
:100BE0004000FFFFFBF0FFFF014908607047C0466F
:100BF00000000020F0B5CA6A1B4B13400122140705
:100C00004D69A5431D438B692B4370C9174F2F4076
:100C1000174D35400E782E433E43164D2540354343
:100C20004C68154E26402E434D88144C2C403443BE
:100C30001C43E94B0C39984201D0234611E0104B7C
:100C40001C4023231E06CD690B6A4F6A896AB7438D
:100C5000274311246406A5433D43520793432B4386
:100C60000B4343640020F0BDFFFFF0EFFF87F0EF80
:100C7000FF83F0EFFF8FF0EFFFBFF0EFFF9F00006B
:100C8000FFFF0FDC10B50468D34A904202D01B4B23
:100C9000984204D170239C434B68234300E02346D1
:100CA000174CA04208DD90420CD0CC4CA04209D099
:100CB000CB4CA04206D01FE0104CA04202D0114CF9
:100CC000A04219D103242402A343CC681C4304602E
:100CD0008B68C3620B888362904205D0BF4A904202
:100CE00002D0BF4A904201D10969016341690122E2
:100CF0000A434261002010BD1C46E8E700040040A2
:100D0000FF2B014000200040F0B584B00123B14C1E
:100D1000A1424DDC012900D182E0102900D1D2E0AE
:100D200001242402A14200D051E1016AA1430162E1
:100D3000B049491C13691B020B40032102910902AF
:100D4000046A8C431C431168039153681B022343BC
:100D50004568C469A04FB84205D0A04FB84202D040
:100D60009F4FB84219D102990F03BD4356690196AE
:100D70009669D769009737019D4E3E402E43009DEE
:100D80006D01354389028B439B49091D019EB602C3
:100D90000E401E4391688B023343456092490C40DC
:100DA00003990C43C461D168C163036200230EE15F
:100DB00001242503A9426CD02504A94200D1C1E039
:100DC0002505A94200D002E1016AA9430162016A36
:100DD0001668536803931569476D7F4B984205D099
:100DE0007E4B984202D07E4B984206D1A3044468C1
:100DF0009C4393699B02234343607A4B1F40330219
:100E00003B434365D268C2650322120591436A08D9
:100E100052050A4303990905114301620023D6E0F4
:100E20000126F143036A0B40036213690B40046A15
:100E30000327BC431C431168039151682143456853
:100E40008469654B984205D0644B984202D0644B4C
:100E5000984213D13B029D437302566902969769EB
:100E6000D6699F432F4375003D430C239943029B52
:100E70005B08DB000B4391688900194345605A4BBE
:100E80001C40039B1C438461D268426301620023BF
:100E90009DE0016AA9430162016A436816685568CA
:100EA000039515690295C7694B4DA84205D04B4D76
:100EB000A84202D04A4DA84272D1A403A343946928
:100EC000A4011C436DE0016A102399430162016A89
:100ED0003023994313695B085C010C431768516820
:100EE00009012143456883693B4EB04205D03B4E22
:100EF000B04202D03A4EB04219D10326B602B543F1
:100F0000546903943E469769D4690294BF003A4CF1
:100F10003C4037462C43029DED002543C024A143AD
:100F2000039C6408E4010C439168890121434560F6
:100F30002E4C23403C021C438461D26882630162D0
:100F4000002344E0284D7335016A29400162016A9B
:100F50001668536803931469476D1F4B984205D078
:100F60001E4B984202D01E4B984205D143682B403D
:100F700095692D021D4345601B4BDB1C1F40374309
:100F80004765836DD268826503221204914362082B
:100F900052040A430399090411430162002316E035
:100FA0001C464460114B1F4033023B43C361D2686F
:100FB00002640322120391430D4A1032029B1B0369
:100FC00013400B4303990903194301620023184698
:100FD00004B0F0BDFF0F0000002C014000480140AC
:100FE00000440140FF8FFFFE8CFFFEFFFF8CFFFEE1
:100FF000F0DFFFFFFFFDFFFFFCF7FFFF81B00F49B0
:101000000A680092401C01D30020C043009A0A687D
:10101000D203D21710180ED00A68D203D2171018B4
:1010200009D00A68D203D217101804D00A68D20374
:10103000D2171018EBD101B07047C04610E000E0A5
:10104000F0B591B000270C970B970A97099708976E
:101050000797069705970497039701263005CD4912
:10106000CA680243CA60CA6802400D920D980868B7
:1010700030430860086830400D90032000900290D3
:10108000022001900D980520040701AD2046294655
:10109000FFF70CFD05970098029008200090019042
:1010A00020462946FFF702FD10970F970E97B007CD
:1010B0000D902B4C0DA92046FFF7AAFC7005E168A6
:1010C0000143E16075032068284208D12068284266
:1010D00005D12068284202D120682842F3D025603B
:1010E000F0200890079709970A970B970C9707A984
:1010F0002046FFF7A7FC2069B043206170072169F3
:1011000081432161606907218843606160697021C2
:10111000884360616068042188436060606800996A
:1011200088436060A0680F49014030070818A0603C
:10113000A06A30430E218843A0622068284208D16B
:101140002068284205D12068284202D12068284220
:10115000F3D02560700261698143616111B0F0BD17
:1011600000240140E8FFFF6F80B588B000210691A0
:1011700002200390CC4A13680343136013680340B2
:1011800007930798012002901368034313601268C5
:1011900002400792079805200007102282620591FD
:1011A0000491019201A9FFF781FC08B080BDC046FF
:1011B00010B5124800210122114B124C046043600B
:1011C0008160C260016141618161C1610162FFF7BB
:1011D00069F9002801D0FFF736F808480021FFF729
:1011E0001DF9002801D0FFF72EF804480021FFF771
:1011F00037F9002801D0FFF726F810BD7000002055
:10120000BC7D701000540040F0B591B00120010386
:10121000A54AD3680B43D360D3680B400793079963
:10122000116801431160116801400791022602967E
:1012300020200190002703970497059706970798A9
:101240000520040701AD20462946FFF72FFC039730
:10125000029680200190049705970697204629461C
:10126000FFF724FC072010900F970E9718200D9081
:101270000B970A960F2000020990079741208000E3
:101280000890FC300C900A4D2C1F07A92046FFF750
:1012900071FC2868102188432860286808210143D0
:1012A0002960206840210143216011B0F0BDC04693
:1012B00004300140F0B5A1B000261B960A96012427
:1012C000E002794AD1680143D1601BA90E80D2683F
:1012D000024013921F961E9624201D901C96139870
:1012E0002D4D2846FFF7CEFC8020C74328683840A4
:1012F0002860A86870490140A960A86908210143D5
:10130000A96117961220169015961496189619969C
:101310001A966020139013AA28462146FFF7F4FC82
:10132000A86904218843A8616868702188436860BF
:101330000F200005696881436960A8683840A8608B
:1013400007A9CE810E7312961196109660060F9023
:101350000E960D960C9660030B90079608960996CC
:101360002846FFF747FC5049086820430860086892
:101370002040209002200690059604960396029045
:101380002002019020980520000701A9FFF78EFB9D
:1013900021B0F0BD34100240002C0140F0B58DB0FA
:1013A00000240B940A94099408940794022502954A
:1013B0003D48816829438160816829400C910C99DE
:1013C000016829430160006828400C90059404944A
:1013D0000394102001900C9801270697334801A927
:1013E000FFF764FB07A93F2008800A943048099062
:1013F0000894304E3446183C2046FFF743FC2168E1
:10140000802001432160314610390A682A4B13407D
:101410000B600A68294B134050330B600A68284B55
:1014200013401A1D0A603268F0239A433260B26892
:101430000A239A43B26032460C3A13684024A3430D
:101440001360BB0314689C4314607022D34332467C
:10145000143A14681C401460C2430C6814400C60B9
:1014600031683943A943316031680C24A1433160AC
:1014700031680143194031600320010233688B4316
:1014800079025918316080023168814331600F2040
:101490000003316881433160B0682021014311406D
:1014A000B1600DB0F0BDC0463410024000040050E1
:1014B000FFFF000018040040F8BFFEFF8FFFCFFFC2
:1014C000F8FFFEFFFEE77047704780B5FFF788F929
:1014D00080BD000070B5384A10680221084305231A
:1014E00098431060146807200440022C0BD0146845
:1014F0000440022C07D014680440022C03D0146866
:101500000440022CEED1012425022C4A16682E43F9
:101510001660A50216682E4208D116682E4205D123
:1015200016682E4202D116682E42F3D0D568244E9A
:101530002E40244D7519D560250616682E43166079
:101540002507D6682E43D66064061568254208D163
:101550001568254205D11568254202D11568254236
:10156000F3D00F2424029568A543956094680C433A
:101570009C439460936838210B40102B0BD09368E8
:101580000B40102B07D093680B40102B03D09368AF
:101590000B40102BEED100039168814391600A4803
:1015A000FFF722FB0320FFF73BF9002803D0EFF3FE
:1015B000108072B6FEE770BD0020024000100240AD
:1015C0008C80FF1F020800200090D00370470000AD
:1015D000F0B581B004460125294600F00BFB00263A
:1015E0002046314600F003FB294F2046394600F0E3
:1015F000A3FA142227A32046314600F0DBF9204647
:10160000294600F0F4FA2449204600F095FA152105
:10161000082222A3204600F0CDF92046314600F0F2
:10162000E6FA2046394600F087FA33211E261CA32D
:101630002046324600F0BEF943211AA32046324626
:1016400000F0B8F9022123222F262046334600F06D
:10165000F1F8032124222046334600F0EBF82D2137
:1016600020220C262046334600F0ACF92E21212200
:101670002046334600F0A6F90B49204600F05CFAFC
:1016800036220AA32046294600F094F901B0F0BDA5
:101690008F31000855000000045400083800000095
:1016A00067000000B2000000BC2E00086769746883
:1016B00075622E636F6D2F6F6C696B726175732F1E
:1016C0007538673200000000FFF794F8FFF702FF5B
:1016D000FFF74AFDFFF7EEFDFFF796FDFFF75EFE11
:1016E000FFF766FDFFF7ACFC484C4949494A4A4BB5
:1016F000204600F0B3FA204600F08DFF002120467E
:1017000000F097FF454980220A600A610120040227
:10171000434B9C801C68240608D51C68240605D50C
:101720001C68240602D51C682406F3D40A600A60EB
:101730000A613C4C2546D8359D801D682D0608D58C
:101740001D682D0605D51D682D0602D51D682D06C0
:10175000F3D40A600A600A61334D9D801D682D062E
:1017600008D51D682D0605D51D682D0602D51D68F6
:101770002D06F3D40A600A600A612C4D9D801D6815
:101780002D0608D51D682D0605D51D682D0602D528
:101790001D682D06F3D40A600A600A610325AD03B3
:1017A0009D801D682D0608D51D682D0605D51D6870
:1017B0002D0602D51D682D06F3D40A600A600A6161
:1017C0009C801C68240608D51C68240605D51C6866
:1017D000240602D51C682406F3D40A60C103144A07
:1017E000536C0B435364116A014311621168014346
:1017F0001160064C204600F025F92046FFF7E8FE70
:10180000204600F067F90028F7D1F3E7C400002074
:10181000B02E0008C5260008A12B000818000050B3
:1018200008300140282000002A4700005A440000E8
:10183000002C0140F0B583B0002B1FD08C24045D38
:10184000002C1BD004464834A588954216D8E5885C
:10185000954213D95F1863888B4201D8029701E043
:101860005D1E0295BDB2BD4200D1029524888B4217
:101870000E4605D9BD4206D09E4207D303B0F0BD47
:101880002646BD42F8D10E469E42F7D2029989B251
:10189000A142F3D9056BAF6800250095994200D8A5
:1018A000029BA64200D33446191B8BB22146B8478F
:1018B00003B0F0BDF0B583B0002B78D08C24045D6C
:1018C000002C74D004464834089D022B06D3032D07
:1018D00017D0022D02D1C91A4D1C02E0ED070ED11E
:1018E0000D46A188914262D8E18891425FD9AEB29B
:1018F000F71861888E42019113D3029713E01546C1
:1019000001E0D21A551C22888A4250D862888A4245
:101910004DD9AEB2F718E2889642019221D30297D0
:1019200021E0491E0291BBB2BB4200D10293218843
:10193000019CA64226462C4600D30C46BB4200D151
:101940002C46A5B2B54232D2029B9BB28B422ED915
:101950008D4200D32146B34200D8029E731A002460
:101960001EE0521E0292BBB2BB4200D10293A2887B
:10197000019CA64226462C4600D31446BB4200D109
:101980002C46A5B2B54212D2029B9BB293420ED90D
:10199000954200D32246B34200D8029EB31A0124D6
:1019A000056BAD68009489B292B29BB2A84703B0B0
:1019B000F0BD000010B5024C446000F0A5F910BD68
:1019C00075260008F0B583B0002B1FD08C24045D71
:1019D000002C1BD00446483425888D4216D86588D3
:1019E0008D4213D99F18E388934201D8029701E0F2
:1019F0005D1E0295BDB2BD4200D10295A4889342FE
:101A0000164605D9BD4206D09E4207D303B0F0BDAD
:101A10002646BD42F8D116469E42F7D2029A92B2AD
:101A2000A242F3D9056BAF68012500959A4200D810
:101A3000029BA64200D334461A1B93B22246B847F3
:101A400003B0F0BD10B504469320205C002809D0F7
:101A50002046383000782168097C4143C900606B1A
:101A6000FEF7B8FB0021204600F059F810BD70B514
:101A700004464C20255A4E20205A049E904205D9F7
:101A8000B24208D8B54206D3002070BD0020B24251
:101A900019D9B54217D2483422886088884208D9BB
:101AA000012000249A4202460ED299420FD91043D7
:101AB00070BD012000249A42024600D3224699427A
:101AC00000D82046104070BD22469942EFD82046EB
:101AD000104370BDB0B5044600F010FD3820205C06
:101AE0002146383149784118CDB221684A7C954267
:101AF00010D2224693321278002A05D0097C414345
:101B0000C900606BFEF766FB2046294600F007F827
:101B10000120B0BD204600F085FD0020B0BD10B50D
:101B2000044639202154206B016820468847206BE9
:101B300041682046884710BDF0B585B00446806DE9
:101B4000884252D00D46A1657434087820704878D8
:101B500060708878A070C878E07008792071487942
:101B600060718879A071C879E071087A2072487A2A
:101B700060720A2008560290A072C87AE0720C20A7
:101B80000856039020730D200856049060730E20B1
:101B90000F56A7730F2008560190E07310200E56C1
:101BA00026741121284600F085FB60821321284607
:101BB00000F080FBA0821521284600F07BFB049BEF
:101BC000E776A376E082607E00280ED0012803D15C
:101BD0000198834205DB05E0039E02983018984285
:101BE00000DDA076B74200DDE67605B0F0BD7022DC
:101BF000815470476D228154704700000149C165CE
:101C00007047C046051E000870B504466D200025CB
:101C10002554382022548D20255420468D30FF2213
:101C20000232052682536163E362A565049921634C
:101C3000057126463836757009682046884706487B
:101C4000B061F061206B4168204688472046FFF76D
:101C5000D5FF6D34E57070BD0000FFFF70B582B038
:101C600016460D46044600930849094A334600F0DB
:101C7000E7FC01AE304600F03BFC014632780095AF
:101C8000044B2046FFF7C0FF02B070BD712A000868
:101C900045280008C3220008022B06D0012B07D0DC
:101CA000002B08D1081880B27047401A80B27047E4
:101CB000801A80B27047101880B27047022B06D08D
:101CC000012B07D0002B08D1101880B27047801A62
:101CD00080B27047081880B27047401A80B27047CF
:101CE00070B582B0C46AC58F069E0096521B92B230
:101CF000A04702B070BD10B582B0049C0094FFF7FD
:101D0000EFFF02B010BD0000F0B585B01F46039292
:101D10000291064600F0CCFF397872683046904751
:101D20003749884266D03246643204927D1C0022D4
:101D300001920BE003910199411801912978726891
:101D4000304690476D1C2146A04255D087B20C46C4
:101D5000481E80B28742F1D00498027B032A039880
:101D600002991FD87A4412795200974401080E153F
:101D7000F16D3046884703994018029912E0F16DE1
:101D8000304688470299091A0BE0F16D30468847C2
:101D90000399081A029905E0F16D304688470299C7
:101DA00041180398049A508011803046394600F05B
:101DB0000FFA002804D00146304600F025F800E074
:101DC00000200499097B0329B5D8C04679440979D4
:101DD00049008F4404080B010399091AAAE70299E4
:101DE00041180291A7E703994118A3E70299091A3C
:101DF0000291A0E700200190019880B205B0F0BDEB
:101E0000FFFF000000207047F0B591B06C22002366
:101E1000835401667822825C044664340F78082A71
:101E200004D3491C01661546083D00E015460646E8
:101E30009236089625721093DB43059393409F4397
:101E40000F97A771EAB20E78D6400A94647D6219A2
:101E5000D3B2082B099009D34B1C036608277D1BBE
:101E6000EDB24F78AF403743083A01E00B463746B2
:101E70000A980272089909788172059DA540AF43BE
:101E8000C7714C424C41C472D1B21E78CE40807DA5
:101E90000E901418E1B2082904970BD3591C099825
:101EA00001660825AA1AD5B25878A84030430D908B
:101EB000083C01E019460D960A980472E3B20D78C9
:101EC000DD40C07D0C900619F7B2082F0AD34F1CD5
:101ED000099807660820001BC0B249788140294351
:101EE000083E01E00F46294601220F9844B20A9BA2
:101EF0001E72F0B23D78C540187E02908019C3B2C0
:101F0000082B0FD37B1C0F922246099C23660823C3
:101F10009B1BDBB27C789C402C43019414460F9AA7
:101F2000083800E00195120603920A9E3072012CD7
:101F300000DA3FE10B940E9A501EC0B20C9B5C1E5F
:101F40000F94059F3C469440039A154685400F9890
:101F5000C0B20F900D98A0432C0E0E943C469C40AE
:101F600015460F9A95400E9A821AA143280E049B9B
:101F70005918401A47B23446367B208855B2294654
:101F80003A463346FFF788FE0F9020806088294646
:101F90003A463346FFF792FE6080032E0CD8C046C7
:101FA0007E4436797600B744010B111B049949B27F
:101FB00041180B9AD2B219E00F9A1346014618E065
:101FC0000B99C9B24118049A52B205E004994AB279
:101FD000411C881A0B9AD2B20F9B5B1C9A1A08E01C
:101FE0000B99CAB2411C881A049A52B20F9CA318CA
:101FF0002246099C0A9E89B2009191B282B29BB29C
:102000002046FFF734FD0028109B00D1D2E0B380BA
:10201000099F386E317A0F931093CAB20578D54074
:10202000B47C0A19D3B2082B0BD3431C3B66082699
:10203000711A0A9EC9B24078884028430546083A7A
:1020400000E0034632720598A04085430795D0B260
:102050001C78C440F07C8118CDB2082D09D35D1CDA
:102060003D660825AA1AD2B25D7895402543083905
:1020700000E02546109B0F9A3172059981408D43EF
:102080000695079C02E0641B5B1C0022B079851A50
:10209000707A002824D1377B70880F9251B20D914D
:1020A00010935AB20C923B46FFF708FE0E90308810
:1020B0000D990C9A3B46FFF7EFFD0146F07A089A1E
:1020C00010700097E8B2E2B28242204600D3284660
:1020D000C3B209980E9AFFF7EDFB109B0A9E0F9A68
:1020E000E8B2E1B28142CED27371A1183171069D7E
:1020F0000F910A9EB0790E9070880C90377B3088D3
:1021000049B20B9110935CB222463B46FFF7C4FDE7
:102110000D900C980B990C9422463B46FFF7CEFD90
:102120000246B07A0899087000970E980F99441AE1
:10213000E0B2EFB2064687420E9500D32546EBB2D9
:1021400009980D99FFF7B6FBB74205D30E9D2D1BDD
:10215000109B5B1C0021CBE710980A9E70710F98B2
:102160000E9A10180F903071337A099F3C6E2278C6
:10217000DA40591CC8B20828079D09D3601C38668C
:102180000821C91AC9B264788C401443D91F01E0F0
:10219000204614463172E2072C46109B0F9A00D05D
:1021A00074E7049A52B20C9C944200DA34E7B07A95
:1021B00008990870059802998840019A8243481E40
:1021C000C0B203998140080E101A40B211B0F0BDA0
:1021D000F0B581B00C46816D86301731FF2C03D8E5
:1021E000612C3BD340883CE080880F183E46002598
:1021F0003046294600F05EF83F180221304600F0D4
:1022000059F8361DA042F2D37878397809020818B7
:102210004DD0A0424AD0B97878184278795C09024A
:10222000891844D0A14240D0817847187A78405C20
:10223000000280183BD0A04238D0B9787818427894
:10224000795C0902891832D0A1422ED081784718D2
:102250007A78405C00028018DBD128E0412C01D361
:102260000088091848780025002820D00A78A24262
:1022700019D009184878002819D00A78A24212D03B
:1022800009184878002812D00A78A2420BD0091801
:10229000487800280BD00A78A24204D00918487860
:1022A0000028E3D103E08D1C01E00746FD1C284611
:1022B00001B0F0BD42185278405C0002801880B234
:1022C0007047F0B587B017469222865C07220497C4
:1022D0000592174001240394BC400022012E1546AC
:1022E00000D02546022E00D31446049A059EB24320
:1022F0000668367C5643B2B2466BB21851180C9A37
:10230000002A16D002469232069203261E405A1E1A
:10231000002E00D18AE0019202960A7822436A4098
:102320000A70049A571C059A174010D06D0064007B
:1023300019E003221A40581E002A54D00E78264372
:102340006E400E70491C012A1FD103464BE0069ACD
:10235000167801220092012E00D0009D012E00D897
:10236000009C428F8918029A012A02D1019A1346D1
:102370005CE00A7822436A400A70049A971C059A26
:1023800017400BD06D00640013E00E7826436E40BA
:102390000E70491C022A20D19B1E24E0069A127856
:1023A0000126012A00D03546012A00D83446428F42
:1023B0008918029E019A022E01D19B1E36E00A78EE
:1023C00022436A400A70049AD71C059A1740DB1E04
:1023D000002F20D06D00640027E00A7822436A4075
:1023E0000A70DB1E491C80B2032822D308782043E0
:1023F00068400870487820436840487088782043D7
:1024000068408870C87820436840C870091D1B1F49
:102410001804EBD10DE0069A1278012A00D0039D32
:10242000012A00D8039C428F8918019A92B2032A8C
:1024300005D207B0F0BD428F89181A04F9D00A7886
:1024400022436A400A707A1C520702D06D00640071
:102450000AE0069A16780122012E00D01546012EB8
:1024600000D81446428F89180A7822436A400A70BD
:10247000BA1C520702D06D0064000AE0069A167872
:102480000122012E00D01546012E00D81446428F9D
:1024900089180A7822436A400A70FA1C520702D04F
:1024A0006D0064000AE0069A16780122012E00D021
:1024B0001546012E00D81446428F89180A78224307
:1024C0006A400A703F1D059A17401B1F002F04D059
:1024D0006D0064001A04B2D1ABE7069A16780122A7
:1024E000012E00D01546012EA5D81446A3E7000002
:1024F000082101700048704758010020F0B583B0F2
:1025000004463820205C02902068417C01912146DD
:1025100038314F7800250126037C184668430C4962
:102520000840616B08180090FAB20021204600F0C4
:1025300063F80298864208D27F1CF8B2019988425B
:1025400003D2761C08352068E6E703B0F0BDC0462C
:10255000F8FF0000B0B53821425CD1008187014608
:10256000383104686369CB60237CDB0043874B7898
:10257000DD00C5870D819D18607C854200D9C21A97
:10258000D018C0004881B0BDB0B582B00446482024
:10259000002525524420205A4A216052206CE064D4
:1025A0005220235A5420225A5020215A5620205A71
:1025B00000902046FFF75BFA21468C31002818D0A6
:1025C000403401200870208A2189814200D2208174
:1025D000608A6189814200D96081A08AA189814293
:1025E00000D2A081E08AE189814200D9E08102B075
:1025F000B0BD0D7002B0B0BDB0B582B06C46A27176
:10260000617123710699009185680F21012223468B
:10261000A84702B0B0BD10B584680A210022134655
:10262000A04710BD10B58468102100221346A047B2
:1026300010BD10B50A4684680B210023A04710BDC9
:10264000B0B523240025055505608561049C074627
:1026500008371EC701462331CD70FF224A714A70E8
:1026600000F001F8B0BD10B58468092100221346BE
:10267000A04710BD0348002901D00A2900D17047A6
:1026800008467047FFFF000010B5046919210022B9
:102690001346A04710BD80B582B001AA1170012178
:1026A00000F002F802B080BD10B513460A46046976
:1026B0001721A04710BD10B5046918210022134648
:1026C000A04710BDF0B581B004461439002005299B
:1026D00056D8C0467944097949008F445051510277
:1026E0001418002A4BD003261640541E254F3D785F
:1026F000002E18D01978254F7955691C012E13D159
:102700005B1C22461FE01F480021017037E0242097
:10271000215C1C4803787D20C00000901A481B4AA9
:10272000FDF71AFF2BE010E05878C9B27854A91CC5
:10273000022E02D1921E9B1C05E09878C9B27854F3
:10274000D21EDB1CE91C0D460E4FE0B2032815D348
:102750000E4C29461878CDB26055481CC0B25D7841
:102760002554881CC0B29D782554C81CC0B2DD78A1
:1027700025541B1D091D121F1006EBD139700120B5
:1027800001B0F0BD58050020700000205905002060
:1027900010B5C468192100221346A04710BD10B51A
:1027A0000A46C46816210023A04710BD10B50A468A
:1027B000C46815210023A04710BD10B513460A4672
:1027C000C4681721A04710BD70B582B00C460546FD
:1027D00008E01838022815D2641CEE68002228464A
:1027E0001346B047217808461729F2DC153802282D
:1027F00013D2627801A80270EE6800232846B04721
:10280000A41CEFE7FE2913D1627801A802702921E8
:10281000284600F032FAA41CE4E7172908D16078B2
:1028200001AA107001212846FFF7C7FFA41CD9E7B1
:1028300002B070BD10B5C468182100221346A0472D
:1028400010BD0000F0B581B01439052922D81E460C
:10285000154604467944097949008F44021E123412
:1028600017B62420205CFF2803D12046243078218D
:1028700001702769142120462A463346B84701B023
:10288000F0BD20462946FFF706FFB1E05A48002177
:102890000170ADE0002001B0F0BD574E3078012846
:1028A00002D12046FFF7F0FE2046FFF704FF00218B
:1028B0002046FFF7F0FE20462946FFF7ECFE0120F8
:1028C000307001B0F0BD4C4F3878012802D120465D
:1028D000FFF7DAFE192D00D283E018212046324698
:1028E00000F0D0F93246183228461838C1B21929FA
:1028F00075D31821204600F0C5F9324630322846FB
:102900003038C1B219296AD31821204600F0BAF92B
:102910003246483228464838C1B219295FD31821B7
:10292000204600F0AFF93246603228466038C1B226
:10293000192954D31821204600F0A4F932467832E0
:1029400028467838C1B2192949D31821204600F009
:1029500099F93246903228467030C1B219293ED3D7
:102960001821204600F08EF93246A8322846583009
:10297000C1B2192933D31821204600F083F9324619
:10298000C03228464030C1B2192928D31821204628
:1029900000F078F93246D83228462830C1B21929D9
:1029A0001DD31821204600F06DF93246F03228463A
:1029B0001030C1B2192912D31821204600F062F953
:1029C0002120C0003618083D0BE00B4D2878012867
:1029D00002D12046FFF758FE0020287008E0054687
:1029E0001646E9B22046324600F04CF90020387015
:1029F000012001B0F0BDC04679050020F0B581B0DE
:102A000004464669282100252A462B46B047E66839
:102A1000142120462A462B46B0474B26012200921D
:102A20002046314600F029F92068027929272046FE
:102A3000394600F022F9204631462A4600F01DF9B9
:102A4000206802792046394600F017F920463146C1
:102A5000009A00F012F9206842792046394600F0C9
:102A60000CF901B0F0BD8A7C2223C254016070478A
:102A700070B50E46054600F01FF80124002801D06D
:102A8000204670BD092E0AD00A2E0ED12846FFF727
:102A9000B5FF08492846FFF797FE204670BD044958
:102AA0002846FFF7E0FF204670BD002070BDC046FD
:102AB0007857000839570008F0B581B004460B3943
:102AC0000020042951D815467944097949008F44DA
:102AD000024C060F1E00002D49D02F4948E0002D62
:102AE0004AD02B492046FFF76FFE2068C07C49E0A2
:102AF0002046FFF79FFE81212046FFF757FE204624
:102B00002946FFF74CFE2046FFF742FE3CE01E46FA
:102B10002046FFF78FFE2220205C0090777940212D
:102B20002046FFF743FEF80000994718F8B2010964
:102B300010312046FFF73AFE0F2139402046FFF7BB
:102B40002EFEB079B02101432046FFF728FE3268FF
:102B50003079C006010E2046FFF72FFE6D1E2806B5
:102B6000F5D12046FFF714FE012001B0F0BD0B495E
:102B70002046FFF729FE07E006492046FFF724FE1E
:102B80002068807C22216054012001B0F0BDC04645
:102B9000325700082B570008735700086E5700087B
:102BA00080B529392A2963D8890001A251588F4656
:102BB000672C00085D2C00085D2C0008712C0008B3
:102BC0005D2C0008712C0008712C0008712C000885
:102BD000712C0008712C0008712C0008712C000861
:102BE000712C0008712C0008712C0008712C000851
:102BF000712C0008712C0008712C0008712C000841
:102C0000712C0008712C0008712C0008712C000830
:102C1000712C0008712C0008712C0008712C000820
:102C2000712C0008712C0008712C0008712C000810
:102C3000712C0008712C0008712C00085D2C000814
:102C40005D2C0008712C0008712C0008612C000814
:102C5000612C0008612C0008612C0008012080BD57
:102C60002721002206E00120FEF7C8F9012080BDDF
:102C7000272101224254012080BD10B54469002360
:102C8000A04710BDF0B581B015460E460446FFF7CB
:102C900012FD40212046FFF7FEFC27691721204640
:102CA00032462B46B8472046FFF7EEFC01B0F0BD98
:102CB000262100224254704743088B421AD3002237
:102CC00003098B4279D3030A8B425ED3030B8B42F9
:102CD00042D3030C8B4227D30902FF2212BA030C02
:102CE0008B4202D31212090203D0030B8B4233D35F
:102CF0001AE0D3E0411A8041401C704703460B4361
:102D000071D443088B42F5D3002203098B4254D37C
:102D1000030A8B4239D3030B8B421DD3030C8B4226
:102D200002D394466EE0090AC30B8B4201D3CB0356
:102D3000C01A5241830B8B4201D38B03C01A5241FC
:102D4000430B8B4201D34B03C01A5241030B8B42FE
:102D500001D30B03C01A5241C30A8B4201D3CB02E9
:102D6000C01A5241830A8B4201D38B02C01A5241CE
:102D7000430A8B4201D34B02C01A5241030A8B42D1
:102D800001D30B02C01A5241CDD2C3098B4201D3E9
:102D9000CB01C01A524183098B4201D38B01C01A67
:102DA000524143098B4201D34B01C01A52410309DE
:102DB0008B4201D30B01C01A5241C3088B4201D38D
:102DC000CB00C01A524183088B4201D38B00C01A3A
:102DD000524143088B4201D34B00C01A5241411A61
:102DE000524110007047CA0F00D04942031000D36F
:102DF0004042534000229C4603098B422DD3030AD4
:102E00008B4212D38901FC2212BA030A8B420CD3E3
:102E1000890192118B4208D3890192118B4204D30C
:102E2000890137D0921100E08909C3098B4201D38F
:102E3000CB01C01A524183098B4201D38B01C01AC6
:102E4000524143098B4201D34B01C01A524103093D
:102E50008B4201D30B01C01A5241C3088B4201D3EC
:102E6000CB00C01A524183088B4201D38B00C01A99
:102E70005241D9D243088B4201D34B00C01A524170
:102E8000411A00D201465241104663465B1000D3FE
:102E90004042704763465B1000D3404201B50021B9
:102EA000004201D0C9430846C046C04602BD0000EA
:102EB0005525000889250008F71C00085F0002025C
:102EC0000303020404040600FF05FF05FF00E901F7
:102ED000D302B6200580CD002106E9C8AC00220649
:102EE00093CB2415230AACC8A434541A2A0124090C
:102EF000B3C7A5A1474A002508ABC864D44601263C
:102F000009ACC8C514AB98022705D1CB082807F235
:102F1000C7A966002908B2C7C45429002A07ABC84C
:102F2000A46A352B08ABC8C5B462022C0692C72927
:102F3000002D058BCA0C2E05C9C8042F07ABC85637
:102F400065043008ABC8554355003107ABC8255957
:102F50000D3207ABC835531A3308ABC8CC941700F1
:102F60003408ABC8243562013508ABC88CA81700FB
:102F70003607ABC84DD5023708ABC8CC544600382D
:102F800007ABC8ADD6023907ABC8B5E4023A06E1D3
:102F9000C8C4003B07AAC765A8003C07ABC8A6BACF
:102FA000003D069BC9EC013E07ABC8E4AA043F08FC
:102FB000ABC8E89461024006ABC82D5B4108ABC8C2
:102FC0005543A9004208ABC8A8B4D2024308ABC815
:102FD000553255004408ABC8A8642D004508ABC85D
:102FE0008CA8E2004608ABC88CA862044708ABC8AE
:102FF000CDA492004808ABC82435940A4907ABC851
:10300000AC580D4A07ABC896AA024B08ABC824B50A
:10301000920A4C07ABC8C4E6004D08ABC8A4319473
:103020000A4E08ABC8AAA124004F07ABC8555605E5
:103030005008ABC8A8B462045107B3C755561D5217
:1030400008ABC8A8B4920A5307ABC8EDBC0054073C
:10305000ABC8ACD8025507ABC824D7085608ABC8D4
:10306000246BA4045708ABC82435860A5808ABC89B
:1030700024D552015908ABC8245556005A07ABC88D
:10308000CC540E5B06EAC8AC4A5C07ABC8C45C060D
:103090005D06AAC8A86A5E0593CB355F058BC70C91
:1030A0006006D2CBC4006107A3C82D95046208ABAB
:1030B000C84495D4026306A3C8CD2C6408ABC8A647
:1030C000A592006506A3C855536608ABC8A6B462AE
:1030D000026708ABC7AD2417006808ABC84495ACBD
:1030E000006908ABC86524D3006A08B3C766582EC8
:1030F000006B08ABC8C4B4920A6C07ABC8C8D60052
:103100006D08A3C8A4A154006E07A3C8A864056FE6
:1031100007A3C855AA027008ABC7A8B46204710817
:10312000ABC72D9564007208A3C8A41523007307CC
:10313000A3C88DBC007408ABC8A51573007507A3A0
:10314000C8242B097607A3C824AB027708A3C82498
:103150003554007807A3C8A432157908ABC7249565
:10316000E4027A07A3C8CC94067B08B3C7A624EB75
:10317000007C06E9C80C017D09B3C7E4A8628A0097
:103180007E0794CB25950000000004FFFF0000BFE0
:103190000205040506010406152600F918FA19F9B6
:1031A00004E10AAE2258200BD51CF587FFFF7F17DC
:1031B000002119D51CF587532316588BF417879CCB
:1031C000FB0011689E0D920F2F002224D51CF5875D
:1031D00043A28845065164104506516410450651C6
:1031E000641045065164104506F9F0FF13002343AF
:1031F000D51CF587EB838C350659639035065963EA
:103200008C45C6380F8CF1C018171A83AC31C81A18
:1032100083AC31C62263A007C478608C07C61964EA
:10322000AC31C81A83AC31061B632C32C622637CD6
:1032300078243BD51CF5875B2412689A520C919038
:103240000C114488430411011141560984654D6BEA
:1032500089254642594490450431811041CA1824B9
:1032600090F240302EAD5622F56114002541D51C58
:10327000F587DBE410720A298810A20429449050D3
:103280000A112410E3100A049D401611041258205C
:1032900015956AA81D344821810C524820831022BC
:1032A000C820848C4448398598F2E136002641D5FF
:1032B0001CF587EBC621A65411441142122124119A
:1032C000421221631141186AC799861A09848842FB
:1032D00006114590420219A42042CC21E494428C6C
:1032E0003145A4F280286990634AF8701B002710CA
:1032F000D51CF5875B4292487F1FFE7F060028237E
:10330000D51CF5877B2396675C793548450A92483A
:103310007F9244124B24B18A241A686289448A023B
:10332000002925D51CF587BD210BB46215492C91C8
:1033300048122949227D90440A125820058BB35E19
:103340008143860F0E002A29D51CF5879F2591B64B
:10335000C6204398128628E40161DC2AD038C4884C
:10336000208A0C920A218898A1C2111F7E14002B7A
:1033700018D51CF5875F2091BEF580200F08F280DC
:103380005024D2F7E177012C15D51CF587FFFF9D5E
:10339000110B34CFC012499C228963012D0ED51C1C
:1033A000F587FFCD67BE0FFF97002E11D51CF5875F
:1033B000FFFF2281E659907CB805002F29D51CF526
:1033C0008783818E484112491C91C411294822816A
:1033D0002412482281241248228124124822814446
:1033E0008E0FDB003043D51CF587FBC5A5B59209D0
:1033F0002591420E31C510530C29A610630A2923CA
:103400001042C8108490310621648C410811835009
:103410006114428E21A518628A21A618724821C81B
:103420000493D64AAE7C783116D51CF58717C8337D
:103430000D2DC548202C1012E9FFBF0F0F3221D5EA
:103440001CF587F3C625C55211E61043904024D2DF
:10345000208904D25E05E92249C1FC3E9C0633283E
:10346000D51CF587F3C525C55211260953220D92A7
:1034700076186AA8A558451A0A889C61C831C220E6
:10348000A654331F5E00342FD51CF587474624B061
:103490007AC65D6D04C248206C08B2C6206B0CA2CF
:1034A00006218910924621E881501E08E581E048F6
:1034B000A4F7E13A003525D51CF587D3EE7887448B
:1034C000BAB8144B0D9152CE3844924867C6218643
:1034D0001C624E38A7A5D5CC87073635D51CF58795
:1034E000FBC5A5B5920905952212892352C1A8866C
:1034F0001A32A39C52C8A10C39C490430C39C49011
:103500004319724821A98892D64AAE7C78010037C7
:1035100021D51CF587D3EE7871441247A4E28824A4
:103520008E48C511A938220549A42089E4C3230087
:103530003839D51CF587F3A629C552110591520ECD
:1035400031E410430E3104114252116429861809E6
:103550004511421031141A86205208228520528AC1
:1035600021C708839852CD7C783935D51CF587F36F
:10357000C5A5B592092591420E31E450861C62C85A
:1035800021861C624A29A70C731C6ACA0412A93836
:103590002249A2905482416CA5663E3C01003A1635
:1035A000D51CF587FF1A81E659907C788940F32C69
:1035B000483EDC023B1CD51CF587FF1A81E659907A
:1035C0007C7869C402CD33B04412A748E2988101E7
:1035D0003C1BD51CF5879F0A72C0E20EBBE70A347C
:1035E000F08206DE6089648A0F0F023D1BD51CF550
:1035F00087BFFD80200F08F280F830F880200F0888
:10360000F280F8F02F023E19D51CF5872F073A6497
:1036100081E8E17B5633EDB03B671E89E2C3073F8B
:1036200025D51CF58753A529C59011E61043904078
:103630000405442205092CAF8254A43E240934CF4A
:1036400082E4C3034043D51CF587FBA629C590112E
:10365000E55085A45186416410350659630C23C892
:1036600018A210328620858C214821630842CA188E
:10367000A304338860648C45C8288110224B3C82A7
:1036800024A6163B1FAE034138D51CF58717C21C74
:10369000728A051668DC08C38D301A09848D31D80A
:1036A00018449141D4284331D4903BE310430E3168
:1036B0002311421221449131161164910F97014256
:1036C0003AD51CF587CB4B35E40E21C790530A4100
:1036D000A410440A41A490430C21C7B8D3D033E4CA
:1036E00094421029241142122124114212210491E2
:1036F00042CA29CFB8C33E9C07432AD51CF587FB95
:10370000A6A9D4CE11C614434A418490240C812426
:10371000D24F92486241E21443CC11E634A59AF9A3
:10372000701E00443ED51CF587CB4B35E40E21C7F7
:1037300010530C39A510440A41A4904408498490C0
:1037400044084984904408498490440849A310449B
:103750000A41A490430C31C510624E432CA90F2F8F
:10376000004522D51CF587CB0F84F240280F8442F8
:10377000227DD11DEF9048BFF840280F84F240F819
:10378000701A004616D51CF587D3CF7C8644FA62A2
:10379000431D2291FEFBF00C004732D51CF587FB40
:1037A000C525D58E19E55085A061480A67447A057C
:1037B000115210210511920821891482482188187C
:1037C000728839C21C97143B1FCE034846D51CF59E
:1037D00087CB049142102904914210290491421090
:1037E00029049142102904914210290F84F24028A3
:1037F0000F84421029049142102904914210290497
:1038000091421029049142102904914210F9701A32
:10381000004913D51CF587D30D758D44FAFFC71ADF
:10382000EA3E1C074A1CD51CF587EB2C718D44FA27
:10383000FF5430240D52501145AD955CF9F006004F
:103840004B40D51CF587C30415421029E410431DD5
:103850005208228424328822A22812CA4A0CB5C4F3
:103860001223822C328822A324424822852052CA65
:1038700021A618728821A714820A21897C380D009C
:103880004C11D51CF587CB24D2FFFFC567BE0FB7FF
:10389000014D4ED51CF587C3630D421221241152F0
:1038A0004E21E514628A21A61872C621671C42C205
:1038B000140821610A841051042144144108196339
:1038C0001042C61884101208950821891092082108
:1038D00089109208218910920821897C380D004EA8
:1038E0004DD51CF587CB0491421029E590520E2945
:1038F000C690720A29A790820829240C420A0964FA
:103900009042C418A4104115328620850C1248211B
:1039100064045208418594538831851853C8298519
:103920009C520822852052481A1F4E034F3BD51C3B
:10393000F587F3A629C59011E61043215208228489
:1039400028328822832832882283283288228328BA
:10395000328822832842861A8520520822863A46D7
:1039600018C4946AE6C3035029D51CF587CB2C35BF
:10397000E40E29C690530A41A410440A41A41044FD
:103980000A39A59062CC33EEB04422FDFBF00E0064
:103990005143D51CF587F3A629C59011E610530AAB
:1039A00041A41044CA5064104506516410450651A4
:1039B000641045065164104506516410450841A441
:1039C00010440C3115298829D50E1C92C4D4903B83
:1039D0001F3800523ED51CF587CB2C35E40E21C78D
:1039E00090530A41A410440A41A410440A39C490D7
:1039F000628C3B0DB14408498490440A41A41044B0
:103A00000C39C414430E31E49442102904950F97E5
:103A1000015330D51CF587FBA6A9D49011C61433E9
:103A20000E41E29048248906A287DE8127124922AE
:103A3000314191221429039172C4310E31763E9C9A
:103A4000075416D51CF587C30F08F280200F884550
:103A500022FDFFDF8717005542D51CF587CB2411C7
:103A60004212212411421221241142122124114216
:103A70001221241142122124114212212411421236
:103A800021241142122124114212210495420E31A7
:103A90006698D3D262E7C37900563BD51CF587C33D
:103AA0004491411419448D421029041133D038E453
:103AB0008C430C41C38C44CA48841035C858648C6C
:103AC000450461438C46C268C899674112891C52FB
:103AD0007C7802005752D51CF587BB848D31D818ED
:103AE000A38832C628838C41C8342832063546194B
:103AF000A38851C6286294218C188504234621612D
:103B00005648106284618C18411C23CC31A39C421E
:103B1000CA29A49C420A1A66A461461A66A4614690
:103B200012487C380E005839D51CF587C3249142C1
:103B30001031D4216624424822642C22C8228134C8
:103B4000E4CC3390C0028D430D3122C8228228423A
:103B5000482284206228440A418410453E5C06596C
:103B600029D51CF587C344914112290491420E6561
:103B7000C8218524424822642C22C8226234D4CE33
:103B800033AF44FAEFC30B005A2ED51CF587CB0F89
:103B900084F240280F04482281542490C41109243F
:103BA00091402A1248E28804923858200F08F28087
:103BB000200F880F97015B14D51CF5873B2C71896A
:103BC00044FAFFFF224BDC870A005C2BD51CF587EB
:103BD000BD11892491481289249148128924914861
:103BE000128924914812891C92C8214924924422A6
:103BF000870C1F0E015D12D51CF5872B0D7591FEEC
:103C0000FF7FA8F72103005E20D51CF587178424C9
:103C10009140E3501B813022C81A64284208226672
:103C2000A870C287FF87015F13D51CF587FFFF6768
:103C30001F18E381311E181F1A00601AD51CF58762
:103C40003B818A29E690249258C112899CE690E231
:103C5000C3FF4100612AD51CF5877FE1B0951A2A80
:103C6000C2A48048A4123BCE3C530C290491424E7E
:103C700029C498620432EFB85406F9701A0062330E
:103C8000D51CF5872324D24F14D5903B4718530CED
:103C9000754A218814824821881482482188148218
:103CA00048218798628831C318774648688CF2E1CA
:103CB000016321D51CF5877FC234A51832C29862F2
:103CC00028240C89F42489E5087444412DA9663E12
:103CD0009C076435D51CF5878324D2A78A20A81DAC
:103CE000678C3886985208228520520822852052F7
:103CF00008228520520822A51C628829C688731CC8
:103D00006AAA08F2E13400652CD51CF5877FC1341E
:103D1000A5582AC21C62C8198814824879209407C1
:103D20004279201412492C91A0908C30A7A5D5CCB3
:103D300087F300661CD51CF58763A629C5521105BB
:103D400011231289546BA86324D2FFFBF00600678D
:103D500036D51CF587BF5FC838AF3C100A21E51087
:103D6000331031E410430E2905155112534AA5456D
:103D700062810EB9F30A418490440849849C61CC65
:103D80003B6CA10E006836D51CF5872B24D26F94AE
:103D9000440242EEA0508E29C414431D62C82186FD
:103DA0001C62C821861C62C821861C62C821861C30
:103DB00062C821861C62C8211F4E036919D51CF5F3
:103DC00087534312582289E3838C1A16E9FF1A4B52
:103DD000DC87E3006A1FD51CF58773231658C5F1ED
:103DE00081554B8BF4FF53C190244A414594B456FE
:103DF00072E6036B35D51CF5872324D2EF94424C31
:103E000031A4944348416494440459241096B11257
:103E1000C8228328324A22A42052CA21861C628AE0
:103E200021A71482CA87CB006C12D51CF5872B8979
:103E30006591FEFFC7DCF13EDC066D1DD51CF587E4
:103E40003F4D0219A43C20C8036394604219F4FF5B
:103E5000FFFFFFDF87CB006E35D51CF587BF4D46D2
:103E6000492420E40E0AE598424C31D421861C6294
:103E7000C821861C62C821861C62C821861C62C8B3
:103E800021861C62C821861CF2E136006F30D51CE9
:103E9000F5877FC1B4B41832C19C528A218714922D
:103EA00008218910920821891092082189147288AA
:103EB00029861C134C622AB9F2E105007034D51C26
:103EC000F587BF4D44510DB9738431C550A7148295
:103ED00048218814824821881482482188147288D5
:103EE000298698238C71A721228A2291DE0705005A
:103EF0007132D51CF587BF5F0441ED3863C431C40E
:103F000094421029049142102904914210290491ED
:103F1000421031E410434C31469CE35053459048E5
:103F20005F06721CD51CF587BF4E464924A4F34C8E
:103F30000AE418234E81059248FF7D780500732816
:103F4000D51CF5877FE1B095DA31E21872C62128D9
:103F5000A012CF530E41138B118998814839C21C8E
:103F600087D8421FCE03741DD51CF587574924718D
:103F7000C8A9B9E32D12E9BF22940964AD959AF955
:103F8000701C007535D51CF587BF4D0E31E410430C
:103F90000E31E410430E31E410430E31E410430EB1
:103FA00031E410430E31E410430E31A59463C2395D
:103FB0000E355504F9701B007630D51CF5873F5D32
:103FC000D228248D421031038D43CE38C41044CA08
:103FD00048A40C35C858648C450461248C869C79AF
:103FE000E69548E2F8F004007743D51CF587BF4C0E
:103FF00016196391318A20640C42066D0C42061931
:10400000A38C51C428431831CA10468C42820843FD
:104010008C428210230C63843946985386398594E8
:10402000534841849034CCF8701C00782FD51CF58F
:1040300087BF4D1029C590430A498410450459246F
:1040400090769E790516681C6244104506518410CE
:10405000440C315521887C380D007939D51CF58701
:10406000BF4D12210491421031E41043CE40C310E1
:1040700044CA508310450651640C460261240C3733
:10408000C270E715582089D40A84AC21CA4A0CBDF5
:10409000F2C1007A1DD51CF5873FFECC07E9607997
:1040A00015A4C1F2CA7B2094074279207C380D0008
:1040B0007B21D51CF587270E4B4B29F348A40F1203
:1040C000775C812616392489F48B059EA7586A28C7
:1040D000037C0ED51CF5875324D2FFFFFFE7017D3B
:1040E0001FD51CF587D3C725A6609124D227493C4C
:1040F000CF72E591487FB038B3D44A0C7D007E176B
:10410000D51CF5877FF314515628E301510641AEC3
:104110007CF87F0200A00BD51CF587FFFF7F1700FE
:10412000A118D51CF58753049A6783E40334E4147B
:10413000E91FAC17C7872700A240D51CF587374871
:104140002471C8018B4BAA9D129029828461C818E2
:10415000231842C6088690A108198A90A1C8208A0F
:104160000CA2C8188C8841C229610C815028A8A5CE
:10417000C58E1B72F6610100A32BD51CF587FBC50C
:10418000A5B592092495121489144C2C73449248B5
:10419000174724F098605618E501418A5025A0F28F
:1041A000E13800A429D51CF5878F8B24CE3B2DAD9B
:1041B000540649E30C34CE40E30C440A492594D418
:1041C000CE334314314E50E2C3BF0900A52FD51C96
:1041D000F587C344114210290411431D624622840D
:1041E0002442C6228230124643CE3C030973C76381
:1041F0002412E68EC748A43EBC0000A611D51CF5CB
:10420000875324D2FFF7012791FE9F07A73AD51CB9
:10421000F5874BA629C55211E6103310312291586B
:10422000A281A82935C4418498430C39C4906308FD
:10423000414CA986A0892512240E39C31473444128
:104240004DA9663EE401A818D51CF587C541862A0C
:10425000A2A4224A2AA2A841C687FFFF1500A948A6
:10426000D51CF5875F284E29864829860413082126
:10427000010532465061881108196188114619629A
:1042800084498D30A9112635C208848831C2105462
:1042900018630415C618020542C620829462C869D4
:1042A0004A35F3E13C00AA25D51CF587F3C621A6C3
:1042B00098208385421A5A4AAD440849A39044463F
:1042C000494C2D96BA3BDE87BF0E00AB2ED51CF5B0
:1042D00087FF5A30810D325411241541121924914F
:1042E00041121944155154114515515411451541A8
:1042F000D6208305133E7C0800AC10D51CF587FF43
:104300004BEE7891DE873F0400AD0ED51CF587FF9C
:10431000CD67BE0FFF9700AE47D51CF5875F284ECF
:10432000298648294609424648810C21C61862461A
:104330004618621A448C30441A230C91C608432054
:1043400032C210131981843186186384318618E3D0
:1043500090430822C50C739A52CD7C380F00AF0EE3
:10436000D51CF587E34B6D1FFEFF4700B01CD51C25
:10437000F587F3A625A654112511421221241551C3
:104380009462C8950FFF1F04B120D51CF5876F916B
:10439000486F3D20C803823C201489F4FBC03E20B6
:1043A000C803823C203E5C06B21ED51CF5874BC577
:1043B000A5B51419448D32E4880492573D0209646E
:1043C00089FBF0BF0A00B321D51CF5874BC5A5B505
:1043D000D620430E779C794712399430231142D26C
:1043E0005AC9950FFFCB00B414D51CF58789304905
:1043F00024B0402A8E293EFCFFEB00B53BD51CF5CE
:10440000873F4D0E31E410430E31E410430E31E48A
:1044100010430E31E410430E31E410430E31E4102A
:10442000430E31A51421C4094B3C40C412465064CC
:104430001012E97D6000B64CD51CF5874B0BB5E337
:104440008C12A32C31CA12A32C31CA12A32C318C8A
:1044500012C328314E1203213194118311311811E6
:1044600083113118118311311811831131181183FF
:104470001131181183113118118311311811E343CF
:104480001900B711D51CF587FF0D02CDB320F9F047
:10449000BF0C00B813D51CF587FFFFF7C524B1B0DA
:1044A00031064BAE2000B913D51CF5875B03167798
:1044B000B930869CFF3EFC2F03BA2AD51CF587FB3A
:1044C000C521A6D620241142D230230D33D2302369
:1044D0000D33D2282411429462E8910F843BDE8789
:1044E000BF0E00BB2ED51CF587FF5230810D321652
:1044F0001165115116196491411619241551501165
:104500000515515011251151D4208305133E7C0C03
:1045100000BC4ED51CF587BD81C2296810830609F1
:10452000629C81C619681882861969149246196AB4
:1045300010A206196B0C124724714412472464A878
:1045400041482284A4414A1A438481C61861A021AB
:10455000A643823243A842D040210D393EA401BD7A
:104560004DD51CF587BD81C2296810730809629C6E
:1045700081862168989186196994A146196A10A2CA
:1045800006196B0C1247247144124724A2A8214E2D
:104590001A6108728610649C818619689CE99042B1
:1045A000D028049132942889A50F6100BE4FD51CF4
:1045B000F587B9F25019458C51861A841C43C831CD
:1045C000832C228809658871C42081982406428141
:1045D0002832462471441247247190A108196A10A8
:1045E00092C828690C83C81061A0318418680855E6
:1045F000C65065A081041A727C4803BF28D51CF5FB
:10460000874B049A6741F201279182049657410231
:104610000B2491420111241031E498701053AA9593
:104620000F2F00C03ED51C3517B23C04CB141F9C85
:1046300030879C6281051A37C270238C4602616301
:104640000C360651641035CA500C35E4CE38C4908F
:1046500043CC488490440851648C450459E4C365B4
:1046600000C13FD51CF5074140D35033507CB0C248
:104670001C728A051668DC08C38D301A09848D31D6
:10468000D818449141D4284331D4903BE310430ED1
:10469000312311421221449131161164910F970177
:1046A000C243D51C750A7344D3D22AA12832C80A42
:1046B00046C030879C6281051A37C270238C46023F
:1046C00061630C360651641035CA500C35E4CE389F
:1046D000C49043CC488490440851648C450459E408
:1046E000C36500C342D51CB5210F8971DC2101A926
:1046F00040CA073ACC21A7586081C68D30DC08A398
:104700009140D818838D411419448D3214430DB94A
:10471000330E31E410331221241142141963114174
:1047200016F9701900C43FD51C751E64A8224A2AC8
:10473000A2A4228A1A647C50C494248924966739DE
:10474000D486186D08B288206B90B1062189A586A1
:10475000DA21861CCA0C440A49A30C450651649010
:10476000453E5C06C543D51C351AB1BC21841343B4
:104770003831841B61BC12879CC5020B346E84E106
:1047800046186E04C2C6186C0CA2C8206A94A11800
:104790006AC89D71882187188248198910A206214C
:1047A0008A8CB1C887CB00C639D51CF587F32C316C
:1047B000D4D071A7A1360269231046026143103696
:1047C0004432442433463263104506515B628910FB
:1047D000924621881482485162182586511F2E0363
:1047E000C731D51CF587FBC525D5CE11C614434A64
:1047F000418490240C8124D24F92486241E21443B8
:10480000CC11E634A59A89629258D8188325573A74
:1048100000C826D51CB521D1C003090DFF81501E4B
:1048200008E5815048A42FBAE31D12E9171F08E5D7
:1048300081501E081F1E04C926D51CB522EF30E486
:10484000C807F781501E08E5815048A42FBAE31D20
:1048500012E9171F08E581501E081F1E04CA2DD536
:104860001CB50A9240E3D02A82AC41C60A27A407AD
:104870004279209407422191BEE88E7748A45F7C5C
:104880002094074279207C380D00CB2DD51C751E55
:1048900065A4320A2AA3A0324A1A65F40742792095
:1048A0009407422191BEE88E7748A45F7C2094074C
:1048B0004279207C380D00CC1BD51CF509934403AC
:1048C0004F1C347C101AEA1A89F4FF8F35D47D38D6
:1048D0000E00CD18D51CF51AEFB4E3C807B8A1AE89
:1048E0009148FFFF5843DD872701CE1ED51C751266
:1048F0009240D3D22A822842C60A27A886BA4622E4
:10490000FDFF630D751F8E03CF1ED51C751E65A49C
:10491000320A2AA3A0324A1A65F886BA4622FDFF57
:10492000630D751F8E03D03BD51CF587D36AB1D4B8
:104930001019E790520E31C590430C39C410440A47
:104940004164A442462A64A4422152082285A061FF
:10495000C821861C62A8434A396418D4D052EAC3DD
:1049600003D157D51CB521F088811A22E1A840CA8D
:10497000079320520822A51C52CA21C518524E2165
:10498000E5145210218584414821810C52881883F6
:104990001422A842C610A490410229848C400A2106
:1049A000A890720A31A610630A39A590530A41A44F
:1049B00010440A49E3C36900D241D51C3517B2C07F
:1049C00003CB141F14D39462C8087388A110290460
:1049D00011421419449141141944914114194491FC
:1049E0004114194491411421438D4210290411436B
:1049F0001D230C624A35F3E101D342D51CF5076152
:104A0000C0E28E2B507C904C538A2123CC218642CD
:104A1000A4104408516410450651641045065164C1
:104A2000104506516410450651840C350A41A41006
:104A3000440C758C308829D5CC8707D444D51C7597
:104A4000129240E3922AA2A841C614CD34A518328E
:104A5000C21C6228440A4184104506516410450670
:104A60005164104506516410450651641045C85004
:104A7000A310440A41C450C708839852CD7C78D50E
:104A800044D51CB52924A414C671688803C907D865
:104A900034A51832C21C6228440A418410450651CC
:104AA0006410450651641045065164104506516472
:104AB0001045C850A310440A41C450C708839852F7
:104AC000CD7C78D647D51C751964A8224A2AA2A4A1
:104AD000228A1A647C804D538A2123CC218642A4E9
:104AE0001044085164104506516410450651641085
:104AF0004506516410450651840C350A41A4104402
:104B00000C758C308829D5CC8707D729D51CF5871B
:104B1000DF0C731C81882188909288282BB5F3CAFA
:104B2000330EB112882AA2A0420A1A86A480C48732
:104B3000BF0400D84DD51CF587F130493262A0760C
:104B4000DA31C21C6228630A31861033C220C408DD
:104B5000410629439041C8181419831A839041C60D
:104B6000206410310A19448C420609C38C720A2948
:104B7000C610530A394698D321224A22537C18077B
:104B8000D948D51CF5097444034F1C347C92082184
:104B90008910920821891092082189109208218990
:104BA00010920821891092082189109208218910F9
:104BB00092082189109208218910824A218718338E
:104BC000CC6969B1F3E13C00DA48D51CF51AEFB4C1
:104BD000E3880C1F109208218910920821891092F5
:104BE00008218910920821891092082189109208C1
:104BF0002189109208218910920821891092082198
:104C00008910824A21871833CC6969B1F3E15100D8
:104C1000DB4CD51C751AB1BCD3922AA2A851C60C84
:104C20008824424822842442482284244248228400
:104C30002442482284244248228424424822842454
:104C40004248228424424822842442482284A0529A
:104C5000C821C60C735A5AEC7C380F00DC4DD51CA9
:104C6000759952190595515019258D323E90241190
:104C700042122124114212212411421221241142F4
:104C80001221241142122124114212212411421214
:104C900021241142122124114212210495420E3185
:104CA0006698D3D262E7C37900DD30D51C350B920C
:104CB0003CD3CE23317C4088228324520822851C99
:104CC000CA90430A49849044C858449045C468A88F
:104CD0009D675E89F4DF871700DE29D51CF587CB39
:104CE00024D2C586DC798698620822852052082263
:104CF0008520520822851C629E71A72112E97D78C9
:104D00000700DF46D51CF5874BC5A5B59211059167
:104D1000520C39C490430C39C410530C29E510715E
:104D200010110711910C31A610440A4185904408D6
:104D30004984904408498410440A114298428232BE
:104D400024A44384F9701E00E034D51CF5877E98B6
:104D500023964824894412193E3087ADD450112639
:104D600005442295D871E6996248218814724A2137
:104D7000C614239079C7A532C887D300E133D51C68
:104D8000F5870931472CAF402A92193E3887ADD4B8
:104D900050112605442295D871E69962482188145D
:104DA000724A21C614239079C7A532C887D300E27E
:104DB00039D51CF5870521472CEFB8110823812C24
:104DC00032080B457C300E5BA9A1224C0A88442A8C
:104DD000B1E3CC33C590421029E494428C2946209B
:104DE000F38E4B65900FA701E334D51CF587C9F20C
:104DF0009018C7A1218E0AA47CA81DB652434598DD
:104E00001410895462C799678A21852052C8298560
:104E100018538C40E61D97CA201F4E03E437D51C5B
:104E2000F5873BA38C5446416514544649A38C0F27
:104E3000EE614A3554844901914825769C79A6183B
:104E4000520822859C528831C50864DE71A90CF293
:104E5000E13400E537D51CF587FE80E609319C1862
:104E6000C209319C89E3837DD84A0D1561524024E3
:104E700052891D679E298614824821A714624C31ED
:104E80000299775C2A837C380D00E63CD51CF587B7
:104E90003F4F08392898F2802024A0304A28840CFB
:104EA00045C850848CF240200F88F1C010659044B2
:104EB00008498490444821611471C4180F0C72C4CD
:104EC00031A5900FA701E72AD51CF5877FC234A52D
:104ED000DA31E294728621481812E94912CB11E8BE
:104EE00088825A5AEC4031492C4D10C192331C0033
:104EF000E836D51CF5877E982396482489441219F4
:104F00003E30A629C55211E61043CE40A41044CA33
:104F100003A13C10CA03A1904862890485648439C6
:104F20002DAD663E9C07E935D51CF5878940472C99
:104F3000AF402A12293E38A629C55211E61043CEA9
:104F400040A41044CA03A13C10CA03A1904862893E
:104F500004856484392DAD663E9C07EA3AD51CF57C
:104F600087BE982396771A6A439045065982880F20
:104F700088694AB1548439C4903310290491F240AD
:104F8000280F84F2402824925822412119614E4B67
:104F9000AB990FE701EB38D51CF5873BA38C544642
:104FA000416514544649A38C0FAE694AB154463941
:104FB000E44C6914924679209407427920141289AE
:104FC000249120818C30A729D5CC87F300EC1CD507
:104FD0001CF58790882456914812C70C1F14D4B032
:104FE00048FFD758E23E3C0900ED1BD51CF58798D9
:104FF000902412486081248E0F326A58A4FF6B2CD3
:10500000711F9E04EE20D51CF5877E984312681C04
:10501000622410360661A1880F026A58A4FF6B2C27
:10502000711F8E03EF1FD51CF5873B830C55444938
:105030004594544451838C0F2A6A58A4FF6B2C71F9
:105040001F8E03F039D51CF587C9010F094CB184B7
:10505000D6526B0C22094B8AA1768C30A62AE41416
:105060004212212411421221241142122124914280
:105070000E31C5906382494CA9663E3CF140D51C77
:10508000F587C5F2CE10A82112500AA57C289151AF
:10509000120908B9834239A610530C758821871864
:1050A0007288218718728821871872882187187260
:1050B00088218718728821877CB80D00F239D51CA9
:1050C000F587BC902356914812890C1F1CD3D262DD
:1050D000C804734A29861C524822842442482284E8
:1050E00024424822842452C821A618724C3089A92F
:1050F000E4CA871700F339D51CF5870531472C9092
:10510000820592193E40A6A5C59009E694520C3935
:10511000A49044084984904408498490440849A4D0
:1051200090434C31E498601253C9950F2F00F43F1F
:10513000D51CF587BE90239677DC0884914016191C
:105140008485223E20A6A5C59009E694520C39A478
:105150009044084984904408498490440849A490A4
:10516000434C31E498601253C9950F2F00F539D59F
:105170001CF587C5F29010C89D31CE2B1F72A6A5D5
:10518000C59009E694520C39A4904408498490448F
:1051900008498490440849A490434C31E498601233
:1051A00053C9950F2F00F63DD51CF58733A38C54BA
:1051B00046416514544649A38C0FB0696931648235
:1051C00039A514430E29241142122124114212211F
:1051D0002411421229E410530C392698C45472E564
:1051E000C30B00F71AD51CF5871F16924422C5077A
:1051F000F799EF434E481289141F7E1700F83FD5E8
:105200001CF587DF1693ACA45662C80473CA3886AF
:10521000901146216408420819821032C620840881
:1052200032082162102A1042CA08831063483926C6
:1052300098C4D052239445A4F8300E00F93FD51CF1
:10524000F58792882512492291448A193E10E4106C
:10525000430E31E410430E31E410430E31E41043A9
:105260000E31E410430E31E410430E31E410534A82
:1052700039269CE3505345900F2F02FA3CD51CF57C
:1052800087969804164893E3834B0E31E410430E3F
:1052900031E410430E31E410430E31E410430E317B
:1052A000E410430E31E410430E31A59463C2390E6D
:1052B000355504F9F02200FB43D51CF587BE900458
:1052C0001668DC08841131D8188485123E39C490E0
:1052D000430C39C490430C39C490430C39C49043F7
:1052E0000C39C490430C39C490430C39C494528E89
:1052F00009E738D45411E4C36D00FC42D51CF5878E
:1053000033A38C5446416514544649A38C0F263967
:10531000C490430C39C490430C39C490430C39C435
:1053200090430C39C490430C39C490430C39C49455
:10533000528E09E738D45411E4C36D00FD43D51CE7
:10534000F58798902412486081248E0F2E4984108E
:10535000440A41C490430C39030D431029430D42C4
:1053600014194491311809849130DC08C39D5760A9
:105370008124522B10B286282B31F4CA071800FE64
:1053800035D51CF5872324D24F14D5903B471853AD
:105390000C754A2188148248218814824821881477
:1053A0008248218798628839C218771A22A2281267
:1053B000E97D5000FF48D51CF5873B830C554449D7
:1053C0004594544451838C0F2649A310440C39C48E
:1053D0009033D0300491421029430D421419648D4A
:1053E000311809A48D30DC08C39D576089438E486D
:1053F0009620838D505662E8950F06000000000449
:10540000FFFF00001202050405060104061827002C
:10541000F81EF81EF700000000030A200BF80CF835
:1054200087FFFFFFCF002A31F80CF8870F96492835
:10543000D582216D10524431828C421E28E4817243
:105440009C331141F48820AD88B20A29A998828A38
:105450002969A0F1E19F032B1BF80CF88777CBACEF
:105460006F3D50C803853C50C8038595597F1FFE8A
:1054700049002C18F80CF887FFFF6B641A79E225B5
:10548000CD2C935032293A6C70002D16F80CF88709
:10549000FFFA03C33C30CC03C33C303EFCFF2D007D
:1054A0002E12F80CF887FFFF73831679E2250B1D87
:1054B0001F1E2F2FF80C781C95CC32C9AC6499456F
:1054C00096596499459659269965925926996592F7
:1054D000592699952CB3C8328B2CB34C62C587677B
:1054E00000304DF80CF807DAC4D4D872CA08938A91
:1054F00029A89872CA31A61C63C839A598444A21C4
:10550000A190528628A410220A29838C42CA18A48A
:1055100012A314520229852453CA39A598538C39F1
:10552000B5634A496698E4167329960FDF0331196B
:10553000F80CF8079C480391538CB5124A13A4CC7D
:10554000FAFFFF3E7C0F00322FF80CF807DA40C557
:105550009A7AA990732A3452492195599B64165915
:10556000A489562CB2DE24B3C807867960980786D2
:1055700079607CF812003336F80CF807DA40C55C25
:105580007A2024528C12A7D032CB24B344D3944B2C
:105590004FB925CF2CB4CC5A0AA920910A1AA7A03A
:1055A00042CE792024C7D63B1FBE07003435F80C05
:1055B000F8079FCC4A9A7841F49223A138124A23E3
:1055C000A230320A23A32C428A22A528524A22A6BC
:1055D000A0070A79A090070A79A0BC32EBF7E16333
:1055E000003538F80CF807F501711E10E701711E3F
:1055F00010A7CCBAC998532F3D1090210691635241
:105600004885125A660D0545CE48C59463CC2106DF
:105610003D10925BEB9D0FDF033642F80CF807DC80
:1056200040C59A7AE81092CA11A9CC32C92CC2ACF2
:10563000971E08E80171D030C79C620A2AA624622E
:105640004A2AA5A4524A2AA5A4624822A73AC61407
:105650006486514EB5A6A0F9F03900372DF80CF844
:1056600007F481611E18E681611E18B2CC22CB2C92
:10567000B2CC32C9AC6499659259C932CB24B39289
:105680006556B2CCEAC337013840F80CF807DB4066
:10569000C59A7AC90C938A29A73E540C49A514656A
:1056A0004461CB25B758112795525039E590444CA9
:1056B00049A594544A49A594548A39C69862CE03A0
:1056C0002139B6DEF9F039003941F80CF807DA4033
:1056D000D5D872C910838A29A7A0620A2AA6246293
:1056E0004A22A624624A2AA61C630C41E701711EC5
:1056F000102985B28C20949A550AA8A4614C22C422
:1057000024A71A5BD07CF820003A1AF80CF8873FDF
:105710003D6891275EB2D0F1E1DB831679E2250B7B
:105720001D1F1E00000004FFFF00001815A115C872
:1057300019FF1815A015C019FF1815AE15D516803C
:1057400015A8163F15D316001540158D16141520F3
:10575000160015A115C815DA1612158116CF15D920
:1057600016F115DB1640152E15A415A619FF1815F0
:10577000AF19FF1815AE19FF0001140A6464323224
:1057800000127A00000428961008000080004000F3
:10579000B0570008000000201000000004010008BD
:1057A000C057000810000020700B00002001000806
:1057B0000024F400010000000400000000000000CC
:04000005080000C12E
:00000001FF
