:020000040800F2
:10000000980B002075010008551D00087D1500089B
:1000100000000000000000000000000000000000E0
:10002000000000000000000000000000B51E0008F5
:100030000000000000000000571D0008B71E000867
:100040008701000800000000870100088701000800
:100050008701000887010008870100088701000860
:1000600000000000870100088701000887010008E0
:1000700087010008870100088701000800000000D0
:100080008701000800000000000000008701000850
:1000900000000000870100088701000887010008B0
:1000A0008701000887010008870100088701000810
:1000B00087010008000000000000000000000000B0
:1000C00000F002F800F046F80CA030C808382418F8
:1000D0002D18671EA246AB4654465D46AC4201D180
:1000E00000F038F87E460F3EB6460FCC012633426C
:1000F00000D0FB1A3343A246AB461847F45B00001E
:10010000145C0000103A02D378C878C1FAD85207BC
:1001100001D330C830C101D504680C6070470000BD
:100120000023002400250026103A01D378C1FBD813
:10013000520700D330C100D50B60704710B5752948
:1001400002D100F07DF810BD002010BD1FB51FBD0D
:1001500010B510BD00F001FD1146FFF7F7FF01F0EB
:100160002DFF00F019FD03B4FFF7F2FF03BC00F010
:100170001FFD00000748804707480047FEE7FEE7ED
:10018000FEE7FEE7FEE7FEE704480549054A064BA1
:1001900070470000B91F0008C10000089805002042
:1001A000980B002098070020980700200FB41CB57A
:1001B000074B06AA7B4469460090059800F0A1FC15
:1001C0000020694600F0B0FC1CBC08BC04B0184715
:1001D00071090000F8B50E46044600202062204652
:1001E000E1688847002829D0252802D06268A168E4
:1001F00020E0E16820460027884705001ED02846F9
:100200004138192802D80127FF02203532462046FE
:1002100027602946FFF792FF002808D0012804D064
:10022000F61DF608F6000836D9E7361DD7E76268EE
:100230002846A1689047206A401CCFE7206AF8BD95
:10024000F7B5002575291068009914A611D0C0468D
:10025000C046002802DA404211A608E00099096869
:100260008A0701D50FA602E0490704D50EA601258D
:1002700001E0C046C046009F0024243704E000F09F
:1002800058FC30313955641C0028F8D12B463246D1
:100290002146009800F0D8FBFEBD000000000000E1
:1002A0002D0000002B0000002000000001E004C031
:1002B000091F0429FBD28B0701D50280801CC907C6
:1002C00000D00270704700290BD0C30702D0027023
:1002D000401C491E022904D3830702D50280801CDA
:1002E000891EE3E70022EEE70022DFE77047704750
:1002F00070470000F0B5F94D0C091E092C402E4046
:100300002F468BB0A7437DD0B543FCD0002E7AD0CA
:10031000002CFCD00D465D40ED0F2543AC1BFF25A6
:10032000AD0464190894C502440DC9022143500D5F
:10033000DC0204430120C00701430443D2020191BF
:10034000200C110C00958C46010423468B430A9126
:1003500061460904E24D8A430991010A7D44491925
:100360008039097805464D4301266D18F605751B41
:100370006943C90C640B891C4C436418B5012C1BE0
:10038000250C2E04B4434C434D43210C69188909B4
:100390000591009DE90701D00121C90704912C4670
:1003A00001996708CD072F434C08059DE10B4D438C
:1003B0002D0C29466646754302950D4645432E464B
:1003C000029D7D1BB44100950D465D4301942C0CAC
:1003D0002F040D465543AE462D0C3D430295039424
:1003E0007546049C2D04641B049406D2029C039D54
:1003F000641C002675410395029401AC70CC009FEB
:100400007D1B01E03EE162E1B441090400950791E2
:1004100001940599A4086143090C0C464443650BFB
:10042000E7040C4666467443A646640B3C430395BA
:1004300002947446049DE4042C1B049406D2029C8E
:10044000039D641C002675410395029401AC70CC99
:10045000009F7D1BB44101940C465C430095650FE1
:10046000E7000C465443A646640F3C4303950294B0
:100470007446049DE4002C1B049406D2029C039D48
:10048000641C002675410395029401AC70CC009F5A
:100490007D1BB441AE09AF06049DC900AD092F43D1
:1004A000049DA406AD060495079D34436918079181
:1004B000059DE10B4D432D0C29466646754302957B
:1004C0000D4645432E46029D7D1BB44100950D46C9
:1004D0005D4301942C0C2F040D465543AE462D0C64
:1004E0003D43029503947546049C2D04641B0494BB
:1004F00006D2029C039D641C00267541039502945C
:1005000001AC70CC009F7D1BB44101948C05069416
:10051000079C890A611800950791019C0599A40818
:100520006143090C0D464543680BEF040D466446D4
:1005300065436C0B3C43049FED047D1BAC4602D22B
:100540000025641C6841009E019D371B85410846BB
:10055000584301950C46460FC5005443600F28438D
:100560006546E4002C1B02D20025401C6E41019D13
:100570003F1AB5412846BD09800628438446A00994
:10058000BF064E020699A40676180743079D002071
:1005900068410A99079019430020099B0090604622
:1005A000FF1913434041E20F64003A43A446044656
:1005B000D71A8C41A04203D90120009020463A4628
:1005C000C70F941840416246D20F2243644664002C
:1005D0000494009CBE466400D71AA44604460297C1
:1005E0008C417746002F01D1A04204D96046401CBF
:1005F0008446029A2046C40FA64694184041049AA5
:100600000546D20F224364466400D31A8D417146D9
:10061000002901D1A84202D928461A46641C104379
:100620000122002800D0164361020020079B89198F
:1006300004465C410223002C02DB49181346644146
:10064000089DCE0A2D145D194B056705E10A2C059E
:100650000D1908993E43C9076940002B08D0934003
:1006600006D30022761C5141002B01D1760876007A
:100670001C4A002D43DB154241D0AA433FD03046EF
:100680000BB0F0BD06180D464D41174C7642AC41FB
:100690001AD395181C465C41134A6D42A24113D3EC
:1006A000012252054C00D4420AD15C00D4420BD046
:1006B0004B4002D592021143E2E749004908DFE7C7
:1006C0005940C90FC90718E000200849D8E7054874
:1006D00001420DD10342F7D0F2E700000000FF070E
:1006E000C23200000000F07F0000E0FF0000F87F51
:1006F000114859400143C01241400020C0E7012386
:10070000089A9B069A4205DC032252078918C90FF2
:10071000C907B5E7052252078918074A1143D212C3
:100720005140ADE770B515461C4602460B462846BB
:100730002146FFF7DFFD70BDFFFFFF7F30B50346A9
:10074000CA02400D1043164D164C0A1502D0204324
:10075000002A06DBAA1A002A12DDD040FF2A0BDC91
:1007600030BD5205520D01D140004008AA1A07D4ED
:10077000D0404042FF2A01DD002030BD0028FCDDD2
:100780004A00002B01D0012000E0002010180122B7
:100790005205D042F0D8C817C043604030BD0000B9
:1007A0001E040000000000801F22030C02D10F2253
:1007B000000402D0030E03D004E00020014670477D
:1007C0000002083A030F01D10001121F830F01D16B
:1007D0008000921E002801DB4000521E12055118B5
:1007E0004205C012411810467047C10FC90700D01A
:1007F0004042012292071143D6E701218907D3E73E
:10080000F0B58B4C0F09254689B0BD437BD01D093F
:100810002646AE43FAD00E465E402740F60F3E43D2
:10082000254071D024012142FBD0FF24AD19A4043E
:100830002D1B039501252D05DB02DB0AC9022B4385
:10084000C90A29431E010901040F130F05012143A1
:100850001701880B820391432D098C46A90B1E4377
:100860008A039543B30B9A0396433F09BA0B94034B
:10087000A74302962E467E430497B6464E19D719D3
:100880000C460196544305977E43371B7646BF1BA3
:100890003601B646BE0B361900967646BC043719AB
:1008A000009C01D3641C00946400002F01D0012639
:1008B0003443029E049F754366467E430496760049
:1008C00034196E0034190094029C019E1C19664371
:1008D000751BAE46069465464519059C05956C4307
:1008E000594375460891691A0191049E0146514386
:1008F000A41B0491611A009C0791E10605D06109CF
:100900000122114302E072E06EE06109089D0027B8
:100910002C0A2D066918049D7C412A0A2D066918A7
:10092000019D6241AC0DAD026D185441079A910DC5
:10093000920255196141029A644658435443069BFA
:10094000059A5A43121A131B9A0E9B015B187A419F
:10095000010B0005C3185141220A200644195A41CF
:100960009A4200D2491C01204002814203D3152340
:100970000226F64302E014230326F6432020C51A7C
:10098000A9401746AF40DA400A4320460399D840B1
:100990000914731819055118039A3843D2075140A6
:1009A000AC4009D00122944006D30022401C5141A2
:1009B000002C01D1400840001E4A934212D301226C
:1009C00003989206904207DB0520400709181A4851
:1009D0000143C012414004E0032040070818C10F42
:1009E000C907002009B0F0BD0020F107FAE705189B
:1009F0000C464C4111486D42A04115D394181A463B
:100A00005A410E48644290410ED301204A004005ED
:100A1000824209D35A00824206D35940C90F084A7C
:100A2000C90700201143DDE700200649DAE700008E
:100A30000000FF07FE070000FFFFFF7F0000E0FF50
:100A40000000F07F0000F87FFFB504460D4681B03E
:100A5000243000902168880604D51022E069914373
:100A6000216000E00120A84201DD471B00E00027D3
:100A70000498A1697A191018081AA0612078C00694
:100A800002D42046C046C046002608E003986268AB
:100A9000A168805D9047206A401C761C2062049803
:100AA0008642F3DB2078C0060AD52046C046C04601
:100AB00006E06268A16830209047206A401C2062EE
:100AC00038467F1E0028F4DC07E000986268A168C1
:100AD000405D9047206A401C206228466D1E002819
:100AE000F3DC2046C046C0462078000602D502202E
:100AF00005B0F0BD0120FBE701694A1C02610878DE
:100B0000704700B58FB0029100210591054901930E
:100B100079440391114604906846FFF75BFB0FB0E0
:100B200000BD0000E5FFFFFF0A681070521C0A605C
:100B3000704701468008081A02091018020A1018A6
:100B4000020C1018C008820012185200891A01E025
:100B5000401C0A390A29FBD27047754600F024F878
:100B6000AE46050069465346C008C000854618B029
:100B700020B5FFF709FB60BCB64600260027C0C5BC
:100B8000C0C5C0C5C0C5C0C5C0C5C0C5C0C5403D45
:100B9000490849008D46704710B50446C046C04616
:100BA0002046FFF7E0FA10BD004870471000002013
:100BB00001491820ABBEFEE7260002007047000086
:100BC000F0B583B001930292744E8027376037618D
:100BD00001252A02724CA2800022724BFFF78AFB89
:100BE000AA07714BFFF70CFEFFF7A8FD01018A0C65
:100BF000089923681B0608D523681B0605D52368BA
:100C00001B0602D523681B06F3D4376037603761B3
:100C100021231B02A380654B184023681B0608D5BF
:100C200023681B0605D523681B0602D523681B060F
:100C3000F3D4376003239B031943029B002B02D09C
:100C4000012B39D06CE0009537603761574B5B1C46
:100C50001843A08025682D0608D525682D0605D5E2
:100C600025682D0602D525682D06F3D43760376038
:100C700037611A43A28023681B0608D523681B0628
:100C800005D523681B0602D523681B06F3D43760FD
:100C900037603761A180009D23681B0608D5236853
:100CA0001B0605D523681B0602D523681B06F3D453
:100CB0003760029B012B33D1376037613C4BC01842
:100CC000A080E80323681B0608D523681B0605D50A
:100CD00023681B0602D523681B06F3D437603760F0
:100CE00037610243A2802068000608D5206800060C
:100CF00005D52068000602D520680006F3D43760C9
:100D000037603761A1802068000608D5206800069A
:100D100005D52068000602D520680006F3D43760A8
:100D20000198022815D0012825D0002834D1376039
:100D300037616803801CA080206800062BD52068DE
:100D4000000628D52068000625D520680006F3D4C3
:100D500021E03760376168032830A08020680006F2
:100D600019D52068000616D52068000613D520681E
:100D70000006F3D40FE0376037616803A080206875
:100D8000000608D52068000605D52068000602D5B3
:100D900020680006F3D4376003B0F0BD180000509F
:100DA0000830014080842E41E17A6441FF3F000019
:100DB0000080FFFFB0B582B00020019000903B4C56
:100DC0002068C0076FD120683949014001252807F4
:100DD0000818206037480068374902F027FB4000B8
:100DE00001900198002814D00198401E01900198AC
:100DF00000280ED00198401E01900198002808D0CC
:100E00000198401E01900198002802D00198401ED0
:100E1000E6E76068032108400090606888436060EE
:100E20002268264802401218183222602268002ADE
:100E300008D52268002A05D52268002A02D5226832
:100E4000002AF3D4009A63688B4313436360202124
:100E500001910199002914D00199491E019101992C
:100E600000290ED00199491E01910199002908D04D
:100E70000199491E01910199002902D00199491E49
:100E8000E6E72168014029432160204608380168CF
:100E9000C90708D10168C90705D10168C90702D18E
:100EA0000068C007F1D002B0B0BDC04608240140C0
:100EB000E8FFFF6F04000020400D0300E8FFFF7F04
:100EC000EFF3108072B6FEE7F0B58CB00B916A4A72
:100ED000904201D0052200E0032200920B990F6896
:100EE000002F00D1C6E00123002635460293099663
:100EF00008960A9013E03A43614802600A980B9AF8
:100F000017683A46DA40361D08355B1C0999891C7A
:100F100009910899491C0891002A00D1AAE0591E9C
:100F2000029C07918C402740E9D0069505960B9AC4
:100F3000516803260D4635406A1E012A04911BD8CC
:100F4000032209998A400A98806890430B9EF668AC
:100F50008E4006430A9886600498C006C00F079921
:100F600088400A9E7668A64306430A984660D443A2
:100F70000A98089949000BE0324609998A40D443FF
:100F8000032D05D1099903913546059E049923E067
:100F9000C268019422400B9CA4688C401443C46036
:100FA000022D039115D11C20059E30400F22824056
:100FB0000799CC08A4000A9D2C19256A95430B9922
:100FC0000A6982402A4322620A98496803250D4033
:100FD00001E0059E0499019C039A95400268224015
:100FE0002A4302608A03920F069D88D01820284069
:100FF0000F2585400322079991430A9A1F4C6618D2
:10100000346EAC43603605252D07AA4208D01D4D2D
:10101000AA4207D01C4DAA42009D04D1022502E03D
:10102000002500E00125854025433560134802680E
:101030000B984068C40201D53A4300E0BA43059ECC
:10104000069D0E4C22606268840201D53A4300E09E
:10105000BA430A4C62600A4A5268840301D53A4393
:1010600000E0BA43064C62602268C00300D542E744
:10107000BA4341E70CB0F0BD000C0050001802402C
:10108000801802400004005000080050F648006834
:101090007047C046B0B502464120135C0220202BA9
:1010A00019D1134640331C78012C14D024205870D9
:1010B000106802680124A243026022030568954378
:1010C000056002680A430260016821430160002054
:1010D000187020215970B0BDB0B502464120135C94
:1010E0000220202B19D1134640331C78012C14D038
:1010F00024205870106802680124A24302600F2265
:1011000012020568954309022943016001682143E1
:1011100001600020187020215970B0BDF0B581B079
:10112000002822D00446054640356878002804D1BE
:1011300000202870204600F05BF9242068702068A9
:10114000026801218A4302600F22120663689343FA
:10115000036183681C4A13408360A368E668012E1C
:1011600006D1CE03334383600CE0012001B0F0BD13
:101170002127BF023B438360022E03D1CB02466886
:101180001E4302E0CB0246689E43466043680F4E12
:101190001E434660C3681340C360226963691343FA
:1011A000A26912021A43C260E269236A1343036010
:1011B00002680A4302600020606420216970206395
:1011C000A87001B0F0BDC046FF7FFFFF00800002A5
:1011D000F0B585B01C46054641202B5C0220202B33
:1011E00000D0F5E02B4640331E78012E00D1EFE011
:1011F000019204910120029303901870FFF746FFBB
:10120000064629688869000415D42120029A507086
:101210001020907000236B646C85019F6F626B637C
:10122000688D000A039325D0FF202885012213062C
:101230002C46283428E00398C70302E08869384226
:10124000E3D019212846324600F09AF9002800D050
:10125000AFE0FFF71BFF801B29681A28EED38869CF
:101260003842EBD0686C202108436864029A5170C0
:101270000120AAE0688D28852C46283401225206D8
:10128000002800D1A6E013463A788A627A1C6A6286
:10129000421E2A856A8D521E6A85514A049F174054
:1012A000C0B200040497C2191A430A9F48684D4B04
:1012B0000340134301200190400318434860688DA8
:1012C000002805D15FE0286880698007CAD52968B1
:1012D0008869800710D428463946324600F050F914
:1012E000002863D1781CF2D0FFF7D0FE002FEAD09F
:1012F000801BB842EBD9E6E7686A02788A626A8D99
:10130000521E6A85401C6862288D401E28856A8DA1
:10131000002AD4D0000405D0D1E7286880690006EF
:10132000A0D529688869000610D428463946324677
:1013300000F026F9002839D1781CF2D0FFF7A6FE7C
:10134000002FEAD0801BB842EBD9E6E7688D000A8F
:1013500008D0FF2020804A68234802400498234B8D
:101360001043AAE76A8D2A8548681F4B1840D2B2FD
:101370001204049BD218019B5B0610439DE7886909
:10138000800600D46EE78869800615D42846394661
:10139000324600F0F5F8002808D1FFF777FE2968FB
:1013A000002FECD0801BB842EDD9E8E7019805B0DA
:1013B000F0BD039805B0F0BD2020C8614A68B04B6D
:1013C00013404B60029A5070039800211170917085
:1013D00005B0F0BD0248049B0340049364E7C04697
:1013E000FF030000009800FC009C00FC0000FF01CF
:1013F00010B586B000681549884201D006B010BD0E
:1014000003200103124C226A8A43226221680222CD
:1014100011432160216811400091062105910021AE
:101420000491039112210291000201900098094851
:1014300001A9FFF749FD01204005A1680143A16012
:10144000A16801400091009806B010BD0054004012
:1014500034100240000400501F48007802490A6816
:10146000101808607047C0469005002010B5012490
:10147000200208490A6802430A60032000F00CF8C1
:10148000002801D0204610BD00F02AF80024204694
:1014900010BDC04600200240B0B505460E48017898
:1014A0000124002916D07D20C00001F0BFFF0146B5
:1014B000EC48006801F0BAFF00F048F8032D09D8A5
:1014C000002807D10024E0432946224600F01EF8F8
:1014D000024805602046B0BD080000200C00002036
:1014E00082B00948416801221143416041681140BE
:1014F00001910199110702680A43026000680840DF
:101500000090009802B070473C100240002805D4BB
:101510000322034693430C4A9A1806E00F22024026
:10152000083A03239A43074BD2188007C00E89015B
:10153000C9B28140FF23834010689843084310607C
:101540007047C0461CED00E000E400E0401E010EC4
:1015500001D0012070470749F74A506006480368E8
:101560000B40032189075918016000209060072172
:1015700011607047FFFFFF0020ED00E0FEE7000074
:10158000F0B583B00D460446403002902068816972
:10159000C90602D400210F463BE01021C1618169D8
:1015A000890632D41646012007468003019003E0E5
:1015B00020688169890628D4681CF9D0FFF766FD88
:1015C000002D02D0801BA842F2D9206842680299FF
:1015D000897883691B040BD5019B1A4008D1202907
:1015E00006D04168019A11434160FFF74FFD06465E
:1015F000206880698006DBD4FFF748FD801B19282E
:10160000F6D920688169242103E02021C1610127E6
:10161000042101258269D30503D52B02C361294327
:101620002F466B02560506D41A420AD1002F0BD161
:10163000002003B0F0BDAD02C561082529431A4260
:1016400002D0C361022211438269920701D50022B0
:1016500082628269D20703D18269012313438361C5
:101660004268074B13404360606C0843606420206D
:1016700002994870002008708870012003B0F0BD06
:1016800000E800FE8268D20712D1C268094B1340FD
:101690004A681A438B681343CA681A43C26003221C
:1016A0009207036993430968194301610020704759
:1016B00001207047C73FFFFFF0B5C268C26882686B
:1016C000D20713D101225305C2689202134A0FD5E3
:1016D0004C68F02C0CD1C46814400D6825430E46AC
:1016E0000C3654CE2A43224332430CE00120F0BD95
:1016F000C46814400D6825430F460837D4CF2A43E9
:10170000224332433A43C260C46800221C4203D0E1
:101710004968836A0B4383621046F0BD3CC2FEFFFA
:10172000F0B583B00B68002B5AD0002201910290D3
:1017300016E0764376430F2171438C43774327436A
:10174000029EF750019D009B69684843316819402B
:10175000014331602B682946521C1C46D4403FD0BF
:10176000012494401C40F7D04868431E022B00908F
:10177000204615D260438F684743032545430299AD
:101780008E68AE433E4302998E600199CE686643EF
:1017900002994F68A74337430199029B5F6002E0BB
:1017A000604303254543EB430D460E6946430299CA
:1017B000CF681F4037430299CF60029E00990229EB
:1017C000C2D10093260A01D0242300E020230199EE
:1017D0004F690299CC58002EABD106464643AAE782
:1017E000002003B0F0BD0000F0B5026801235206EE
:1017F0001A4629D40268174C14400A6822434C68E0
:101800001443CA6822430C6914434A6914438D691E
:101810002543CE692E430C6A264306608D68120C60
:101820002A4346680C4F374017434760EA0A04D101
:101830000122120345681543456001225503002229
:10184000AC4201D1898C0161D902C3698B43C36168
:101850001046F0BD4000FFFFFBF0FFFF01490860AC
:101860007047C0460400002010B504681C4A90422E
:1018700002D01C4B984204D170239C434B682343F5
:1018800000E02346184CA04208DD90420CD0174CD3
:10189000A04209D0164CA04206D01FE0114CA04235
:1018A00002D0144CA04219D103242402A343CC68D3
:1018B0001C4304608B68C3620B888362904205D02E
:1018C0000A4A904202D00A4A904201D10969016352
:1018D000416901220A434261002010BD1C46E8E72D
:1018E000002C014000040040FF2B01400048014053
:1018F000004401400020004081B00F490A68009276
:10190000401C01D30020C043009A0A68D203D217BA
:1019100010180ED00A68D203D217101809D00A681E
:10192000D203D217101804D00A68D203D2171018A5
:10193000EBD101B07047C04610E000E0F0B591B0C7
:1019400000270C970B970A97099708970797069710
:1019500005970497039701263005F749CA680243A3
:10196000CA60CA6802400D920D980868304308604A
:10197000086830400D9003200090029002200190F2
:101980000D980520040701AD20462946FFF7C8FE43
:101990000597009802900820009001902046294663
:1019A000FFF7BEFE10970F970E97B0070D902B4CC8
:1019B0000DA92046FFF766FE7005E1680143E1606E
:1019C00075032068284208D12068284205D1206884
:1019D000284202D120682842F3D02560F0200890E8
:1019E000079709970A970B970C9707A92046FFF7C7
:1019F00063FE2069B0432061700721698143216142
:101A00006069072188436061606970218843606173
:101A10006068042188436060606800998843606062
:101A2000A0680F49014030070818A060A06A304341
:101A30000E218843A0622068284208D120682842ED
:101A400005D12068284202D120682842F3D02560C1
:101A5000700261698143616111B0F0BD00240140F1
:101A6000E8FFFF6FB0B588B000250695022003900F
:101A7000B1490A6802430A600A680240079207985F
:101A8000012002900A6802430A6009680140079138
:101A900007980520000710218162059504950191A2
:101AA00001AC2146FFF73CFE05950295042001900C
:101AB000A2482146FFF734FE08B0B0BD10B5124869
:101AC00000210122114B124C046043608160C2600E
:101AD000016141618161C1610162FFF71FFB002863
:101AE00001D0FFF7EDF908480021FFF7D3FA0028ED
:101AF00001D0FFF7E5F904480021FFF7EDFA0028CF
:101B000001D0FFF7DDF910BD70000020BC7D701022
:101B100000540040F0B591B001200103864AD3681B
:101B20000B43D360D3680B400793079911680143B7
:101B30001160116801400791022602962020019051
:101B40000027039704970597069707980520040731
:101B500001AD20462946FFF7E3FD0397029680205A
:101B6000019004970597069720462946FFF7D8FD70
:101B7000072010900F970E9718200D900B970A963C
:101B80000F20000209900797412080000890FC3048
:101B90000C900A4D2C1F07A92046FFF725FE286848
:101BA00010218843286028680821014329602068A3
:101BB00040210143216011B0F0BDC0460430014016
:101BC000B0B586B0002000900121CA02154B1968FB
:101BD00011431960694608801B68134005930490FF
:101BE000039024220292019005980F4D2C1F20464D
:101BF000FFF73AFE8020C0432168014021606968F8
:101C0000514A0A406A6029687022914329600F2175
:101C100009052A688A432A6069680140696006B03C
:101C2000B0BDC04640100240042C0140F0B58DB05C
:101C300000240B940A9409940894079402250295B1
:101C40003D48816829438160816829400C910C9945
:101C5000016829430160006828400C9005940494B1
:101C60000394102001900C9801270697334801A98E
:101C7000FFF756FD07A93F2008800A9430480990D5
:101C80000894304E3446183C2046FFF7EDFD21689D
:101C9000802001432160314610390A682A4B1340E5
:101CA0000B600A68294B134050330B600A68284BBD
:101CB00013401A1D0A603268F0239A433260B268FA
:101CC0000A239A43B26032460C3A13684024A34375
:101CD0001360BB0314689C4314607022D3433246E4
:101CE000143A14681C401460C2430C6814400C6021
:101CF00031683943A943316031680C24A143316014
:101D000031680143194031600320010233688B437D
:101D100079025918316080023168814331600F20A7
:101D20000003316881433160B068202101431140D4
:101D3000B1600DB0F0BDC046341002400004005048
:101D4000FFFF000018040040F8BFFEFF8FFFCFFF29
:101D5000F8FFFEFFFEE77047F0B581B04E4882689D
:101D60004E490A40921C8260826A01231A430E2463
:101D7000A24382625A0243699343436182680A40E4
:101D8000521C82600025464A2E4607E0066C04601D
:101D900016407419A5B25E1D052B63D233468668C2
:101DA0000E400424264386600668760708D4066839
:101DB000760705D40668760702D406687607F3D559
:101DC000066C046087680F402743876016407519CA
:101DD0000668760708D40668760705D4066876078D
:101DE00002D406687607F3D5066C046087680F4056
:101DF00027438760164075190668760708D4066879
:101E0000760705D40668760702D406687607F3D508
:101E1000066C046087680F40274387601640751979
:101E20000668760708D40668760705D4066876073C
:101E300002D406687607F3D5066C046087680F4005
:101E40002743876016407519ADB2066876079DD4A2
:101E5000066876079AD40668760797D406687607E8
:101E6000F3D593E7A0B20F494143C90C0E4848434C
:101E70000B4901F0DBFA0D4908800F2141430C4862
:101E8000081882490860FEF7B8FC0022009202237D
:101E9000FEF796FE01B0F0BD00240140E8FFFF7F91
:101EA000FF0F0000CDCC0000E40C0000C4000020B7
:101EB00080A21900704780B5FFF7CEFA80BD000000
:101EC00070B5384A10680221084305239843106012
:101ED000146807200440022C0BD014680440022C24
:101EE00007D014680440022C03D014680440022C6C
:101EF000EED1012425022C4A16682E431660A50255
:101F000016682E4208D116682E4205D116682E4258
:101F100002D116682E42F3D0D568244E2E40244DAF
:101F20007519D560250616682E4316602507D668F4
:101F30002E43D66064061568254208D115682542EF
:101F400005D11568254202D115682542F3D00F242A
:101F500024029568A543956094680C439C43946063
:101F6000936838210B40102B0BD093680B40102B3B
:101F700007D093680B40102B03D093680B40102BB5
:101F8000EED100039168814391600A48FFF766FC37
:101F90000320FFF781FA002803D0EFF3108072B618
:101FA000FEE770BD00200240001002408C80FF1F41
:101FB000020800200090D0037047000082B0FFF7B5
:101FC00055FAFFF77DFFFFF74DFDFFF7F9FDFFF72E
:101FD000A1FDFFF72BFEFFF771FDFFF7AFFCFEF74A
:101FE000E9FE264C2649274A274B204600F0F0F907
:101FF000204600F0CAFE00252046294600F0D3FE08
:1020000022480068FEF7F9FB009502232A46FEF7F6
:10201000D7FD1F4E1FA5FFF79FFE204600F0CCF80E
:102020000121204600F0A0F92F4600252046294630
:1020300000F097F92046314600F038F90A2620468C
:1020400029463D46154F32462B4600F0ADF80F4865
:102050000268384612A1FEF7A9F82D212046324623
:102060000B4E3B4600F0A0F8204600F0EDF80028AB
:10207000D6D13220FFF740FCCDE7C046D800002083
:10208000A4360008392E000815330008000000208F
:10209000B0360008467265713A000000C6000020A4
:1020A0002575487A00000000F0B583B0002B78D089
:1020B0008C24045D002C74D004464834089D022B07
:1020C00006D3032D17D0022D02D1C91A4D1C02E0F0
:1020D000ED070ED10D46A188914262D8E188914268
:1020E0005FD9AEB2F71861888E42019113D302977F
:1020F00013E0154601E0D21A551C22888A4250D8B6
:1021000062888A424DD9AEB2F718E28896420192AF
:1021100021D3029721E0491E0291BBB2BB4200D1FC
:1021200002932188019CA64226462C4600D30C46E9
:10213000BB4200D12C46A5B2B54232D2029B9BB223
:102140008B422ED98D4200D32146B34200D8029E45
:10215000731A00241EE0521E0292BBB2BB4200D191
:102160000293A288019CA64226462C4600D3144620
:10217000BB4200D12C46A5B2B54212D2029B9BB203
:1021800093420ED9954200D32246B34200D8029E14
:10219000B31A0124056BAD68009489B292B29BB268
:1021A000A84703B0F0BD000010B5024C446000F039
:1021B00065F910BDE92D000810B504469320205C98
:1021C000002809D02046383000782168097C414336
:1021D000C900606BFEF786F80021204600F059F830
:1021E00010BD70B504464C20255A4E20205A049E3E
:1021F000904205D9B24208D8B54206D3002070BD3E
:102200000020B24219D9B54217D2483422886088DA
:10221000884208D9012000249A4202460ED29942EF
:102220000FD9104370BD012000249A42024600D30A
:102230002246994200D82046104070BD224699425D
:10224000EFD82046104370BDB0B5044600F010FD35
:102250003820205C2146383149784118CDB22168B8
:102260004A7C954210D2224693321278002A05D039
:10227000097C4143C900606BFEF734F820462946CB
:1022800000F007F80120B0BD204600F085FD0020D9
:10229000B0BD10B5044639202154206B016820469A
:1022A0008847206B41682046884710BDF0B585B04F
:1022B0000446806D884252D00D46A165743408787A
:1022C0002070487860708878A070C878E0700879CD
:1022D0002071487960718879A071C879E071087AB5
:1022E0002072487A60720A2008560290A072C87A5A
:1022F000E0720C200856039020730D2008560490BD
:1023000060730E200F56A7730F2008560190E073DC
:1023100010200E5626741121284600F085FB60829D
:102320001321284600F080FBA0821521284600F0EA
:102330007BFB049BE776A376E082607E00280ED0CC
:10234000012803D10198834205DB05E0039E029832
:102350003018984200DDA076B74200DDE67605B081
:10236000F0BD7022815470476D2281547047000087
:102370000149C1657047C0467925000870B504461B
:102380006D2000252554382022548D2025542046C8
:102390008D30FF220232052682536163E362A56518
:1023A0000499216305712646383675700968204600
:1023B00088470648B061F061206B41682046884735
:1023C0002046FFF7D5FF6D34E57070BD0000FFFFBC
:1023D00070B582B016460D46044600930849094A76
:1023E000334600F0E7FC01AE304600F03BFC01460E
:1023F00032780095044B2046FFF7C0FF02B070BD55
:10240000E5310008B92F0008372A0008022B06D052
:10241000012B07D0002B08D1081880B27047401A52
:1024200080B27047801A80B27047101880B270472F
:10243000022B06D0012B07D0002B08D1101880B238
:102440007047801A80B27047081880B27047401AEF
:1024500080B2704770B582B0C46AC58F069E009680
:10246000521B92B2A04702B070BD10B582B0049C5E
:102470000094FFF7EFFF02B010BD0000F0B585B08B
:102480001F4603920291064600F0CCFF397872682D
:10249000304690473749884266D0324664320492CB
:1024A0007D1C002201920BE00391019941180191DA
:1024B00029787268304690476D1C2146A04255D05D
:1024C00087B20C46481E80B28742F1D00498027B46
:1024D000032A039802991FD87A441279520097442C
:1024E00001080E15F16D304688470399401802998E
:1024F00012E0F16D304688470299091A0BE0F16D40
:10250000304688470399081A029905E0F16D304674
:102510008847029941180398049A508011803046E8
:10252000394600F00FFA002804D00146304600F08A
:1025300025F800E000200499097B0329B5D8C0469E
:102540007944097949008F4404080B010399091A59
:10255000AAE7029941180291A7E703994118A3E756
:102560000299091A0291A0E700200190019880B217
:1025700005B0F0BDFFFF000000207047F0B591B03E
:102580006C220023835401667822825C0446643402
:102590000F78082A04D3491C01661546083D00E05F
:1025A000154606469236089625721093DB4305932E
:1025B00093409F430F97A771EAB20E78D6400A94D2
:1025C000647D6219D3B2082B099009D34B1C0366B2
:1025D00008277D1BEDB24F78AF403743083A01E042
:1025E0000B4637460A980272089909788172059D50
:1025F000A540AF43C7714C424C41C472D1B21E7862
:10260000CE40807D0E901418E1B2082904970BD3B8
:10261000591C099801660825AA1AD5B25878A8400D
:1026200030430D90083C01E019460D960A9804725B
:10263000E3B20D78DD40C07D0C900619F7B2082F8B
:102640000AD34F1C099807660820001BC0B24978BE
:1026500081402943083E01E00F46294601220F9898
:1026600044B20A9B1E72F0B23D78C540187E0290BB
:102670008019C3B2082B0FD37B1C0F922246099CF2
:10268000236608239B1BDBB27C789C402C4301947F
:1026900014460F9A083800E00195120603920A9E2C
:1026A0003072012C00DA3FE10B940E9A501EC0B23A
:1026B0000C9B5C1E0F94059F3C469440039A154664
:1026C00085400F98C0B20F900D98A0432C0E0E9429
:1026D0003C469C4015460F9A95400E9A821AA1439B
:1026E000280E049B5918401A47B23446367B20887E
:1026F00055B229463A463346FFF788FE0F902080B0
:10270000608829463A463346FFF792FE6080032EE2
:102710000CD8C0467E4436797600B744010B111BB5
:10272000049949B241180B9AD2B219E00F9A134694
:10273000014618E00B99C9B24118049A52B205E05B
:1027400004994AB2411C881A0B9AD2B20F9B5B1CA7
:102750009A1A08E00B99CAB2411C881A049A52B21C
:102760000F9CA3182246099C0A9E89B2009191B23F
:1027700082B29BB22046FFF734FD0028109B00D1A7
:10278000D2E0B380099F386E317A0F931093CAB2AA
:102790000578D540B47C0A19D3B2082B0BD3431C5F
:1027A0003B660826711A0A9EC9B2407888402843C1
:1027B0000546083A00E0034632720598A04085437A
:1027C0000795D0B21C78C440F07C8118CDB2082D9A
:1027D00009D35D1C3D660825AA1AD2B25D789540E2
:1027E0002543083900E02546109B0F9A3172059960
:1027F00081408D430695079C02E0641B5B1C002210
:10280000B079851A707A002824D1377B70880F92AE
:1028100051B20D9110935AB20C923B46FFF708FE4D
:102820000E9030880D990C9A3B46FFF7EFFD01465C
:10283000F07A089A10700097E8B2E2B2824220461D
:1028400000D32846C3B209980E9AFFF72DFC109BBF
:102850000A9E0F9AE8B2E1B28142CED27371A118FA
:102860003171069D0F910A9EB0790E9070880C9080
:10287000377B308849B20B9110935CB222463B46BD
:10288000FFF7C4FD0D900C980B990C9422463B4623
:10289000FFF7CEFD0246B07A0899087000970E98AF
:1028A0000F99441AE0B2EFB2064687420E9500D364
:1028B0002546EBB209980D99FFF7F6FBB74205D311
:1028C0000E9D2D1B109B5B1C0021CBE710980A9ED0
:1028D00070710F980E9A10180F903071337A099F0B
:1028E0003C6E2278DA40591CC8B20828079D09D3EB
:1028F000601C38660821C91AC9B264788C40144338
:10290000D91F01E0204614463172E2072C46109B85
:102910000F9A00D074E7049A52B20C9C944200DAE9
:1029200034E7B07A08990870059802998840019AAE
:102930008243481EC0B203998140080E101A40B26B
:1029400011B0F0BDF0B581B00C46816D8630173105
:10295000FF2C03D8612C3BD340883CE080880F18C3
:102960003E4600253046294600F05EF83F18022119
:10297000304600F059F8361DA042F2D37878397805
:10298000090208184DD0A0424AD0B9787818427888
:10299000795C0902891844D0A14240D08178471857
:1029A0007A78405C000280183BD0A04238D0B978D9
:1029B00078184278795C0902891832D0A1422ED069
:1029C000817847187A78405C00028018DBD128E0D3
:1029D000412C01D30088091848780025002820D010
:1029E0000A78A24219D009184878002819D00A7824
:1029F000A24212D009184878002812D00A78A242C0
:102A00000BD00918487800280BD00A78A24204D0CD
:102A1000091848780028E3D103E08D1C01E007463F
:102A2000FD1C284601B0F0BD42185278405C0002FF
:102A3000801880B27047F0B587B017469222865C46
:102A4000072204970592174001240394BC400022FA
:102A5000012E154600D02546022E00D31446049AB6
:102A6000059EB2430668367C5643B2B2466BB21836
:102A700051180C9A002A16D002469232069203266A
:102A80001E405A1E002E00D18AE0019202960A785A
:102A900022436A400A70049A571C059A174010D0C6
:102AA0006D00640019E003221A40581E002A54D019
:102AB0000E7826436E400E70491C012A1FD1034632
:102AC0004BE0069A167801220092012E00D0009D5C
:102AD000012E00D8009C428F8918029A012A02D147
:102AE000019A13465CE00A7822436A400A70049A0D
:102AF000971C059A17400BD06D00640013E00E7808
:102B000026436E400E70491C022A20D19B1E24E0F1
:102B1000069A12780126012A00D03546012A00D8EB
:102B20003446428F8918029E019A022E01D19B1EC3
:102B300036E00A7822436A400A70049AD71C059A44
:102B40001740DB1E002F20D06D00640027E00A78BC
:102B500022436A400A70DB1E491C80B2032822D33C
:102B600008782043684008704878204368404870DF
:102B70008878204368408870C87820436840C870CF
:102B8000091D1B1F1804EBD10DE0069A1278012ACB
:102B900000D0039D012A00D8039C428F8918019A16
:102BA00092B2032A05D207B0F0BD428F89181A04E9
:102BB000F9D00A7822436A400A707A1C520702D080
:102BC0006D0064000AE0069A16780122012E00D0FA
:102BD0001546012E00D81446428F89180A782243E0
:102BE0006A400A70BA1C520702D06D0064000AE005
:102BF000069A16780122012E00D01546012E00D823
:102C00001446428F89180A7822436A400A70FA1CD7
:102C1000520702D06D0064000AE0069A167801227D
:102C2000012E00D01546012E00D81446428F891877
:102C30000A7822436A400A703F1D059A17401B1FFD
:102C4000002F04D06D0064001A04B2D1ABE7069ADD
:102C500016780122012E00D01546012EA5D8144663
:102C6000A3E7000008210170004870476C010020B4
:102C7000F0B583B004463820205C02902068417C87
:102C80000191214638314F7800250126037C1846F2
:102C900068430C490840616B08180090FAB20021A3
:102CA000204600F063F80298864208D27F1CF8B2F2
:102CB0000199884203D2761C08352068E6E703B004
:102CC000F0BDC046F8FF0000B0B53821425CD1002D
:102CD00081870146383104686369CB60237CDB005F
:102CE00043874B78DD00C5870D819D18607C854248
:102CF00000D9C21AD018C0004881B0BDB0B582B0AA
:102D000004464820002525524420205A4A2160527A
:102D1000206CE0645220235A5420225A5020215A19
:102D20005620205A00902046FFF75BFA21468C314E
:102D3000002818D0403401200870208A218981425F
:102D400000D22081608A6189814200D96081A08A95
:102D5000A189814200D2A081E08AE189814200D923
:102D6000E08102B0B0BD0D7002B0B0BDB0B582B0B0
:102D70006C46A271617123710699009185680F21DB
:102D800001222346A84702B0B0BD10B584680A21CD
:102D900000221346A04710BD10B584681021002200
:102DA0001346A04710BD10B50A4684680B210023C6
:102DB000A04710BDB0B523240025055505608561E9
:102DC000049C074608371EC701462331CD70FF22F9
:102DD0004A714A7000F001F8B0BD10B5846809214D
:102DE00000221346A04710BD0348002901D00A293C
:102DF00000D1704708467047FFFF000010B5046916
:102E0000192100221346A04710BD80B582B001AA47
:102E10001170012100F002F802B080BD10B5134618
:102E20000A4604691721A04710BD10B5046918218E
:102E300000221346A04710BDF0B581B004461439F6
:102E40000020052956D8C0467944097949008F44A5
:102E5000505151021418002A4BD003261640541E1C
:102E6000254F3D78002E18D01978254F7955691CCB
:102E7000012E13D15B1C22461FE01F480021017068
:102E800037E02420215C1C4803787D20C00000909E
:102E90001A481B4AFEF79CF92BE010E05878C9B29B
:102EA0007854A91C022E02D1921E9B1C05E0987832
:102EB000C9B27854D21EDB1CE91C0D460E4FE0B29D
:102EC000032815D30E4C29461878CDB26055481CFE
:102ED000C0B25D782554881CC0B29D782554C81CAA
:102EE000C0B2DD7825541B1D091D121F1006EBD141
:102EF0003970012001B0F0BD6C0500207000002089
:102F00006D05002010B5C468192100221346A047A2
:102F100010BD10B50A46C46816210023A04710BD95
:102F200010B50A46C46815210023A04710BD10B58E
:102F300013460A46C4681721A04710BD70B582B079
:102F40000C46054608E01838022815D2641CEE68C5
:102F5000002228461346B047217808461729F2DC9C
:102F60001538022813D2627801A80270EE68002397
:102F70002846B047A41CEFE7FE2913D1627801A8C8
:102F800002702921284600F032FAA41CE4E7172930
:102F900008D1607801AA107001212846FFF7C7FF09
:102FA000A41CD9E702B070BD10B5C4681821002276
:102FB0001346A04710BD0000F0B581B014390529B3
:102FC00022D81E46154604467944097949008F44A3
:102FD000021E123417B62420205CFF2803D120469D
:102FE0002430782101702769142120462A4633466F
:102FF000B84701B0F0BD20462946FFF706FFB1E013
:103000005A4800210170ADE0002001B0F0BD574EDC
:103010003078012802D12046FFF7F0FE2046FFF766
:1030200004FF00212046FFF7F0FE20462946FFF767
:10303000ECFE0120307001B0F0BD4C4F3878012813
:1030400002D12046FFF7DAFE192D00D283E01821C5
:103050002046324600F0D0F9324618322846183859
:10306000C1B2192975D31821204600F0C5F932469E
:10307000303228463038C1B219296AD31821204687
:1030800000F0BAF93246483228464838C1B2192908
:103090005FD31821204600F0AFF93246603228464F
:1030A0006038C1B2192954D31821204600F0A4F980
:1030B0003246783228467838C1B2192949D31821C6
:1030C000204600F099F93246903228467030C1B25D
:1030D00019293ED31821204600F08EF93246A83235
:1030E00028465830C1B2192933D31821204600F0A0
:1030F00083F93246C03228464030C1B2192928D35C
:103100001821204600F078F93246D8322846283077
:10311000C1B219291DD31821204600F06DF932469D
:10312000F03228461030C1B2192912D31821204696
:1031300000F062F92120C0003618083D0BE00B4D6D
:103140002878012802D12046FFF758FE0020287079
:1031500008E005461646E9B22046324600F04CF932
:1031600000203870012001B0F0BDC0468D05002060
:10317000F0B581B004464669282100252A462B4631
:10318000B047E668142120462A462B46B0474B2616
:10319000012200922046314600F029F92068027988
:1031A00029272046394600F022F9204631462A4692
:1031B00000F01DF9206802792046394600F017F921
:1031C00020463146009A00F012F9206842792046E4
:1031D000394600F00CF901B0F0BD8A7C2223C254BC
:1031E0000160704770B50E46054600F01FF80124D7
:1031F000002801D0204670BD092E0AD00A2E0ED11B
:103200002846FFF7B5FF08492846FFF797FE2046F6
:1032100070BD04492846FFF7E0FF204670BD00203E
:1032200070BDC046D85C0008985C0008F0B581B05D
:1032300004460B390020042951D8154679440979F0
:1032400049008F44024C060F1E00002D49D02F4923
:1032500048E0002D4AD02B492046FFF76FFE20683A
:10326000C07C49E02046FFF79FFE81212046FFF702
:1032700057FE20462946FFF74CFE2046FFF742FE48
:103280003CE01E462046FFF78FFE2220205C009087
:10329000777940212046FFF743FEF8000099471850
:1032A000F8B2010910312046FFF73AFE0F213940EC
:1032B0002046FFF72EFEB079B02101432046FFF7EC
:1032C00028FE32683079C006010E2046FFF72FFE37
:1032D0006D1E2806F5D12046FFF714FE012001B02F
:1032E000F0BD0B492046FFF729FE07E006492046BE
:1032F000FFF724FE2068807C22216054012001B069
:10330000F0BDC046915C00088A5C0008D25C0008F1
:10331000CD5C000880B529392A2963D8890001A22B
:1033200051588F46DB330008D1330008D1330008F1
:10333000E5330008D1330008E5330008E533000821
:10334000E5330008E5330008E5330008E5330008FD
:10335000E5330008E5330008E5330008E5330008ED
:10336000E5330008E5330008E5330008E5330008DD
:10337000E5330008E5330008E5330008E5330008CD
:10338000E5330008E5330008E5330008E5330008BD
:10339000E5330008E5330008E5330008E5330008AD
:1033A000E5330008E5330008E5330008E53300089D
:1033B000D1330008D1330008E5330008E5330008B5
:1033C000D5330008D5330008D5330008D5330008BD
:1033D000012080BD2721002206E00120FEF78CFAA3
:1033E000012080BD272101224254012080BD10B55B
:1033F00044690023A04710BDF0B581B015460E46C4
:103400000446FFF712FD40212046FFF7FEFC276926
:103410001721204632462B46B8472046FFF7EEFCE0
:1034200001B0F0BD262100224254704743088B4270
:103430001AD3002203098B4279D3030A8B425ED34D
:10344000030B8B4242D3030C8B4227D30902FF228A
:1034500012BA030C8B4202D31212090203D0030BDF
:103460008B4233D31AE0D3E0411A8041401C7047AD
:1034700003460B4371D443088B42F5D30022030962
:103480008B4254D3030A8B4239D3030B8B421DD397
:10349000030C8B4202D394466EE0090AC30B8B42A5
:1034A00001D3CB03C01A5241830B8B4201D38B0350
:1034B000C01A5241430B8B4201D34B03C01A5241F5
:1034C000030B8B4201D30B03C01A5241C30A8B4238
:1034D00001D3CB02C01A5241830A8B4201D38B0223
:1034E000C01A5241430A8B4201D34B02C01A5241C7
:1034F000030A8B4201D30B02C01A5241CDD2C30939
:103500008B4201D3CB01C01A524183098B4201D3B4
:103510008B01C01A524143098B4201D34B01C01A9F
:10352000524103098B4201D30B01C01A5241C30817
:103530008B4201D3CB00C01A524183088B4201D386
:103540008B00C01A524143088B4201D34B00C01A72
:103550005241411A524110007047CA0F00D04942EF
:10356000031000D34042534000229C4603098B4283
:103570002DD3030A8B4212D38901FC2212BA030A0B
:103580008B420CD3890192118B4208D3890192118D
:103590008B4204D3890137D0921100E08909C30915
:1035A0008B4201D3CB01C01A524183098B4201D314
:1035B0008B01C01A524143098B4201D34B01C01AFF
:1035C000524103098B4201D30B01C01A5241C30877
:1035D0008B4201D3CB00C01A524183088B4201D3E6
:1035E0008B00C01A5241D9D243088B4201D34B0001
:1035F000C01A5241411A00D2014652411046634658
:103600005B1000D34042704763465B1000D34042DA
:1036100001B50021004201D0C9430846C046C0465A
:1036200002BD80807F7E7D7C7B7A79787776767527
:103630007473727171706F6E6E6D6C6C6B6A6A69A7
:103640006868676666656464636362616160605F41
:103650005F5E5E5D5D5C5C5B5B5A5A5959585857BA
:103660005756565555555454535352525251515022
:1036700050504F4F4F4E4E4D4D4D4C4C4C4B4B4B75
:103680004A4A4A49494948484847474747464646BB
:1036900045454544444444434343434242424241F6
:1036A00041410000C92C0008FD2C00086B240008D3
:1036B000710003020404040505090F00FD0AFD0B57
:1036C000FF0193032A0A11200500C8332108B10C19
:1036D000330E91002208347B33225300230E8619C7
:1036E00073A29661895A86256A012414B7F9F2C239
:1036F000418922294CD2350923A932881900251184
:10370000A7097342254A4AAD711AB59412310126B0
:1037100012A70973C4288BB228543529A9459548A6
:103720000B2706317C3306280CC3FBB29228897A1A
:103730008BB200290CC3FB32B2288B7A8992082AFB
:103740000D7739F34A95B62D69AA65002B0B7719C9
:10375000F3E2DA3064710D2C0952DC328624510018
:103760002D071749330E012E07220C3386002F0C2C
:10377000A709B3D3382DA7E53406300DA709B3B692
:103780004AEA6B92651300310DA709F35231C9A2C1
:10379000B8B76108320CA70973062555FB791802E2
:1037A000330EA709330E715ADDE3584D0605341167
:1037B000A709735331C9A25A1226C390C615003502
:1037C0000FA709330E726548C4B8AC2683023610C1
:1037D000A709B386288D2B4322AAD6645000370E42
:1037E000A709330E711AA7711AA771083811A70912
:1037F000B3B64A9A64D95649D524CB2600390FA7C7
:103800000973062575548624AE4643043A08720CA3
:10381000338678083B0AA2DC3286784812053C09D8
:10382000A50A33B38E69073D0A4729330E393E0C8A
:10383000013E0AA50A33D28E5947003F0EA70973ED
:10384000062555E3B4398733004011A709730625CF
:10385000350D4AA6449322E78302410DA709F3D20E
:1038600024ABA4D6E16A0D4212A7093306294C52B3
:103870003119A430498DC92001430DA709730625CC
:1038800095FB9A0C0A00440DA7093306294C523FB8
:10389000268304450DA709330E727990E2E661088C
:1038A000460CA709330E727990E2CE00470FA709A4
:1038B00073062595DB86D49A0C0A00480AA70933BB
:1038C00052D7E1EA35490AA50A330629ECA7414A4D
:1038D0000DA809F30635EF53980D19004B11A709F0
:1038E000335231C9A2DA988451560A93344C0AA74C
:1038F0000933E2FE3C0C014D10A7093352755B2AD7
:103900004A458AA448B5064E0FA70933527554326A
:1039100029D21271B5064F0CA709730625F5D76495
:103920005000500DA709332EA9751892B8330051D5
:103930000EC7E9720625F54B26550635175210A716
:1039400009332EA9751892282B8549AA06530EA76C
:1039500009730625B5EF5635191400540AA7093323
:103960000E59DCDF00550BA7093352FF9A0C0A00F1
:103970005611A70933526B9245599455C2244CD223
:103980000C5710A70933524F911449911429DD1295
:10399000005810A709335235C92A699C2659255564
:1039A00003590DA709335235C92A69DC1B005A0C8B
:1039B000A709330E71DAE77818025B0AC4FB3206F6
:1039C000AD7F1B025C0BA70933F2382FE7E53C5DA6
:1039D0000AC4FA3286AC7F1B045E0A4769F3D2241C
:1039E000ABA4015F0718F8320E026007338B33B2C5
:1039F00002610E770973063D4E86211595210962F5
:103A00000FA70933E296211155EBA80C0900630CAE
:103A10007709730625955B934101640DA709B35B94
:103A200086445C1D952109650D7709730625558728
:103A3000733E2800660EA709F3B65216C5E120C6EC
:103A40008D006713A7D97286444CC2248C86281F28
:103A500094544D0605680CA70933E296211155AF21
:103A600001690AA50A737474EC69106A0DD6D9321B
:103A700075CADA55342643026B0FA70933E2564D57
:103A8000493435D132250D6C09A50A33C6FE3408F8
:103A90006D1077093316258AA4488AA4488AD40071
:103AA0006E0B77093392211155AF016F0C770973B3
:103AB0000625F59A0C0A00700FA7D93292211155EC
:103AC000EBA80C495C06710DA7D97286445C1D9564
:103AD00021891B720C770933A2494BC2246E0573EE
:103AE0000D7709730625D5075D4D0605740C9709FA
:103AF000B3E270D8E26ED9027510770933C2244C54
:103B0000C2244CC2248C8624760E7709335235C9E0
:103B1000A2AC12266906770E770933525324455218
:103B2000A4744B00780D770933D224ABA495AC92E2
:103B300006790DA6D93242DF9425159321017A0A20
:103B40007709330E69AFC3107B0DC5FBB296B01A6F
:103B5000696A1656077C06C1FC323E7D0EC5F932F5
:103B6000D6B0966A521A5626007E0A3779733429DF
:103B7000D21400A00500C833A108B10C33A4610819
:103B8000A211860933A3218912A992255132442119
:103B900000A311A709F3B6521C0E629C8A49962411
:103BA0000B00A40E673933D26490B2288B06250D22
:103BB000A510A709335235C92AD920868318D70002
:103BC000A608B1FC32066510A70EB4FA72944854E8
:103BD0002253224A8902A807259A33322DA9159823
:103BE00018B3862C4C224B9428A11225929484D988
:103BF0001001AA0C753973A4D21245433A08AB0DD3
:103C00008719F3A27E8BC2288CC228AC07462933C1
:103C1000AE0DAD07154A330601AE159818B3862CC4
:103C20004C9249891265524A4A9414B32102AF0654
:103C30001699330EB00A446B7394484A1400B10EBF
:103C40009719F3E2DA3064711D1B8600B20B6449E8
:103C50007394284B946C08B30B64497394A828257B
:103C60000A00B408338BB3921200B50C97E93252B4
:103C7000AFDBB2C83100B616A7097386214BB44436
:103C80004B9221099330099330099300B707224CD6
:103C9000338600B80834DAB2A64401B90863497320
:103CA00012A965BA0A654973964C4BE641BB0E876B
:103CB0001933A2300AA330CAA27E03BC0FA709732E
:103CC00052B97188C4248B322515BD0EA7097352D1
:103CD000B94919A23814E321BE11A70973C428CD2C
:103CE000B3A822894916654A2ABF0DA709F372B8FD
:103CF000DA9CAAC9A000C00EC70973F23ABA55529D
:103D000075B85A03C10DC70973DBD1AD92AAC3D5EB
:103D10001AC20FC709F3D224AB635B255587AB35B5
:103D2000C30FB709733469C7B64AAA0E576B00C4EC
:103D30000FB70973B228CBB1AD92AAC3D51AC50F7C
:103D4000B709B3B6DA986495541DAED600C615A768
:103D500009739421CAA22CCAA26C58A22CCAA22C04
:103D60001A02C710D7D972062595FB9A0CA21685A0
:103D70001A00C811C70973F23A360C491C0F595C76
:103D80001D8600C910C70973DBB16148E278C8E23B
:103D9000EA3004CA12C709F3D224AB23C390C4F19A
:103DA00090C5D56108CB12B70973B228CB91614891
:103DB000E278C8E2EA3004CC0CC50A33D2FA208596
:103DC0003D0D02CD0CC50A33B3FA20853D0D02CE60
:103DD0000DC50AB3B2A4960E52D8D320CF0CB50AA3
:103DE00033322D1DA4B0A741D015A80873062D8C21
:103DF000D2241DC2244DD2244DC2689000D112B7E6
:103E00000973346947D251C9A4488AB4445C03D2C7
:103E10000EC70973F23A3828A9AFC9A000D30DC75D
:103E20000973DBC141497D4D0605D410C709F3D2A2
:103E300024AB438392FA9A0C0A00D50FB709733466
:103E400069870625F535191400D60FB70973B2280E
:103E5000CBA141497D4D0605D70D771933D224AB4F
:103E6000A495AC9206D816C7F9B2934109B7444B52
:103E7000A4488A944CC9C664506200D90DC709731E
:103E8000F23A96FA35191400DA0CC70973DBB1D48B
:103E9000AFC9A000DB0EC709F3D224AB23A95F93FF
:103EA0004101DC0EB70973B228CB91D4AFC9A00091
:103EB000DD0EC70973DBB1544DB24A1AB701DE0EED
:103EC000A70933E2785852EB30247119DF14A609A0
:103ED000B3A62CC9922851B2A896644996240A0028
:103EE000E011B709B3F23A36E871320CA9A80C49CF
:103EF00000E110B70973DBC1418F93614845654804
:103F000002E212B709F3D224AB43831E27C3908A7F
:103F1000CA9004E312A709B3A424D2A1418F9361EC
:103F20004845654802E412A70973B228CBA1418F26
:103F300093614845654802E512B709F3C428D4B136
:103F4000418F93614845654802E60F7709732C510C
:103F50002D4A0625CAA28A32E70FA7D972062595EF
:103F60005B9341D4A25003E80FB70973F23A3828A3
:103F7000A93A9CF34101E90FB70973DBC14149D567
:103F8000E19C0F0A00EA11B709F3D224AB438392F4
:103F9000AAC3391F1400EB11A70973B228CBA141A2
:103FA00049D5E19C0F0A00EC0AB50A33D2FAD8D3FE
:103FB00020ED0AB50AF3DA91B1A741EE0DB609B3C7
:103FC000C224CA7264ED6D10EF0CA50A33A2248AD4
:103FD000C79E0601F010B70973A2504CF26C505204
:103FE000AFC9A000F10EA70973346947922111559A
:103FF000AF01F20EB70973F23A3828A9D76450001E
:10400000F30DB70973DBC14149BD268302F40FB735
:1040100009F3D224AB4383927A4D0605F50FA70925
:10402000733469870625F59A0C0A00F60FA7097301
:10403000B228CBA14149BD268302F70E9709F3D2DE
:1040400035C78621C7D23503F81397F9B29341C912
:10405000122D91222553B264506200F913B70973EF
:10406000F23A162661122661122661342401FA12F0
:10407000B70973DBB13009933009933009A32109E3
:10408000FB14B709F3D224AB236112266112266117
:1040900012464312FC14A70973A22CCAA13009933B
:1040A0003009933009A32109FD0FE6D932DBA1D0F5
:1040B000376549C5644800FE10C7D932E296211120
:1040C00055755486242E03FF0FD6D972A2F6D03729
:1040D0006549C564480000000010016406A801C9D4
:1040E0000674022F06EAFFFF01000FB70973061DD1
:1040F000DB2AA975B85A03010111970973061D1A25
:10410000F438198654548624010210B70973B26C2E
:1041100007B74AAA0E576B00010312A70973B26CC6
:10412000C7063D4E862115952109010417C8E9F2FD
:10413000E224CCA2344993341986244DD224CD7381
:104140000101051298E972061DC9A3614993501A2D
:10415000923C1701060FC70973DBC14149E5AEC99F
:10416000A00001070FB70973DBC14149E5D66450D0
:1041700000010811C709F3D224AB4383929A5B93E1
:104180004101010911B709F3D224AB438392CAADAF
:10419000C9A000010A0FB709B374705052B9D764AF
:1041A0005000010B0F9709B374705052B9351914B0
:1041B00000010C11C70973B24A9A838392CA5D93B6
:1041C0004101010D11B70973B24A9A838392CAADB6
:1041D000C9A000010E11C70973B24A9A0D5298A4E2
:1041E0003E268304010F12B70973B24A2D8A932128
:1041F000115747654802011016A80873062D8CD286
:10420000241DC2244DD2244DC2689000011115A86E
:1042100009B3D3218E86A4A8A4499AA449280D499C
:1042200002011211B70973061D1906B93C487179CC
:104230001802011310970973061D1A94541DCEF924
:10424000A000011412B70973B26C8786418E07294A
:104250002E0F4300011511A70973B26CC70625552F
:1042600087733E2800011610B709B3746C18E4F286
:1042700020C5E5610801170F9709B3747050527596
:1042800038E78302011810C7E9320E727990E2E62E
:1042900061C8620901190F97E97206255587733EB7
:1042A00088B104011A12C70973B24A9A63C320C7BE
:1042B0008314978721011B12B70973B24A9A83832B
:1042C00092AAC3391F1400011C13C709F3D224ABEF
:1042D000438392CAB52155934101011D18E7D9F2D4
:1042E000D224AB4343222661124643940F4AAA26A6
:1042F0008302011E12B70973B26CC70625956B4382
:10430000AA268302011F17D7D972B26CC786444C04
:10431000C2248C86281F94544D0605012011B7092C
:10432000B374705052B936A4D6645000012116C738
:10433000D9B2747048C4244CC26888F24149D5642B
:104340005000012213D7D972062595DB86D49A0C2A
:10435000A216851A00012317D7E932D358C786441D
:104360004CC2248C86281F943419140001240FC7D2
:1043700009F3D224AB23A975B8BA0601250FC709E2
:1043800033D3A44DAE0C89A87A0D012617A9087362
:10439000D2284D864B1A0D4394466994466994265B
:1043A00000012714A80873E221CD93211293344908
:1043B000933449933401280FB70973346987063160
:1043C000EE71500001290CA60973243BB2F63608A1
:1043D000012A0DB50A33067590C23E0D02012B0B62
:1043E000960933EE6B6F8300012C0DB50A33B2646E
:1043F0001EA4B0A741012D0CA50A33B2641E7B1A7E
:1044000004012E0EC5EA320629ECA7410925000158
:104410002F0DB5EA72F4B1A74109250001300CB5A2
:104420000AB3E4410AFB340801310A750A33C69E17
:104430000601013216A7093396254CC2244CC2242A
:104440004CC2244C4A43A200013316D8D872349D82
:10445000264D611446611446E130E559710101347D
:1044600011C70933D324AB63431A7709A32102018F
:104470003513E7D932D324AB63732F61122661342D
:104480004400013617D8D872D2248CB252B82669AB
:104490001466C5288DC4285501013715D8D872F285
:1044A000D6249312514EC44C4A23314A5500013848
:1044B0000F7709335231C9A2212B85491A01390CD2
:1044C000C70973DBB1B8CFC310013A0BC50A33B3C8
:1044D000FAD8A741013B0FD7D932E2FE3C0C99161E
:1044E000851A00013C0ED5DA32C6FE34484A14491A
:1044F00000013D0EB70973B24A9AC57D1E860001C0
:104500003E0DC50A33B2A4968F7D1A04013F0EA753
:104510000933E2B6288BE2E6610801400CA60933B4
:10452000D6A6AE6D830201410DA80873F296D4DEC3
:104530003E0C0101420CA50A33C696C8D8340801C6
:104540004310B70973DB5275543229D212710D0131
:10455000440EB70973DBB1644844D56B00014519BB
:10456000D8D872D2244DC4A49644952C292A699295
:1045700026699446A90A014615A8D8729221129379
:10458000344993344993344AA35405014713C70966
:1045900073B24A9AA5EAA86452A425E2AA06014881
:1045A00010B70973B24A9A63C99088AAD700014923
:1045B00015B80833F43827254324266992266992D2
:1045C000266900014A13C7E9325275543229D212C2
:1045D00071B56651A800014B0F97E9329221115530
:1045E000AF59142A00014C0FA70973061D1A94D461
:1045F000D7645000014D0F970973061D1A94D46BB0
:10460000322800014E10B70973B26CC70625F53584
:10461000191400014F10A70973B26CC70625F59A4B
:104620000C0A00015010B709B3B224CBA141497D57
:104630004D0605015110A709B3B224CBA14149BDD4
:10464000268302015215A709738621CAA22CCAA289
:1046500025CAA22CCAA270180153107709732C51D5
:104660002445D2206551C502015411C70973DBB13D
:104670006149ADC3908449AA0601550FB70973DBA0
:10468000B168D29230895B01015618D8D872862958
:104690004DD2244D86A99815A3344923314A55009B
:1046A000015710A8D872A24D8BC2286F17A35405CA
:1046B000015813C70973B24A9A63C3925A872109F2
:1046C00093540D015911B70973B24A9A63D1A425C5
:1046D0006112B702015A11C70973DBC14149F541A3
:1046E00057D5645000015B10B70973DBC14149F530
:1046F0004157934101015C13C709F3D224AB4383B3
:1047000092EA83AEAAC9A000015D12B709F3D224D0
:10471000AB438392EA83AE268302015E14D7D9723B
:10472000062595F3418F553519442D0A3500015F53
:1047300011A7D9720625D5075D4D06518B420D0193
:104740006013C70973B24A9A838392EA83AEAAC9F7
:10475000A000016112B70973B24A9A838392EA8377
:10476000AE26830201620EC7E9320E59DCCF5A141D
:104770006A0001630FB7E9B2E270D8E26ED954D48F
:104780000001640FC70973B24A9A63C390C57D03E1
:10479000016510C709B3B24A1AC6E1B0C5DDB2055A
:1047A00001660EA709330E591C0E62DC1B0001675F
:1047B0000F9709B3E270D8C2418C6BD90201680E21
:1047C000B7097334694752BF268302016915A709E7
:1047D00073A424D2A13009933009933009A321098D
:1047E000016A0EA70973061D49FD9A0C0A00016BA8
:1047F00013970933EE489884499884499884D19056
:1048000004016C0EB70973B26C8752BF2683020194
:104810006D14A70973B26C87C2244CC2244CC22405
:104820008C8624016E0EB709F3C4289452BF2683E8
:1048300002016F14A709B3C428D4C2244CC2244C6B
:10484000C2248C862401700FB709B3B224CB91D453
:10485000AFC9A000017113A709B3BA436112266161
:104860001226611246431201720DC7E93252FF9AB5
:104870000C5AAC0101731497E932C2244CC2244C87
:10488000C2248C86248B2500017413C709F3D2241B
:10489000AB23A953244552A4744B00017513B709E7
:1048A000F3D224AB23A92992222952BA25000176FA
:1048B00011C709F3D224AB23A99A6495346E03017E
:1048C0007712E6D9F2C224CAE2D0376549C56448F6
:1048D00000017811B70973B228CB91544DB24A1A2E
:1048E000B70101790EC70973DBB16148FB3C0C01CC
:1048F000017A0EB70973DBB161487B1D8600017B2D
:104900000EB709F3746818E2B4CFC310017C0D9799
:1049100009F3746818D25E8721017D10C70973B24C
:104920004A9A63C390F6791802017E10B70973B2F0
:104930004A9A63C390F63A0C01017F0DA60AB3A60A
:104940002C4943B54700018016A80873E241CC9377
:10495000211293344993341193644800018112A8C1
:1049600008738625CAA4AC6D08B37E1A14000182B0
:1049700012A709334E717990C2244CC2241C8604BC
:1049800001830DA50A338EC521C9DC0605018412F9
:10499000A7097352733C4861122661120E4302014B
:1049A0008512A60973426B3A4459922559922543C0
:1049B0000201860EA7097306258D7B5693410101DE
:1049C000870FB809B395410AA3BC8FD9900101881C
:1049D0000F9809B3D56C90D2246F8D060901891602
:1049E000A80873062D8CD2241DC2244DD2244DC29A
:1049F000689000018A0FA808738625CAA4ACFFA797
:104A00004101018B12A7097386352E0D4A988449FE
:104A10009884D130018C0DA50A3306B165D0DC92A3
:104A200021018D10A7D9720625F59A0C7292268362
:104A300002018E0EA709330E71D320370F830001B8
:104A40008F10A709B3B64A1AC7C3554DB26C0201FD
:104A5000900FA70973062595F32D6E4D060501915C
:104A60000EC8E8B28629CFD7BCAF3200019210C77A
:104A7000E9F2B65216C5E120C61D5500019311B7E3
:104A80000973D5685052B936A4D664500001941207
:104A9000A709335235C9A2AC122669254CD20C01A4
:104AA0009512A70933E2965089A4488AA4488A340B
:104AB0000501960BA50A33C4FE14290001970EA523
:104AC0000A3306292C0D52D83408019814A709334B
:104AD000C2244BA44809D5248CB25298A401019950
:104AE00012A70973C4288B534D493435D132250D93
:104AF000019A0DA50A33C6A6410A9B0601019B1225
:104B0000A70933A25015A3384DB25296A46A0001EA
:104B10009C15A70933A2488AA4488AA4488AA448B5
:104B20008AA48A32019D18C8E872D2244DC4A49682
:104B300044952C292A6992266912E700019E0DA747
:104B4000D93292211155AF7103019F0FA709730646
:104B500025B50E57D764500001A016A809738648E2
:104B60004C44258CC2288CC2288CC26CC80001A180
:104B70001178097386484C44258CC228CC860C01D8
:104B8000A215A70973965AA2255AA2255AA2255AF8
:104B9000A225C91401A312A7D972965AA2255AA216
:104BA000255A924C710301A410A808738625CAA443
:104BB000AC6D08F38E0001A512D7D972C4B83224A7
:104BC000A26A1D952189CB0001A615C8E932E67CB1
:104BD000D0C2288CB26C08B3A629CF110101A7114D
:104BE000A70973062555E36C12E3544D060501A889
:104BF0001077097306258D934189D364500001A96C
:104C00000EA709330E6A9297D3D6611001AA0EC778
:104C1000E972C4288BC2B99F420501AB0FB6E9B255
:104C2000D26C98D24E999C290001AC0DA7097386CD
:104C300021CAA2B8DF0001AD0EA709F3C4381CB623
:104C4000B85BB60001AE0CC7E9320E59DCBF2B00D1
:104C500001AF16A80933C2444C44258CC2288CC22B
:104C6000288CC26CC80001B012780933C2444C448D
:104C7000258CC228CC86240101B110A70933342524
:104C80008BB224F59A64D90401B20FA70933B22874
:104C90004C525F932C9B0001B30FA808F39354C9A7
:104CA000922889F3DE0001B417C8D9B2D5288CC286
:104CB000288CC2288C326DC9A3301B320001B5107C
:104CC000A709330E715A1BB4B41C0F430001B60E72
:104CD0007709330E696DD0D274180201B70EA70997
:104CE000330E69EB5E16A3210201B810A709330E3B
:104CF000495EDDD2380FA3210101B90FA6D9322EAA
:104D000071710AD3388B160001BA0DA6D9328E8D77
:104D1000739A69A50501BB11A70973062555E334EC
:104D20001AB4B43C0C0101BC11A709330EAA9C0CA7
:104D3000891897D564500001BD0D950A338E15531F
:104D4000186AC90201BE0FA50AB3C26890C2B4A80E
:104D5000250B0001BF0F86EA32924513B5248AB6AF
:104D6000340501C008A10C331E0201C109A30B3395
:104D700012FF2501C20FA50AB3C2D22085D120851A
:104D8000250001C308A10C334E0201C418B90873F1
:104D9000933C07876448A22C89FA258B922CD286F3
:104DA000640801C517A90833862829758D0625CA08
:104DB00092A85FB2288986640801C618A9083393AF
:104DC0006294A6CA30695A946451922551A464CA67
:104DD0002001C70CA8083362FF160D8A0201C81013
:104DE000D7D932C2B9B87A1DA4388B420501C91788
:104DF000D7D9323425AE29611226611226E190C539
:104E000059142A0001CA16A90833B24CCBB46CCA93
:104E1000949A5293342D3369890201CB17D8D83232
:104E2000B2646B9392A5A494DC222DD2A23C8C5246
:104E30000501CC17D7D972753C91A6444BB4444BAD
:104E4000B4444BE22C0A150001CD10C70973B24AD5
:104E50009AA35B255587AB3501CE13B70973B24AC8
:104E60009A83831E27C3908ACA900401CF0EC50A75
:104E700033B2A4960F52D8D32001D00DB50A33B265
:104E8000A4968F3D0D0201D111C70973B24A9A83CE
:104E90008392FA9A0C0A0001D210B70973B24A9AA7
:104EA0008383927A4D060501D30FC70973B24A9ADC
:104EB00063A95F93410101D415B70973B24A9A639C
:104EC000611226611226611246431201D510B709FC
:104ED00073061D527424F53519140001D615B7094F
:104EE00033EE88A423611226611226611246431212
:104EF00001D710C70933D31C547424F53519140095
:104F000001D816C70933D31C9374244CC2244CC255
:104F1000244CC268480201D910C709B3923407155E
:104F20001D497D4D060501DA17C70973A250C72434
:104F30001D0993300993300993301A920001DB0E5A
:104F4000C709B3F21CB3A7BE26830201DC16C7094A
:104F500073F21C9474244CC2244CC2244CC2684882
:104F60000201DD0E770973063D1EAE6A322800018C
:104F7000DE11C70973061D52746CABA4EA70B50646
:104F800001DF14B70973061D527468D0E364185228
:104F90005119920001E010C70973061DD3D1AD92DB
:104FA000AAC3D51A01E113B70973061DD4B1418F05
:104FB0009361484565480201E217B70973061D1A57
:104FC00086288BB2281B96288BB2288B860001E39B
:104FD00013970973061D5294A8162583126551452F
:104FE0001901E412A8097306294DF2B6254DA261F4
:104FF0008D060901E517A9D8B286240AB3300BB390
:10500000300BC34147A2E134640001E613C70973C2
:10501000B24A9A838392CAB5215593410101E71898
:10502000E7D972B24A9A8343222661124643940F0B
:105030004AAA26830201E815C70973B24A9A63A9EE
:105040009864D1904559294CD20001E913C70973DE
:10505000B24A548BAB9A92686AA2654A1A01EA0E68
:10506000C7E9720625F5D764D0620D01EB0E97E90A
:10507000720625F59A0C5AAC0101EC10C7E97206CC
:105080001D1A94D4D764D0620D01ED10B7E97206F1
:105090001D1A94D46B3268B10601EE12C70973B2BF
:1050A0004A9A0D43DABAE76234440001EF12E6DAB5
:1050B00032B228097368181BE7AA164D0001F013D5
:1050C000E7D9B2B24A9AA3732F6112266134440021
:1050D00001F119A90833866448A22C89B224EA9701
:1050E0002C4AB2488CB421190201F217A908338660
:1050F000384AA3341A94284BA27EC9A2241A9221BA
:1051000001F318A90833732447526598342D4AB225
:1051100028C992285232651001F411C70973DBC106
:105120004149E5DA90AAC9A00001F516E7D972DB7A
:10513000C12111933009A321CA07255593410101CB
:10514000F616A70933A22CCAA22C8A06498AA448BB
:105150008AA448530001F710C7E93292211155374C
:1051600025D1D4B81901F811B70973F25AAA8E4A99
:1051700026455A22AE0101F90EB70973F23A960C90
:1051800089A87A0D01FA11C70933D31CDD6A63922D
:1051900055D2E1AA0601FB14C70933D31C16A3504C
:1051A0001BF46418525119920001FC15C70973DBF6
:1051B000C16188B2281B96288BB2288B860001FD1E
:1051C00013B70973DB4145896A513228511655944A
:1051D0000101FE15D7F972DBA16450C22D9122297D
:1051E00052B23119941801FF15C7F972DBA164504E
:1051F000B2444BA448C9942C199418020010B70962
:1052000073A230CAB1AD92AAC3D51A020113A7097D
:1052100073A230CAA1418F936148456548020202DA
:105220000FB709B3B63AB6555275B85A030203120E
:10523000A709B3B63A34E871320CA9A80C490002A8
:105240000412B70973A230CA916190E3418ACBC3BB
:1052500010020512A70973A230CAA14149D5E19CE9
:105260000F0A00020611B709B3B63A320C723C4875
:1052700071791802020710A709B3B63A3428A93A7F
:105280009CF3410102080DB50A33A2D6410A7B1AEC
:105290000402090EB60933A22CCA91B56F8300022D
:1052A0000A0DB50A73962C1DA4B0A741020B0DB6CA
:1052B0000973A62C47D6BE0D02020C10B70973A2C3
:1052C00030CAA141497D4D0605020D10A70973A200
:1052D00030CAA14149BD268302020E0FB709B3B6F9
:1052E0003A3428A9AFC9A000020F0FA709B3B63AF4
:1052F0003428A9D7645000021013B70973A230CA2A
:10530000916149ADC3908449AA06021111A709739E
:10531000A230CA9168D29230895B01021212B70999
:10532000B3B63A322CA97518923049D50002131041
:10533000A709B3B63A124D5A1226712B0002140F68
:10534000B70973A230CA91D4AFC9A000021515A73E
:105350000933A230CAA13009933009933009A3213F
:105360000902160EB709B3B63A92FA3519140002BB
:105370001714A709B3B63A122661122661122661E4
:10538000342401021811D7D9720625B5EF56351904
:105390004439CD00021911A7D9720625D5075D4DF4
:1053A00006514E3300021A0DD7D9320E59DC9FE553
:1053B0003403021B10C7D9B2E270D8E26ED928A715
:1053C0001900021C12A70933922111E334D4A43C22
:1053D0000E952103021D11A6DA3292454BC34C9261
:1053E000E234533600021E0EC70973B24A9AA5AEC4
:1053F000C3D535021F10C70973B24A548B2B432201
:10540000AA5E0302200DD7D932922111557F8D1B40
:10541000022210A70973B224B5268392BA2683020A
:10542000022310960A73A224342643121A932101F0
:1054300002240FC7E9320E71DAE77818E250010250
:10544000250E97E9320E69AFC310870A0002260EB7
:10545000B709F37274ABA4D6E16A0D02271197095C
:10546000F37270D0E364185251199200022812D7D7
:10547000D9320E727990E2E661C8C228D4000229BE
:1054800010A7D97206255587733E88A55003022AB6
:1054900011C70973061D4B726C50525F9341010294
:1054A0002B10B60933EE518E0C49E8311912000267
:1054B0002C12C70973064D89121D1B94D4D7645052
:1054C00000022D11C60933EE4829C9A121093D2644
:1054D0004302022E0EC709F3727050527F4D06052B
:1054E000022F0E9709F372705052AFC9A00002301C
:1054F00010C70973061DCCC141497D4D0605023117
:1055000010B70973061DCCC14149BD268302023282
:1055100010B70973061D49D524ABA47137000233B7
:1055200010C6D972863CF44D5952311912000250FE
:1055300010770933922111D56148E27C5000025165
:105540000D77097386445C1D95210902520F770976
:105550003392211155EBA80C0900025311B70973BE
:10556000B6525C191251B58ECA900002540E7709DA
:105570007306258DCB6A32280002550F87F9720613
:1055800025956B4A5419B410025614B8F972F3DA1F
:105590001265521885511865DA922302025714A831
:1055A00009B3D53C5BA24C0AA3300AA34C5B220092
:1055B00002580F7709730625558741AE0C0A000281
:1055C000590E770973063D1EAE6A322800025A0E44
:1055D000770973763519A62CCAB20D025B0F7709CD
:1055E000730625D587284E934101025C0F77097316
:1055F00006258DA32157934101025D0F770973960C
:105600005A12667B94651B00025E0F7709730625AC
:10561000B50C49AA268302025F0FA7D932E3C6411F
:105620008CA32CCAB20D026017D7D9B2D3381A9402
:105630003009933009934C5AE2248C860802611099
:10564000A6D9728624F4A62CA9980C090002620F30
:10565000770973062595B32155934101026311978C
:10566000E9325235C92A6192C66992660002640F16
:10567000770973B2A4539256C224CD0002650CA7D9
:10568000D932521F9521891B02660DA70973C4B830
:105690003224A2EA35026710C7E972C4B83224A2E4
:1056A000EA358B420502680DA50A737474AC6D610E
:1056B000340802690A740B33B45EA204026A0B75E3
:1056C0000A330629EC3408026B0DA50A33C636C529
:1056D00016960601026C0FA50A33C69A9464431409
:1056E000960601026D0BC6EA32D6FE53A600026E84
:1056F00014B7F932E4962109932C8AA43009872C37
:105700005B00026F1077093352299222299222A955
:10571000A20C02701197E93252299222299222A9F1
:10572000A2CC0502711497E93216258AA4488AA4EE
:10573000488AD42C0A150002721498E87292211239
:10574000933449933449933489730002731498E96C
:1057500032924D8BC2288CC2288CC23C8913000225
:10576000740E770933D251C9A4484BC43502750F62
:1057700077097306255587AB9A0C0A0002761177D4
:1057800009738621CAA22C5AA22C0A870102771219
:105790008709730625952229922229922A1600024A
:1057A0007813C7E9F2E2E2A044911449915419C474
:1057B000B80602790C770973E39630C9A429027AF6
:1057C0000DA70973E3BE8449264D01027B0F98E9BA
:1057D00072F3A630CAB425CF1101027C0EA7D932CC
:1057E000A2494BC224EE2B00027D0F97E932A24959
:1057F0004BC224EE146A00027E0B760AB3A64C5408
:105800005B01027F0B760A73A62C09D30E02800D72
:105810007709332EA93A0C496A0D02810F770933B3
:1058200052EB3024A93A0C090002821097E9720663
:1058300025D5075D1D8624DF0002830EC7E932C52A
:10584000288BFB2D0A4500028410D7D972C5B8C732
:10585000418CA32CCAB20D02850C97E972C428EEC4
:1058600053A80002860FC7E932C5288BFBB8459ABA
:10587000940002870D97E972B672B7618C2300021B
:10588000880EB6E9B2D26C98D23E650A0002891140
:10589000770973B2288BB26418922CCAB225028A97
:1058A0000F77093396254B526B92651300028B0DCF
:1058B000760933A25A12BA451300028C0F7709F306
:1058C000D2244CB25296A46A00028D0F770973B2AB
:1058D000A4458AA4488A5435028E12A70933C528E4
:1058E0004BE33409A32C2A266102028F0D7709337A
:1058F000D224ABA4711B0002900C97E9320E69AF61
:10590000C39A0B02910E97E9320E69A7966108D3EC
:105910001002920DA6D9328E8D73558B26000293FC
:105920000EA6DA328E8D739429B6680902940DA5FD
:105930000A73964C0B4B5AD80402950CA50A739621
:10594000CC988A9D0002960DA50AB3C24635D4B400
:10595000640102970EB7E972062595FB351914000C
:1059600002980F77097306253545AA9A0C0A00029A
:10597000990E760A330625148725148705029A1096
:1059800077097386284CD26452C5688800029B113F
:105990009709B3D3685052391B5235191400029C31
:1059A0000B77093352EB70B506029D11D7D9F2740B
:1059B000E2DCDB10654A96241B00029E10A7D93258
:1059C000D244CB945453124D8D1B029F0A76093357
:1059D000D25E870102A015D8D9B2D53C5BA24C0A91
:1059E000A3300AA34C5BF2260002A10FA50A73960E
:1059F0004C0B4B5A3448610402A20FA50A7396CC93
:105A0000988AD12085110002A314A809F3F26A3202
:105A10002C9A54899228D29231190402A417C8E80A
:105A2000F2F26A322C9A54891225CA142DA9855192
:105A3000AA0002A517C8E8F2F26A322C9A54899299
:105A4000A812258B920C691C0202A612970973E218
:105A500074598A491849611246430202A716C7E9D8
:105A600072A34A295AB2288BB2288BB2284CE25032
:105A70000302A814A7F972E274598A499884492943
:105A800051A2448D0002A917C7E9B2B6529C9412E4
:105A900065909252524A4A49290E150002AA12A74D
:105AA0000933E496494BD4640A136D18120002AB13
:105AB00012A70933E4F2B0844916D592501C86002F
:105AC00002AC0E750A339244E99C244A170002ADD9
:105AD0000C751A336E5A3A6C5A0002B00B64593383
