:020000040800F2
:10000000700C0020B5010008153C0008E53400081C
:1000100000000000000000000000000000000000E0
:10002000000000000000000000000000193C000873
:100030000000000000000000173C00081B3C000806
:10004000C701000800000000C7010008C701000840
:10005000C7010008C7010008C7010008C701000860
:1000600000000000A5200008C7010008C701000823
:10007000C7010008C7010008C70100080000000010
:10008000213D00080000000000000000C70100083A
:1000900000000000C7010008C7010008C7010008F0
:1000A000C7010008C7010008C7010008C701000810
:1000B000C701000800000000000000000000000070
:1000C00000F002F800F066F812A030C808382418D2
:1000D0002D18AC4201D100F05DF80FCCA246AB4622
:1000E0000CA730CF2D1B083F3F197C427F1E544484
:1000F0002D090426F441641EAC4201D300F04AF8F5
:100100000126334200D0FB1A3343984754465D46DC
:10011000DFE70000947C0000B47C0000103A02D3BA
:1001200078C878C1FAD8520701D330C830C101D598
:1001300004680C6070470000704700000023002432
:1001400000250026103A01D378C1FBD8520700D30E
:1001500030C100D50B60704710B5662902D105F09B
:100160004BFA10BD642902D100F054F810BD752976
:1001700002D100F04FF810BD002010BD1FB501F0F6
:100180006FF904000020002105F020FAE0601FBD97
:1001900010B510BD01F01AFD1146FFF7EFFF03F097
:1001A00007FE01F032FD03B4FFF7F2FF03BC01F0DC
:1001B0008DFD00000748804707480047FEE7FEE73F
:1001C000FEE7FEE7FEE7FEE704480549054A064B61
:1001D000704700001D3D0008C100000870060020A7
:1001E000700C002070080020700800200FB41CB5AF
:1001F000074B06AA7B4469460090059801F003F975
:100200000020694601F012F91CBC08BC04B0184774
:1002100035120000F7B5002575291068009914A65D
:1002200011D0C046C046002802DA404211A608E0BC
:10023000009909688A0701D50FA602E0490704D58D
:100240000EA6012501E0C046C046009F00242437C9
:1002500004E001F0F0F830313955641C0028F8D181
:100260002B4632462146009800F065FEFEBD000098
:10027000000000002D0000002B0000002000000006
:10028000F3B50446002081B020622046E16888472B
:1002900000287AD0252802D06268A16871E0E16860
:1002A00020460025884706460020E0610746A061F9
:1002B0002A2E0AD0304605F081F9002827D0B80050
:1002C0000019303E0090866119E00298BA001219B8
:1002D00002C8916102902046E1688847012F0646D6
:1002E00017D1E06900281FDA202085431CE0009820
:1002F0000A21806948430099801930388861204676
:10030000E1688847064605F059F90028EFD1012F2A
:100310000AD02E2E08D12046E168884706462020C4
:1003200005437F1C022FC3DBA069002803DA40428B
:10033000A06101200543E80701D010208543002E6D
:1003400023D030464138192803D80120C002054384
:100350002036204625603146029A1546FFF7FCFEFE
:1003600000280BD0012806D0ED1DE808C000083099
:1003700002908AE709E02D1D029586E76268304603
:10038000A1689047206A401C7EE7206AFEBD01E01C
:1003900004C0091F0429FBD28B0701D50280801CF1
:1003A000C90700D00270704700290BD0C30702D0E4
:1003B0000270401C491E022904D3830702D5028023
:1003C000801C891EE3E70022EEE70022DFE7000041
:1003D000002203098B4273D3030A8B4258D3030BC9
:1003E0008B423CD3030C8B4221D312E003460B43D8
:1003F0007FD4002243088B4274D303098B425FD31E
:10040000030A8B4244D3030B8B4228D3030C8B4249
:100410000DD30902FF2212BA030C8B4202D312122F
:10042000090265D0030B8B4219D300E0090AC30B04
:100430008B4201D3CB03C01A5241830B8B4201D3B1
:100440008B03C01A5241430B8B4201D34B03C01A9A
:100450005241030B8B4201D30B03C01A5241C30A12
:100460008B4201D3CB02C01A5241830A8B4201D383
:100470008B02C01A5241430A8B4201D34B02C01A6D
:100480005241030A8B4201D30B02C01A5241CDD212
:10049000C3098B4201D3CB01C01A524183098B425D
:1004A00001D38B01C01A524143098B4201D34B0146
:1004B000C01A524103098B4201D30B01C01A5241A9
:1004C000C3088B4201D3CB00C01A524183088B4230
:1004D00001D38B00C01A524143088B4201D34B0019
:1004E000C01A5241411A00D201465241104670478B
:1004F0005DE0CA0F00D04942031000D34042534090
:100500009C46002203098B422DD3030A8B4212D34F
:100510008901FC2212BA030A8B420CD38901921181
:100520008B4208D3890192118B4204D389013AD0BE
:10053000921100E08909C3098B4201D3CB01C01A93
:10054000524183098B4201D38B01C01A52414309A6
:100550008B4201D34B01C01A524103098B4201D394
:100560000B01C01A5241C3088B4201D3CB00C01A01
:10057000524183088B4201D38B00C01A5241D9D219
:1005800043088B4201D34B00C01A5241411A00D29A
:1005900001465241104663465B1001D34042002B96
:1005A00000D54942704763465B1000D3404201B515
:1005B0000449002802DC491C084000E00846C04607
:1005C000C04602BDFFFFFF7F7047704770470000C5
:1005D000F0B5F94D0C091E092C402E402F468BB06A
:1005E000A7437DD0B543FCD0002E7AD0002CFCD0A0
:1005F0000D465D40ED0F2543AC1BFF25AD0464198E
:100600000894C502440DC9022143500DDC02044385
:100610000120C00701430443D2020191200C110CB8
:1006200000958C46010423468B430A9161460904D8
:10063000E24D8A430991010A7D44491980390978BC
:1006400005464D4301266D18F605751B6943C90C17
:10065000640B891C4C436418B5012C1B250C2E041B
:10066000B4434C434D43210C691889090591009D01
:10067000E90701D00121C90704912C4601996708B7
:10068000CD072F434C08059DE10B4D432D0C29460A
:100690006646754302950D4645432E46029D7D1BD9
:1006A000B44100950D465D4301942C0C2F040D467A
:1006B0005543AE462D0C3D43029503947546049C6C
:1006C0002D04641B049406D2029C039D641C002626
:1006D00075410395029401AC70CC009F7D1B01E035
:1006E0003EE162E1B4410904009507910194059946
:1006F000A4086143090C0C464443650BE7040C460F
:1007000066467443A646640B3C43039502947446C4
:10071000049DE4042C1B049406D2029C039D641CDB
:10072000002675410395029401AC70CC009F7D1B9F
:10073000B44101940C465C430095650FE7000C46FC
:100740005443A646640F3C43039502947446049DAB
:10075000E4002C1B049406D2029C039D641C00261A
:1007600075410395029401AC70CC009F7D1BB44190
:10077000AE09AF06049DC900AD092F43049DA40630
:10078000AD060495079D344369180791059DE10B5B
:100790004D432D0C29466646754302950D4645434B
:1007A0002E46029D7D1BB44100950D465D4301948C
:1007B0002C0C2F040D465543AE462D0C3D4302959F
:1007C00003947546049C2D04641B049406D2029C79
:1007D000039D641C002675410395029401AC70CC06
:1007E000009F7D1BB44101948C050694079C890AE7
:1007F000611800950791019C0599A4086143090CB3
:100800000D464543680BEF040D46644665436C0B8B
:100810003C43049FED047D1BAC4602D20025641CC2
:100820006841009E019D371B85410846584301954C
:100830000C46460FC5005443600F28436546E4004C
:100840002C1B02D20025401C6E41019D3F1AB54170
:100850002846BD09800628438446A009BF064E02EB
:100860000699A40676180743079D002068410A9957
:10087000079019430020099B00906046FF1913431D
:100880004041E20F64003A43A4460446D71A8C4123
:10089000A04203D90120009020463A46C70F941881
:1008A00040416246D20F2243644664000494009C97
:1008B000BE466400D71AA446044602978C41774688
:1008C000002F01D1A04204D96046401C8446029A00
:1008D0002046C40FA64694184041049A0546D20FFC
:1008E000224364466400D31A8D417146002901D128
:1008F000A84202D928461A46641C10430122002847
:1009000000D0164361020020079B891904465C4110
:100910000223002C02DB491813466441089DCE0ACD
:100920002D145D194B056705E10A2C050D19089971
:100930003E43C9076940002B08D0934006D30022EC
:10094000761C5141002B01D1760876001C4A002DFF
:1009500043DB154241D0AA433FD030460BB0F0BD37
:1009600006180D464D41174C7642AC411AD39518E6
:100970001C465C41134A6D42A24113D30122520529
:100980004C00D4420AD15C00D4420BD04B4002D57B
:1009900092021143E2E749004908DFE75940C90FD5
:1009A000C90718E000200849D8E7054801420DD1E1
:1009B0000342F7D0F2E700000000FF07CC4F000031
:1009C0000000F07F0000E0FF0000F87F1148594070
:1009D0000143C01241400020C0E70123089A9B0652
:1009E0009A4205DC032252078918C90FC907B5E7E7
:1009F000052252078918074A1143D2125140ADE728
:100A000070B515461C4602460B4628462146FFF7A0
:100A1000DFFD70BDFFFFFF7F30B50346CA02400D0A
:100A20001043164D164C0A1502D02043002A06DB4F
:100A3000AA1A002A12DDD040FF2A0BDC30BD520575
:100A4000520D01D140004008AA1A07D4D0404042BC
:100A5000FF2A01DD002030BD0028FCDD4A00002B0C
:100A600001D0012000E00020101801225205D042E0
:100A7000F0D8C817C043604030BD00001E0400001D
:100A8000000000801F22030C02D10F22000402D0BC
:100A9000030E03D004E00020014670470002083A2C
:100AA000030F01D10001121F830F01D18000921E9C
:100AB000002801DB4000521E120551184205C012E9
:100AC000411810467047C10FC90700D040420122AB
:100AD00092071143D6E701218907D3E7F0B58B4C84
:100AE0000F09254689B0BD437BD01D092646AE437C
:100AF000FAD00E465E402740F60F3E43254071D0A7
:100B000024012142FBD0FF24AD19A4042D1B039521
:100B100001252D05DB02DB0AC9022B43C90A294343
:100B20001E010901040F130F050121431701880B52
:100B3000820391432D098C46A90B1E438A039543DA
:100B4000B30B9A0396433F09BA0B9403A74302964B
:100B50002E467E430497B6464E19D7190C46019689
:100B6000544305977E43371B7646BF1B3601B64676
:100B7000BE0B361900967646BC043719009C01D38B
:100B8000641C00946400002F01D001263443029EAF
:100B9000049F754366467E430496760034196E00C2
:100BA00034190094029C019E1C196643751BAE46C5
:100BB000069465464519059C05956C435943754651
:100BC0000891691A0191049E01465143A41B0491A6
:100BD000611A009C0791E10605D0610901221143C9
:100BE00002E072E06EE06109089D00272C0A2D06E4
:100BF0006918049D7C412A0A2D066918019D6241ED
:100C0000AC0DAD026D185441079A910D9202551921
:100C10006141029A644658435443069B059A5A43DD
:100C2000121A131B9A0E9B015B187A41010B0005E7
:100C3000C3185141220A200644195A419A4200D24F
:100C4000491C01204002814203D315230226F643AA
:100C500002E014230326F6432020C51AA9401746B4
:100C6000AF40DA400A4320460399D840091473186C
:100C700019055118039A3843D2075140AC4009D0A6
:100C80000122944006D30022401C5141002C01D186
:100C9000400840001E4A934212D301220398920654
:100CA000904207DB0520400709181A480143C0128B
:100CB000414004E0032040070818C10FC907002085
:100CC00009B0F0BD0020F107FAE705180C464C41C9
:100CD00011486D42A04115D394181A465A410E4846
:100CE000644290410ED301204A004005824209D35C
:100CF0005A00824206D35940C90F084AC90700204A
:100D00001143DDE700200649DAE700000000FF0795
:100D1000FE070000FFFFFF7F0000E0FF0000F07F04
:100D20000000F87F0121C9050123411842001B067C
:100D3000D3185B0E0AD0C1100722D20689184007CB
:100D40005242D14201D5520089187047090208D594
:100D50000146002A03D0C10FC90700207047104682
:100D60007047420202D0002002497047072109055E
:100D70000143F4E70000F87FF0B5FF252D04C60914
:100D8000C209FF2704462E400137CB093E434840A5
:100D90002A402B400746002A6BD0002B69D0AA427C
:100DA00067D0AB4265D0002800DA32460125ED0558
:100DB00029432C4309022002090AD21A4B0C7F2432
:100DC000E31A434C000A7C44E35C7D24240412199A
:100DD00014145B00A218884201D3521C00E04000AA
:100DE00049420C465C4324115C43DB016415E31863
:100DF000040A5C43C502200D0C4644436419250ACD
:100E00005D432303EC0C0D46654300030019EB180A
:100E10004C42A34201D35B18401CD4052018002B80
:100E200007D05B00C91804D3401C002901D1400839
:100E300040003F2189048A4209D3002A08DC1106B8
:100E4000090F04D0032149074018C00FC007F0BDA7
:100E500001224100120689187F2252069142F6D2E1
:100E600005214907C84201D59010F0BDFF20C005FB
:100E7000F0BD002F00DA32461648AA4207D2AB4234
:100E800005D21902090E17D0F80FC007F0BDFF25D3
:100E900063002D06AB42F9D84900A942F6D8AB420F
:100EA00001D1A942F2D0A94201D1002101E06100A3
:100EB0004908D0050843F0BD1102090EFBD0FF2000
:100EC0000243D005F0BD0A460146104654E7000033
:100ED000BE4800000000C07F1F22030C02D10F2279
:100EE00000041CD0030E01D10002083A030F01D107
:100EF0000001121F830F01D18000921E002801DB28
:100F00004000521ED2055118021251181922904069
:100F100004D3491C002801D14908490008467047FC
:100F2000C10FC90700D04042012292071143D3E705
:100F300001218907D0E7FFB504460D4681B0243072
:100F400000902168880604D51022E0699143216051
:100F500000E00120A84201DD471B00E000270498C3
:100F6000A1697A191018081AA0612078C00602D465
:100F70002046C046C046002608E003986268A16883
:100F8000805D9047206A401C761C2062049886424F
:100F9000F3DB2078C0060AD52046C046C04606E0EE
:100FA0006268A16830209047206A401C2062384661
:100FB0007F1E0028F4DC07E000986268A168405DAD
:100FC0009047206A401C206228466D1E0028F3DCF2
:100FD0002046C046C0462078000602D5022005B053
:100FE000F0BD0120FBE70000FFB50C461E468FB0A8
:100FF00003CA089009914F007D0D00D16D1E00219C
:1010000008460020C0460321099A89050840002AA5
:1010100003DA8200801840080840800D01280A90F9
:1010200002DD0020C0430A90089807430DD0F04825
:10103000F049281848430714189800281DD0754215
:10104000291E1DDD0A9842421BE01898012802D093
:101050000020302104E00020F24305E02154401C30
:10106000B042FBDB30460022189B002121540F992F
:101070008B600A60486013B0F0BDBD1B6D1CDFE7DC
:101080000A9A002900DA69420BA800F06FFA0BAB4C
:1010900007CB03AB07C30899099800F0D3FA6B4656
:1010A00007C30146D4480918002D00910BDDD24931
:1010B00003980A9A49424018002303A903906846FE
:1010C00000F030FD08E003990A9A0023081803A9EC
:1010D0000390684600F0D0FC6B4607C30004000C88
:1010E00003D00020C043410800E01046189A002AAF
:1010F00003D00022009215461EE0751E05D400F0B4
:10110000B3F9303262556D1EF9D5012208430796B6
:1011100002D000227F1C04E02078302801D1002278
:101120007F1E002A069787D01EE0112D07DA00F0F7
:101130009BF9303262556D1C02460A43F5D10843D3
:1011400003D00098002819D00EE00021681E05E0A9
:10115000235C625C63542254401E491C8142F7DBCD
:10116000A81B401E07950690079A18990020A054C6
:101170000F98079B069A81600CC07CE7112600201F
:10118000189059E7D21DF0B50D460446D10893B02A
:10119000C90003C90C900D9104F0FAF902460D98AC
:1011A000C00F01D02D2007E02068810701D52B203A
:1011B00002E04007C00F4001032A0F9001D0072A28
:1011C00005DB03462946204600F08CF90EE1207825
:1011D000800601D5E76900E006272846652D04D082
:1011E000662814D0672D69D12DE00020112F0090C2
:1011F00001DB112300E07B1C0CAA03A910A8FFF758
:10120000F3FE1199002610987D1C0E9142E00120FA
:101210003B460CAAC0070B900120009003A910A820
:10122000FFF7E2FE119D12981099002600280E95F6
:1012300001D1781C0D18781B02D446427D1C761E05
:10124000E81B00903AE0012F00DA01270020112F5F
:10125000009001DD112300E03B460CAA03A910A871
:10126000FFF7C2FE11993D46109800260E91217895
:1012700009070BD40E99A94200DA0D4603A9012DE6
:1012800004DD4A19203AD27F302A06D0B84201DA6A
:10129000011D04DA012100910FE06D1EEFE7002827
:1012A00002DC86192D1A03E0411CA94200DD0D461F
:1012B000801B401C00900120C0070B902078000785
:1012C00005D40098A84202DB0020C0430090694684
:1012D0000020C8720B98012102AF0337C90788426A
:1012E00025D0022010902B2011900B9800280BDAAB
:1012F00040420B902D20119006E00B9800F09BF8D7
:1013000030317F1E0B9039701099481E00291090C3
:10131000F3DC0B980028F0D111987F1E38702088DC
:10132000000501D5452000E065207F1E387001A82A
:10133000C01BC01D0B900F98002800D00120411940
:101340000098C01709180B980818A169081A401EC0
:10135000A0612078C00602D42046C046C0460F983F
:10136000002805D06268A1689047206A401C20626E
:101370002078C00625D52046C046C04621E0002E74
:1013800007DB0E98B04204DD03A86268805DA168A7
:1013900002E06268A16830209047206A761C401CF9
:1013A00020620098401E002800900AD100F058F8F2
:1013B000C06862680168405CA1689047206A401C70
:1013C000206228466D1E0028D9DC07E06268387864
:1013D000A1687F1C9047206A401C20620B99481E20
:1013E00000290B90F2DC2046C046C046032042E6AE
:1013F00001FCFFFF104D0000E1DFFFFF01694A1C07
:1014000002610878704700B58FB002910021059104
:101410000549019379440391114604906846FEF70B
:101420002FFF0FB000BD0000E5FFFFFF0A6810703E
:10143000521C0A60704701468008081A02091018F9
:10144000020A1018020C1018C0088200121852006C
:10145000891A01E0401C0A390A29FBD270470000B2
:1014600000487047300000200B4670B502468907DF
:101470008008084319469D08141AA9412509080740
:10148000054308092C194841250A01060D43010AA4
:101490002C194141200C0D0428430D0C00194D411D
:1014A000002140194D41C00869070843E908840F2D
:1014B0008D002543840024184D4124196D41121BD1
:1014C000AB4107E00925ED432C115219634100247B
:1014D000401C61411C460A250026551BB441F1D22F
:1014E00070BD0000F8B51F46044601230068DB020A
:1014F000032601461840072A05DB002801D017A55E
:1015000006E017A504E0002801D016A500E016A506
:10151000102081432160A069C01E002FA06101D06E
:10152000401EA0612046C046C046002F09D0384664
:101530006268A1689047206A401C2062C01C20623B
:1015400006E0206AFAE762682878A1686D1C904777
:10155000761EF8D22046C046C046F8BD4E414E0029
:101560006E616E00494E4600696E6600F7B516461C
:101570008AB0334878446C4603467C33C06F5A685F
:101580009B680DC42E487844763003AC0DC80DC45A
:101590003720C001081837211B30FEF727FF05460A
:1015A0000C46803D1B3C02D56442012000E0002037
:1015B0000027099010E0E0070CD00C202049784368
:1015C000794432464C3941186846012300F054FAF8
:1015D0006B4607C364107F1C002CECD1184F7F446E
:1015E0002E3F16E0E80712D02001C0190EC8069160
:1015F000089307920068F04201D19819089032468A
:10160000012306A903A800F037FA03AB07C36D1046
:10161000641C002DE6D10998002806D032466946A0
:10162000012303A800F07EFA05E001233246694653
:1016300003A800F021FA0A9B07C30DB0F0BD00001B
:1016400050410000034640000A4610B5400D0BD043
:101650000121C9070F24A40200191C0364082143B7
:10166000540D2143D20207E000210120F2E7D40FFC
:10167000490021435200401E0029F8DADB0FDB0746
:10168000184310BDFFB50D46144685B04868516833
:1016900003F065FF00910190A868A16803F05FFF67
:1016A00002910390A868616803F059FF029A12182A
:1016B0008242029201D2012000E00020019A0B1820
:1016C000D2180028019202D08A4202D903E08A424D
:1016D00001D2012000E000200099081800906868FD
:1016E000A16803F03CFF029A12188242029201D2D2
:1016F000012000E00020019A0B18D2180028019266
:1017000002D08A4202D903E08A4201D2012000E0DD
:1017100000200099081800902868216840004900BE
:10172000400849084018FA49471814E00199400058
:10173000C90F08430090019802994000C90F08435F
:101740000190029803994000C90F08430290039842
:1017500040007F1E039000980028E7DA08980028D0
:1017600001D0EC4E00E00026B74201DA012000E093
:101770000020002804902AD0F71BF806C00E15D0D0
:10178000029B2021091A039A8B401A430392029A62
:10179000019BC2408B401A430292019A009BC240B7
:1017A0008B4000991A430192C14000917B110DD0EA
:1017B0006F460320C11A03D500218200B95003E00F
:1017C0008A008100BA587A50401EF3D537460398F4
:1017D0000299002800D001200143089802910028B6
:1017E00008460CD0002800D001200199019A490533
:1017F00008430121D20AC902D202019200E001216C
:101800000E9B0122D207012B02D0002B03D013E044
:10181000002807D120E0904204D890420CD1019BCF
:101820000B4209D0019B5918019105D10099491C1F
:10183000009101D17F1C009200280DD01021084694
:101840000020C0460498002806D00F98002803D036
:10185000082108460020C04628682168019B009A9C
:101860004840C10F0598C90739430EC009B0F0BD03
:10187000FFB587B0099A089808995368926840683C
:10188000896896460022039317469446089A126880
:101890005300099A5B081268520052089A1A9E4B2C
:1018A000D4180A9A002A01D0352200E0402206927C
:1018B0000022012315460492DB07059324E0002D46
:1018C00005D175460346039E4D1BB34109D37546AA
:1018D0006646039B491B049D9841059B7519AC46C0
:1018E0005F4163463B4308D0059B049EDD077608B5
:1018F0002E435B080496059301E0521E641EC50F3B
:10190000ED0749184041521C069B9A42D7DB002D37
:1019100004D17546039A6B1A824101D203200CE070
:10192000039A0B466B404240134303D0014303D05C
:10193000012002E0022000E0002061460191002128
:10194000009702910A99002905D06146400201439F
:10195000704B019102E08007002302909C4201DA63
:10196000012000E0002007003AD01A1BD006C00E6C
:1019700015D0029D2021019C091AC5408C402543A9
:10198000029C8C4000D001242543019C0295009DBF
:10199000C4408D4000992C430194C14000915411E2
:1019A0001DD06D460221002202290CD10320001B0C
:1019B00007E0002804DB8600AE59002E00D001228B
:1019C000401C0328F5DB081B02D588002A5004E0E0
:1019D0008000285810438A00A850491EE3D51C46B1
:1019E0000A98002802980CD0002800D00120019904
:1019F000019A490508430121D20AC902D202019283
:101A000000E00121109B0122D207012B02D0002B04
:101A100003D013E0002807D11FE0904204D8904281
:101A20000CD1019B0B4209D0019B5918019105D1A2
:101A30000099491C009101D1641C009200280CD02F
:101A4000102108460020C046002F06D0119800281B
:101A500003D0082108460020C04608980999019A39
:101A6000009B006809684840C10F0798C9072143D7
:101A700082600AC00BB0F0BD00B585B00193009242
:101A80000A460146002302A8FFF7FCFD02A807C88A
:101A900005B000BDFFB50A461F4685B00799019302
:101AA00001230091014602A8FFF7ECFD029903987B
:101AB000049ECA0F4900D20700920F2249089202E1
:101AC0008C1A0021002800DB0C46450013486D08E5
:101AD000844214D3079A002A04DA441E0026104DCB
:101AE000F64302E004460D460E461021084600204B
:101AF000C046002F03D0042108460020C046200520
:101B0000E90A0843009908436905F20A1143ADE662
:101B100002C0FFFF013C0000FF3F0000FF07000084
:101B2000FFFFFF7F00B585B0019300920A46014692
:101B3000002302A8FFF79CFE02A807C8A8E7FFB58C
:101B40000A461F4685B0079901930123009101467B
:101B500002A8FFF78DFE02990398049ECA0F490060
:101B6000D20700920F22490892028C1A0021002805
:101B700000DB0C46450011486D08844214D3079AD7
:101B8000002A04DA441E00260D4DF64302E0044606
:101B90000D460E46102108460020C046002F03D0F7
:101BA000042108460020C0462005E90A08430099A0
:101BB00008436905F20A114358E60000FF070000D8
:101BC000FFFFFF7F00487047100000207546FFF7B9
:101BD000F9FFAE46050069465346C008C000854679
:101BE00018B020B5FEF7F0FA60BCB6460026002714
:101BF000C0C5C0C5C0C5C0C5C0C5C0C5C0C5C0C5BD
:101C0000403D490849008D46704710B50446C0461E
:101C1000C0462046FEF7C7FA10BD000082078B07BA
:101C20009A423FD170B5920F0AD0032402780B7804
:101C3000401C491C002A33D09A4231D12042F5D1B0
:101C4000214EF40104C808C9951B9543254018D1BD
:101C50009A420FD104C808C9951B9543254010D15D
:101C60009A4207D104C808C9951B9543254008D15D
:101C70009A42E7D012BA1BBA01209A4200D24042DF
:101C800070BD12BA1BBA2DBA18241000E04019001A
:101C9000E140401A05D12E00E64002D1083CF4D1C3
:101CA000D01A70BD02780B78401C491C002A09D05C
:101CB0009A4207D102780B78401C491C002A01D0B7
:101CC0009A42EFD0D01A7047010101010149182052
:101CD000ABBEFEE72600020070470000F0B583B0FF
:101CE00001930292744E80273760376101252A02E2
:101CF000724CA2800022724BFEF76AFCAA07714B5D
:101D0000FEF7ECFEFEF788FE01018A0C08992368B5
:101D10001B0608D523681B0605D523681B0602D5BC
:101D200023681B06F3D437603760376121231B0219
:101D3000A380654B184023681B0608D523681B0643
:101D400005D523681B0602D523681B06F3D437602C
:101D500003239B031943029B002B02D0012B39D094
:101D60006CE0009537603761574B5B1C1843A080CF
:101D700025682D0608D525682D0605D525682D066C
:101D800002D525682D06F3D43760376037611A43D2
:101D9000A28023681B0608D523681B0605D5236887
:101DA0001B0602D523681B06F3D437603760376102
:101DB000A180009D23681B0608D523681B0605D556
:101DC00023681B0602D523681B06F3D43760029BE9
:101DD000012B33D1376037613C4BC018A080E8033A
:101DE00023681B0608D523681B0605D523681B0638
:101DF00002D523681B06F3D437603760376102438E
:101E0000A2802068000608D52068000605D5206855
:101E1000000602D520680006F3D4376037603761CA
:101E2000A1802068000608D52068000605D5206836
:101E3000000602D520680006F3D437600198022816
:101E400015D0012825D0002834D1376037616803C8
:101E5000801CA080206800062BD52068000628D5AD
:101E60002068000625D520680006F3D421E03760FD
:101E7000376168032830A0802068000619D52068E3
:101E8000000616D52068000613D520680006F3D496
:101E90000FE0376037616803A0802068000608D52E
:101EA0002068000605D52068000602D520680006D7
:101EB000F3D4376003B0F0BD180000500830014083
:101EC00080842E41E17A6441FF3F00000080FFFFE3
:101ED000B0B50146806A836D826D5024234206D0DE
:101EE000D20610D4006D426B08469047B0BD012168
:101EF0004B021A4382650268D3681B059B0F05D00D
:101F000000F06EFCB0BD00F06DFCB0BD837E002B18
:101F1000F6D113681B07F3D593685B070AD4034611
:101F2000583354680C25AC435460FF2402341A68BB
:101F3000A24306E0826D20231343836503465C338E
:101F4000C26D0A431A6000F04BFCB0BD80B5806AD8
:101F5000816D40220A438265C16D04220A43C26535
:101F600000F040FC80BD80B5806A00F03AFC80BD86
:101F700070B505460068816882680024D20726D0C3
:101F80000222114023D1816805220A40012A16D17C
:101F90008168404A0A40911C81600321016001F080
:101FA0001FF8064628688068C00710D001F018F8AE
:101FB000811B28680329F6D38168C907F3D0A86D6F
:101FC00010210143A965E86D01242043E8652046FE
:101FD00070BDC046F0B581B005460024009400688D
:101FE0008168C9071AD181682A4A2F32114208D064
:101FF000A86D10210143A965E86D01242043E8651F
:102000000CE08168234A114001273943816022484E
:102010000068000205D4687E012821D1204601B065
:10202000F0BD1E4800681E4903F09EF9401C009058
:1020300000980028EFD00098401E009000980028DB
:10204000E9D00098401E009000980028E3D0009846
:10205000401E009000980028DDD00098401EE6E762
:1020600000F0BEFF064628680168C907D6D181681E
:10207000C90704D18168074A11403943816000F0E3
:10208000AFFF811B28680329EED30168C907EBD194
:10209000AEE7C046E8FFFF7F0827014004000020AC
:1020A000400D030080B5024800F068FD80BDC046C9
:1020B000F0000020EFF3108072B6FEE7F0B589B0B3
:1020C0000446002708975420205C012801D10225EE
:1020D000BEE1204654300125069005702046FFF7EA
:1020E00047FF2668B268A16DD2073FD102908122D6
:1020F00052009143891CA165F168F268F14B1340CD
:10210000F360B268F048024012181832B260EF482B
:10211000084001903046B4300590ED4BB16800297D
:102120002BD50899491C08910899994200D987E153
:10213000B168002921D50899491C0891089999424C
:1021400000D97DE1B168002917D50899491C08918B
:102150000899994200D973E1B16800290DD5089911
:10216000491C089108999942D8D969E11022114374
:10217000069A1770A16505466AE105980168B2687C
:10218000EC480240183003900243B2607F20049074
:102190000140B268002A24D5089A521C0892089A75
:1021A0009A4200D94CE1B268002A1AD5089A521C0A
:1021B0000892089A9A4200D942E1B268002A10D5E2
:1021C000089A521C0892089A9A4200D938E1B268DB
:1021D000002A06D5089A521C0892089A9A42D8D921
:1021E0002EE1059802680097B768D2480740039827
:1021F0000743B760009F049802405118B268002A54
:1022000024D5089A521C0892089A9A4200D917E1DC
:10221000B268002A1AD5089A521C0892089A9A4263
:1022200000D90DE1B268002A10D5089A521C089214
:10223000089A9A4200D903E1B268002A06D5089AA2
:10224000521C0892089A9A42D8D9F9E00598026877
:10225000B768B848074003980743B760009F0498E1
:1022600002405118B268002A24D5089A521C0892DC
:10227000089A9A4200D9E3E0B268002A1AD5089A6F
:10228000521C0892089A9A4200D9D9E0B268002AF2
:1022900010D5089A521C0892089A9A4200D9CFE0A9
:1022A000B268002A06D5089A521C0892089A9A42E7
:1022B000D8D9C5E005980268B7689E4807400398DA
:1022C0000743B760009F049802405118B268002A83
:1022D00024D5089A521C0892089A9A4200D9AFE075
:1022E000B268002A1AD5089A521C0892089A9A4293
:1022F00000D9A5E0B268002A10D5089A521C0892AD
:10230000089A9A4200D99BE0B268002A06D5089A3A
:10231000521C0892089A9A42D8D991E0059802680E
:10232000B7688448074003980743B760009F049844
:1023300002405118B268002A21D5089A521C08920E
:10234000089A9A427CD8B268002A18D5089A521C7A
:102350000892089A9A4273D8B268002A0FD5089A50
:10236000521C0892089A9A426AD8B268002A06D586
:10237000089A521C0892089A9A42DBD960E00598A4
:102380000268B7686B48074003980743B760009F2F
:10239000049802405118B268002A21D5089A521CAC
:1023A0000892089A9A424BD8B268002A18D5089A1F
:1023B000521C0892089A9A4242D8B268002A0FD555
:1023C000089A521C0892089A9A4239D8B268002A90
:1023D00006D5089A521C0892089A9A42DBD92FE037
:1023E00005980268B7685348074003980743B760E9
:1023F000009F049802405118B268002A2BD5089A11
:10240000521C0892089A9A421AD8B268002A22D519
:10241000089A521C0892089A9A4211D8B268002A67
:1024200019D5089A521C0892089A9A4208D8B2689C
:10243000002A10D5089A521C0892089A9A42DBD9B1
:1024400006980770A06D1021014302208143A16509
:10245000284609B0F0BD05980268B36835480340C6
:1024600001252B43B360049802405118C908326912
:10247000920F2FD10F229204D34B1B6813409B0C59
:10248000072B27D3DA1E012393400793079A52089C
:102490000792079A002A1DD0079A521E0792079AA0
:1024A000002A17D0079A521E0792079A002A11D0C5
:1024B000079A521E0792079A002A0BD0079A521EBB
:1024C000E6E7C046FC7FFFFFE8FFFF7F03800000D8
:1024D000FFF1020005980268049B9A430A430260D8
:1024E000B16814480140022005900143B16000F03A
:1024F00077FD064620688168C90710D000F070FD9E
:10250000811B20680329F6D38168C907F3D0A06D29
:1025100010210143A165E06D2843E06598E7C1689B
:10252000019A1143C160A06D0121014305988143C7
:1025300002981DE6E8FFFF7FF0B589B000250895F9
:102540005422825C012A01D10224FBE00646543663
:1025500001243470026893685B0711D404694B68E6
:10256000022B12D1042004439548844269D1934838
:10257000C0430B68D9430143906A0840906261E010
:10258000816D20220A438265DBE0079606930426CC
:1025900034438A4B8A4FBC4264D10F683B40906AF7
:1025A0001843906238025369834389680140854823
:1025B0000840184350610024002F01D4079EC0E05A
:1025C000012681483B4607680720820539461140AD
:1025D0007E480293834200D08BE0F0053B460340E7
:1025E00000D086E0784F3B6893431943014339603C
:1025F00079480068794902F0B7FE0C2141430C315B
:10260000089108980028D9D0079E0898401E089085
:102610000898002800D194E00898401E0890089877
:10262000002800D18DE00898401E089008980028E6
:1026300000D186E00898401E089008980028E4D150
:102640007FE00B680024002B7BD5F7480168604AC7
:1026500093426AD05F4A93426AD05C4A934270D1F7
:10266000052263E0029605951F27069C27400F254B
:1026700000950397BD40046E0195AC4304940F6828
:102680001F424ED0FB07059D2C4663D1BB075CD48F
:102690007B075CD43B075CD4FB06029C5AD4BB0688
:1026A0006BD47B066BD43B066BD4FB056BD40297D3
:1026B000BB056AD4029B5B056AD4029B1B056AD4E6
:1026C000029BDB046AD4029B9B046AD4029B5B04DA
:1026D0006AD4029F3B04009C059D3BD4FB0366D457
:1026E000029B9B0366D4029F7B03DB1712241C40D2
:1026F00019E03748029B834202D13006814208D359
:102700003448029B834200D058E7B005074000D010
:1027100054E7C54F3B689343194301433960079E13
:102720000FE07B00DC0E059D14E00322920501E022
:102730000322D205114007229205036893435918DA
:1027400001603570204609B0F0BD012402E002248A
:1027500000E00324039EB440049B1C430466069BD4
:102760009B08C069984200D81CE70198C043936A4F
:102770000340B800000FB04012E70524EAE7062442
:10278000E8E70724E6E70824E4E70924029FCAE70C
:102790000A24029FC7E70B24029FC4E70C24029F70
:1027A000C1E70D24029FBEE70E24029FBBE7102461
:1027B000029FB8E71124029FB5E7C046FFFF07005C
:1027C0000400008000FFFF0708270140001000B050
:1027D000004000B8002000B404000020400D0300B9
:1027E0007047704770470000F0B589B0044600207C
:1027F0000890002C74D00790A06D002807D12546C2
:102800005435204600F012F900202870E0650127B9
:102810003D072668B068C00024D4B0687D490140F7
:102820002943B1607C4800687C4902F09DFD40006E
:10283000801C08900898002814D00898401E089022
:10284000089800280ED00898401E08900898002884
:1028500008D00898401E08900898002802D00898D0
:10286000401EE6E7B068284208D1A06D1021014360
:10287000A165E06D012107910843E065B06804217E
:102880000140A26D102002405118A16D2BD106907D
:102890000F20C7433A46F33A1140891CA165B1683D
:1028A000C9077BD10390049727462037216B4A1E26
:1028B00091410D03A168227E92030A43617EC90300
:1028C0001143A27E50030843E36803432B430120D6
:1028D000C507216900290590029509DAA94308E096
:1028E000012009B0F0BD0143A165384609B0F0BD33
:1028F00041050B43387B45001D43387801280DD135
:10290000002A08D0A06D20210143A165E06D059942
:102910000843E06502E0059800040543626A002A66
:1029200006D0072080010240A16A1143294300E03C
:102930002946F0683A4A02400A43F26003208207BF
:1029400063681D461540E16C387F01280ED1206C6C
:102950000090676CA06C01900098074301980743B2
:102960002F430F43059807433D4600E00D43049F66
:1029700030692C490140294331610298834203990F
:102980000CD093420AD005988007834206D0880471
:10299000034025490A688243D018086070690722FD
:1029A0009043656B28437061706970218843A16B07
:1029B000090101437161216901235805814203D056
:1029C00000290BD1B06A07E0B06AE06980001C30D2
:1029D0001C2101408F40206E3843B0627069104066
:1029E000A8420AD10020E065A06D01210143022028
:1029F0008143A165079809B0F0BDA06D0699084311
:102A000002218843A065E06D1843E065184609B0CF
:102A1000F0BDC046E8FFFF6F04000020400D03003A
:102A20000102DEFF02FCFF1F08270140F0B587B05E
:102A3000044600260696059600682049884201D083
:102A400007B0F0BD1E48016A03220392920791432A
:102A5000016201273905C2680A43C260C2680A40A0
:102A60000192019901683943016000683840019082
:102A700004960A200290019805200090000702A900
:102A800000F0E4F90F4D2E622020B9023A028023B3
:102A90000D4F2F60009F6F60AE60EE602B616A612A
:102AA000A961E861284600F0D9F8002801D0FFF7B5
:102AB00001FBAC62256507B0F0BDC04600240140B3
:102AC00034100240F000002008000240F0B581B050
:102AD0000E460446006881680227490740D40092E8
:102AE0005421615C01293BD02546543501272F70C4
:102AF000C168C9070BD18168C90704D081681A4A27
:102B00000A40911C8160C16801220A43C2602046CC
:102B1000FFF760FA002823D1A06D1449014001207D
:102B200000020818A0650020E06521681C220A60E8
:102B30002870206D0E4A0F4B0F4DC5620363426330
:102B40004A68102313434B6040313246009B00F02B
:102B500005F9074620688168034A0A40111D816013
:102B6000384601B0F0BDC046E8FFFF7FFEF0FFFF32
:102B70004D1F0008671F0008D11E0008F0B585B082
:102B8000A849091F0E6802681368042502932B40A8
:102B90005F425F410490046C1C2323402946994006
:102BA0000C460396344060426041384331D0019274
:102BB00001210227029E30463840444244419F4052
:102BC000039D2F420A4600D021460498044624342F
:102BD00000292FD00820064077427741DD402807A2
:102BE00000D53A46002A23D1019A10680E21884365
:102BF00010600125294699408A4802680A4302600C
:102C00000498C563002121706570416B00290ED1C5
:102C10000EE01068800602D41068A8431060814A54
:102C20001068084310600498016B002900D08847A1
:102C300005B0F0BD019B1968890605D41A680A2100
:102C40008A431A600121617000212170754A116860
:102C500039431160C16A0029E9D1E9E7F0B587B0CD
:102C600000284AD0044601462431022006914870CB
:102C700027683868344901403960344E3046803026
:102C8000A064334838181425294602F06DFB8000F3
:102C90008119206405916164FC2038400838294678
:102CA00002F062FB1F23034001210A469A40E264BE
:102CB000A0680490E5682646103649CE0196E6697C
:102CC0000296266A039628431843019B18430E4632
:102CD000029908430399084339680143049B194347
:102CE0003960B1031B488B420AD1002305990B6060
:102CF000636002601D461A461CE0012007B0F0BD6B
:102D000061683F270F40059B1F600260491E00233A
:102D100003291D461A460DD8791E8A008318002201
:102D2000DA6703250D403246AA400B490A607C331E
:102D3000BC3005460020E06323656565A265069901
:102D400008704E7007B0F0BD0F80FFFF0008024012
:102D5000F8FFFDBF8408024044090240F0B582B08C
:102D600004462420205C012802D1022002B0F0BDDC
:102D7000174625462435012028706A78012A2ED16D
:102D8000022068700020E06325682A680126019609
:102D9000B2432A60A26CE66C5660226D0092002A53
:102DA00002D0626DA66D5660226C1C261640019AF8
:102DB000B2401C4E366816431A4A16606B60A36810
:102DC000102B3A4600D00A46AA60102B00D0394694
:102DD000E9602968226B002A07D00E220AE0002150
:102DE00029708021E16302B0F0BD04229143296083
:102DF0002A680A211143296001990902626C13684B
:102E0000DB0302D513680B431360009B002B02D039
:102E10001A680A431A602968019A1143296002B0AE
:102E2000F0BDC04604000240B0B5044600F0D8F83A
:102E30000546601C02D004480078041900F0D0F860
:102E4000401BA042FAD3B0BD08000020F0B58AB004
:102E500009910968002900D1B5E006465B48864221
:102E600001D0052000E003200090002707973C4692
:102E7000089710E00A432A607F1C099801680846F9
:102E8000F840089A08320892079A121D0792A41C6B
:102E9000002800D197E001250295BD402940EBD0E4
:102EA00003970191324603231846A040C1432746A9
:102EB0000998446820461840461E012E0691059444
:102EC000049710D893680B400999CE68BE401E4302
:102ED0009660E306DB0F039FBB405668AE431E437C
:102EE0005660164607E003281646039F03D118468E
:102EF000059A049C1DE0F36806990B40099A9568B1
:102F0000049CA5401D43F5600228059A11D11C20A0
:102F1000079908400F228240FB089B00F3181D6AA6
:102F2000954309990A6982402A431A624A68032034
:102F30001040A040336806990B4003433360900370
:102F4000800F99D003203A46824321488018026EB0
:102F500005231B079E420AD01F4B9E4205D01F4BE4
:102F60009E42009904D1022102E0029900E0002172
:102F70001823089D2B400F259D40AA43603099409F
:102F800011430160124D2A6809984068C30202D5B6
:102F900001990A4301E001998A432A606A68830221
:102FA00001D50A4300E08A436A600A4D6A688303D8
:102FB00001D50A4300E08A436A602A68C00300D54D
:102FC00058E78A4357E70AB0F0BDC046000C0050EE
:102FD0000018024080180240000400500008005011
:102FE000F74800687047C046B0B502460346403314
:102FF0005C780220202C17D11C78012C14D02420BE
:103000005870106802680124A24302602203056818
:103010009543056002680A4302600168214301602C
:103020000020187020215970B0BDB0B5024603468B
:1030300040335C780220202C17D11C78012C14D04E
:1030400024205870106802680124A24302600F22F5
:103050001202056895430902294301600168214372
:1030600001600020187020215970B0BDF0B581B00A
:10307000002822D00446054640356878002804D14F
:1030800000202870204600F05FF924206870206836
:10309000026801218A4302600F221206636893438B
:1030A000036183681C4A13408360A368E668012EAD
:1030B00006D1CE03334383600CE0012001B0F0BDA4
:1030C0002127BF023B438360022E03D1CB02466817
:1030D0001E4302E0CB0246689E43466043680F4EA3
:1030E0001E434660C3681340C3602269636913438B
:1030F000A26912021A43C260E269236A13430360A1
:1031000002680A4302600020606420216970206325
:10311000A87001B0F0BDC046FF7FFFFF0080000235
:10312000F0B585B01C460546034640335E78022064
:10313000202E00D0FAE01E78012E00D1F6E0029297
:1031400004910120019303901870FFF749FF064690
:1031500029688869000417D42120019A5070102032
:10316000907000276F646C85029868626F63688D49
:10317000000A7148039726D0FF232B8501221206EF
:103180002C462834009428E00398C70302E088699D
:103190003842E1D019212846324600F0A5F900282E
:1031A00000D0B4E0FFF71CFF801B29681A28EED37B
:1031B00088693842EBD0686C202108436864019A22
:1031C00051700120AFE06B8D2B852A46283200928A
:1031D00001225206002B00D1AAE0029C27788F62C0
:1031E000671C6F625F1E2F856F8D7F1E6F85049F2A
:1031F0000740DBB21B04DB1913430A9F4A684F4C9C
:1032000014401C4301220292520322434A606A8DF9
:10321000002A66D0049A02400492494C00E02968D2
:103220008869800714D428463946324600F05CF994
:10323000002869D1781CF2D0FFF7D2FE2968002F50
:1032400002D0801BB842EBD988698007E8D4B2E786
:10325000686A02788A626A8D521E6A85401C6862BA
:10326000288D401E28856A8D002A32D0000401D0A6
:103270002FE029688869000614D42846394632466A
:1032800000F032F900283FD1781CF2D0FFF7A8FEF9
:103290002968002F02D0801BB842EBD9886900064C
:1032A000E8D488E7688D000A06D0FF20009A1080D5
:1032B00048682040234A08E0688D28854A682240F3
:1032C000C0B200041043029A5206049B18431043F4
:1032D0004860688D0028A3D103E08869800600D487
:1032E00069E78869800615D428463946324600F0D9
:1032F000FBF8002808D1FFF773FE2968002FECD0F7
:10330000801BB842EDD9E8E7029805B0F0BD0398FC
:1033100005B0F0BD2020C8614A68B34B13404B6034
:10332000019A5070039800211170917005B0F0BDA2
:10333000049B034060E7C046FF030000009800FCC8
:10334000009C00FC0000FF0110B586B00068154924
:10335000884201D006B010BD03200103124C226A3E
:103360008A432262216802221143216021681140B0
:1033700000910621059100210491039112210291EF
:10338000000201900098094801A9FFF75FFD0120A4
:103390004005A1680143A160A16801400091009827
:1033A00006B010BD0054004034100240000400502C
:1033B0001F48007802490A68101808607047C04624
:1033C0006C06002010B50124200208490A68024357
:1033D0000A60032000F00CF8002801D0204610BD40
:1033E00000F02AF80024204610BDC046002002400C
:1033F000B0B505460E4801780124002916D07D207D
:10340000C00001F0B1FF0146C948006801F0ACFFFF
:1034100000F050F8032D09D8002807D10024E0431C
:103420002946224600F02AF8024805602046B0BD31
:10343000080000200C00002082B0094841680122E9
:1034400011434160416811400191019911070268DF
:103450000A430260006808400090009802B070477C
:103460003C100240002805D41F2108400121814062
:10347000014801607047C04600E100E0002805D423
:103480000322034693430A4A9A1803E00C2202409F
:10349000064BD2188007C00E8901C9B28140FF23B4
:1034A00083401068984308431060704714ED00E0B3
:1034B00000E400E0401E010E01D0012070470749E2
:1034C000D04A5060064803680B4003218907591809
:1034D000016000209060072111607047FFFFFF002E
:1034E00020ED00E0FEE70000F0B583B00D46044695
:1034F0004030029021688869C00602D40020074647
:103500003AE01020C8618869800631D4164601204F
:1035100007468003019002E08869800628D4681C71
:10352000FAD0FFF75DFD2168002D02D0801BA84274
:10353000F2D94A68029880788B691B040BD5019BED
:103540001A4008D1202806D04868019A10434860E4
:10355000FFF746FD0646216888698006DCD4FFF740
:103560003FFD801B1928F6D921688869242003E0D3
:103570002020C8610127042001258A69D30503D5CD
:103580002B02CB6128432F466B02560506D41A4204
:103590000AD1002F0BD1002003B0F0BDAD02CD61E8
:1035A000082528431A4202D0CB61022210438A69BF
:1035B000920701D500228A628A69D20703D18A69FB
:1035C000012313438B614A68074B13404B60616CC6
:1035D00001436164202002994870002008708870BF
:1035E000012003B0F0BDC04600E800FEF0B583B096
:1035F0000B68002B5AD000220191029016E076430E
:1036000076430F2171438C4377432743029EF75043
:10361000019D009B6968484331681940014331604E
:103620002B682946521C1C46D4403FD001249440AC
:103630001C40F7D04868431E022B0090204615D24C
:1036400060438F6847430325454302998E68AE4324
:103650003E4302998E600199CE68664302994F6895
:10366000A74337430199029B5F6002E06043032553
:103670004543EB430D460E6946430299CF681F4010
:1036800037430299CF60029E00990229C2D100936C
:10369000260A01D0242300E0202301994F690299D2
:1036A000CC58002EABD106464643AAE7002003B013
:1036B000F0BD000070B50268012352061A4629D4F5
:1036C0000268174C14400A6822434C681443CA68C5
:1036D00022430C6914438A692243CD6915434A6920
:1036E00015430C6A2543056045680E4E2E40120CAA
:1036F00032438D682A434260EA0A04D10122120350
:10370000456815434560012255030022AC4201D1B2
:10371000898C0161D902C3698B43C361104670BDB6
:103720004000FFFFFBF0FFFF014908607047C04603
:103730000400002010B504681C4A904202D01C4BC3
:10374000984204D170239C434B68234300E02346F6
:10375000184CA04208DD90420CD0174CA04209D072
:10376000164CA04206D01FE0114CA04202D0144CCF
:10377000A04219D103242402A343CC681C43046053
:103780008B68C3620B888362904205D00A4A9042DC
:1037900002D00A4A904201D10969016341690122BC
:1037A0000A434261002010BD1C46E8E7002C01409E
:1037B00000040040FF2B014000480140004401404C
:1037C0000020004081B00F490A680092401C01D3DC
:1037D0000020C043009A0A68D203D21710180ED0F6
:1037E0000A68D203D217101809D00A68D203D21778
:1037F000101804D00A68D203D2171018EBD101B008
:103800007047C04610E000E0B0B584B03C212548C8
:10381000002545542C2201218154C56407220563EB
:1038200042638563456285620322C26181760583B6
:1038300008241D4A031D1D7749050260416085600B
:10384000C56001614461039502950195FEF7CCFFC7
:10385000002801D0FEF72EFC039502951348019035
:10386000104801A9FEF768FE002801D0FEF722FCEF
:10387000042002900E4801900A4801A9FEF75CFE60
:10388000002801D0FEF716FC02940A480190054872
:1038900001A9FEF751FE002801D0FEF70BFC04B091
:1038A000B0BDC0468C00002000240140020000048E
:1038B0000800000C001000B010B582B00948016883
:1038C0000122114301600068104001900198092411
:1038D000002120460A46FFF7D1FD2046FFF7C2FD32
:1038E00002B010BD38100240F0B58BB0002609962A
:1038F000BF48016802220392114301600168114030
:103900000A910A990168012739430160006838402B
:103910000A900A980520040704200290A062102152
:103920000191A1620896079606960597049004AD4A
:1039300020462946FFF75AFE0896079603980690F8
:1039400005970198049020462946FFF74FFE0896F8
:10395000059602980490A7482946FFF747FE0BB04A
:10396000F0BDC04610B5124800210122114B124C87
:10397000046043608160C260016141618161C16135
:103980000162FFF773FB002801D0FEF793FB0848A4
:103990000021FFF729FB002801D0FEF78BFB04482C
:1039A0000021FFF742FB002801D0FEF783FB10BD8A
:1039B0004C010020BC7D701000540040F0B591B067
:1039C000012001038A4AD3680B43D360D3680B40BC
:1039D000079307991168014311601168014007912D
:1039E000022602962020019000270397049705974E
:1039F000069707980520040701AD20462946FFF7E2
:103A0000F5FD03970296802001900497059706978D
:103A100020462946FFF7EAFD072010900F970E97E2
:103A200018200D900B970A960F2000020990079717
:103A3000412080000890FC300C900A4D2C1F07A9F3
:103A40002046FFF737FE2868102188432860286841
:103A5000082101432960206840210143216011B001
:103A6000F0BDC04604300140B0B586B000200090E3
:103A70000121CA02154B1968114319606946088073
:103A80001B68134005930490039024220292019036
:103A900005980F4D2C1F2046FFF74CFE8020C04399
:103AA0002168014021606968574A0A406A602968B4
:103AB0007022914329600F2109052A688A432A60F0
:103AC00069680140696006B0B0BDC0464010024060
:103AD000042C0140F0B58DB000240B940A94099495
:103AE0000894079402250295414881682943816022
:103AF000816829400C910C99016829430160006894
:103B000028400C90059404940394102001900C9884
:103B100001260696374801A9FFF768FD3648016877
:103B2000FF22914301603548411C354A116007A9C5
:103B30003F220A800A9409900894324F3C46183C70
:103B40002046FFF7F7FD21688020014321603946B8
:103B500010390A682C4B13400B600A682B4B13403A
:103B600050330B600A682A4B13401A1D0A603A68EA
:103B7000F0239A433A60BA680A239A43BA603A46F5
:103B80000C3A13684024A3431360B30314689C43A6
:103B900014607022D3433A46143A14681C401460EF
:103BA000C2430C6814400C6039683143A943396042
:103BB00039680C24A14339603968014319403960E0
:103BC000032001023B688B4371025918396080025F
:103BD0003968814339600F200003396881433960B7
:103BE000B868202101431140B9600DB0F0BDC04656
:103BF000341002400004005010E400E0FFFF000019
:103C000000E100E018040040F8BFFEFF8FFFCFFF87
:103C1000F8FFFEFFFEE77047704780B5FFF7C8FB6F
:103C200080BD000070B5384A1068022108430523A2
:103C300098431060146807200440022C0BD01468CD
:103C40000440022C07D014680440022C03D01468EE
:103C50000440022CEED1012425022C4A16682E4382
:103C60001660A50216682E4208D116682E4205D1AC
:103C700016682E4202D116682E42F3D0D568244E23
:103C80002E40244D7519D560250616682E43166002
:103C90002507D6682E43D66064061568254208D1EC
:103CA0001568254205D11568254202D115682542BF
:103CB000F3D00F2424029568A543956094680C43C3
:103CC0009C439460936838210B40102B0BD0936871
:103CD0000B40102B07D093680B40102B03D0936838
:103CE0000B40102BEED100039168814391600A488C
:103CF000FFF71AFD0320FFF77BFB002803D0EFF34B
:103D0000108072B6FEE770BD002002400010024035
:103D10008C80FF1F020800200090D0037047000035
:103D2000B0B51B480168890707D40168490703D566
:103D3000806A401C19490880B0BD16490A680423EE
:103D40000124A40415041A402540AA185A404A60C8
:103D5000406A451C1048058010480088FDF7E8F8C7
:103D60000446A8B2FDF7E4F8054620462946FDF7CB
:103D700003F80B4908600B482946FCF7FDFF0A4988
:103D800008600A49FCF7F8FF92490860B0BDC046D8
:103D90001004004014000050800000207400002037
:103DA00078000020002474497C00002000001042AC
:103DB00082B0FFF707FBFFF735FFFFF795FDFFF731
:103DC0007BFDFFF751FEFFF7F9FDFFF783FEFFF7DD
:103DD000C9FDFFF719FD694C2046FEF76FF96849E8
:103DE00003222046FEF772FE664D6749674A684B1C
:103DF000284600F093FA284600F06AFF0021284682
:103E0000019100F073FF6348416901221143416150
:103E1000416910230B43436101460C390B6813437E
:103E20000B60016802220A430260016804220A430F
:103E3000026002E03220FFF7C5FC514C6088564E0C
:103E40007043574F394601F08FFA8000554908807A
:103E50000A20FEF7E9FF208870433946584F01F0E9
:103E600083FA51490880232141435048081850499A
:103E70000860FCF730FE019A00920223FDF72EFF46
:103E8000284600F041F911E05F49088082B23846C7
:103E90005EA1FCF7ABF92D212E2228463B4600F00F
:103EA0002BF9284600F076F90028C3D001212846D6
:103EB00000F000FA00262846314600F0F8F92846BE
:103EC0003C4900F099F90A242846314622463AA393
:103ED00000F012F93648026838463AA1FCF786F934
:103EE0002D27284639462246354B00F005F9162481
:103EF00028463146224635A300F0FEF835480068D2
:103F0000FCF710FF02460B462D4833A1FCF76EF973
:103F1000284639462A4F22463B4600F0EDF8222437
:103F20002846314622462FA300F0E6F81D480288B5
:103F300038462FA1FCF75AF94821284622463B462D
:103F400000F0DAF82E22284631462BA300F0D4F8F0
:103F500012480488468CA642294895D00848808893
:103F60000D494843274901F0FFF9311B021B64202A
:103F7000504301F01BFA1E3086E7C0468C0000203B
:103F800082000020B40100205C570008814D000829
:103F9000515200080C040040E40C0000A875FF1FFB
:103FA000FF0F00008A000020A00100202FDF180072
:103FB0000000002068570008467265713A00000052
:103FC000A20100202575487A00000000466C6F773A
:103FD0003A00000070000020252E32664C2F6D69DB
:103FE0006E00000043757272656E743A0000000046
:103FF00025646D410000000054656D703A000000BA
:10400000FF7F0000B80B00008800002025644300FB
:10401000F0B583B0002B6DD08C24045D002C69D0EA
:1040200004464834089D022B06D3032D13D0022DDD
:1040300002D1C91A491C01E0ED070ED1A5889542AD
:1040400058D8E588954255D98FB2FE1863889F42AB
:1040500010D3029610E0D21A521C25888D4249D8FE
:1040600065888D4246D997B2FE18E3889F421FD3D8
:1040700002961FE05D1E0295B5B2B54200D10295D1
:1040800024889F420F4600D32746B54200D10F46F1
:10409000B9B299422ED2029DADB2A5422AD9A1420F
:1040A00000D821469D4200D31D466B1A00241CE017
:1040B0005D1E0295B5B2B54200D10295A4889F421B
:1040C000174600D32746B54200D11746BAB29A42E6
:1040D00010D2029DADB2A5420CD9A24200D8224610
:1040E0009D4200D31D46AB1A0124056BAD680094B8
:1040F0009BB2A84703B0F0BD10B5024C446000F07D
:1041000063F910BD314D000810B504469320205CC2
:10411000002809D02046383000782168097C4143C6
:10412000C900606BFCF74FF90021204600F057F8FA
:1041300010BD70B504464834A588E088049E9042BE
:1041400005D9B24208D8B54206D3002070BD002080
:10415000B24218D9B54216D222886088884208D95E
:10416000012000249A4202460ED299420FD91043F0
:1041700070BD012000249A42024600D32246994293
:1041800000D82046104070BD22469942EFD8204604
:10419000104370BDB0B5044600F016FD3820205C19
:1041A0002146383149784118CDB221684A7C954280
:1041B00010D2224693321278002A05D0097C41435E
:1041C000C900606BFCF7FFF82046294600F007F8AD
:1041D0000120B0BD204600F082FD0020B0BD10B52A
:1041E000044639202154206B016820468847206B03
:1041F00041682046884710BDF0B585B00446806D03
:10420000884252D00D46A1657434087820704878F1
:1042100060708878A070C878E0700879207148795B
:1042200060718879A071C879E071087A2072487A43
:1042300060720A2008560290A072C87AE0720C20C0
:104240000856039020730D200856049060730E20CA
:104250000F56A7730F2008560190E07310200E56DA
:1042600026741121284600F08FFB60821321284616
:1042700000F08AFBA0821521284600F085FB049BF4
:10428000E776A376E082607E00280ED0012803D175
:104290000198834205DB05E0039E0298301898429E
:1042A00000DDA076B74200DDE67605B0F0BD7022F5
:1042B000815470476D228154704700000149C165E7
:1042C0007047C046C5440008B0B504466D200025BF
:1042D0002554382022548D202554FF20023092226C
:1042E000A0526163E362A5650498206321468D3185
:1042F0000D71214638314D700168204688470648C7
:1043000020656065206B4168204688472046FFF79E
:10431000D5FF6D34E570B0BD0000FFFF70B582B011
:1043200016460D46044600930849094A334600F0F4
:10433000E4FC01AE304600F041FC014632780095C5
:10434000044B2046FFF7C0FF02B070BD29510008A2
:10435000FD4E000897490008022B06D0012B07D01C
:10436000002B08D1081880B27047401A80B27047FD
:10437000801A80B27047101880B27047022B06D0A6
:10438000012B07D0002B08D1101880B27047801A7B
:1043900080B27047081880B27047401A80B27047E8
:1043A00070B582B0C46AC58F069E0096521B92B249
:1043B000A04702B070BD10B582B0049C0094FFF716
:1043C000EFFF02B010BD0000F0B585B01F460392AC
:1043D0000291064600F0C4FF397872683046904773
:1043E0003749884266D03246643204927D1C0022EE
:1043F00001920BE0039101994118019129787268AB
:10440000304690476D1C2146A04255D087B20C46DD
:10441000481E80B28742F1D00498027B032A039899
:1044200002991FD87A4412795200974401080E1558
:10443000F16D3046884703994018029912E0F16DFA
:10444000304688470299091A0BE0F16D30468847DB
:104450000399081A029905E0F16D304688470299E0
:1044600041180398049A508011803046394600F074
:1044700019FA002804D00146304600F025F800E083
:1044800000200499097B0329B5D8C04679440979ED
:1044900049008F4404080B010399091AAAE70299FD
:1044A00041180291A7E703994118A3E70299091A55
:1044B0000291A0E700200190019880B205B0F0BD04
:1044C000FFFF000000207047F0B58DB00446016684
:1044D0000746643700253D72387D0E78082804D3DE
:1044E000491C21660346083B00E0034622469232FF
:1044F00008923B720395EA430A92824096430B96D8
:10450000BE71D8B20D78C540787DC218D6B2082EDB
:104510000C970BD34E1C26660827FB1A0C9FDBB2A8
:104520004978994029430D46083A00E00E463A7210
:1045300008990978B9720A9B83409D430995FD71DA
:1045400048424841F872D1B23078C840B97D0591EF
:104550005518E9B2082909D3731C23660821891A62
:10456000C9B272788A400243083D01E033460246F0
:104570003D72E8B21978C140F87D04904619F0B256
:1045800008280AD3581C206608277D1BEFB25D78E7
:10459000BD400C9F0D43083E01E018460D460B99A7
:1045A00049B20B913E72F3B20178D9403B7E07933A
:1045B0009B19DFB2082F0AD3471C27660827BE1BAA
:1045C000F6B24078B04008430690083B00E0069100
:1045D0000C9F3B720B98012800DACEE0059B581E19
:1045E0000A9E31469940C0B20290049B581E059025
:1045F0008A4331460298814030469840059BDBB2A1
:104600000126511885439E4009984019301A45B239
:104610003E7B388849B204912A463346FFF79CFE18
:1046200005903880788804992A463346FFF7A6FE1D
:104630007880032E0ED8C0467E4436797600B74483
:10464000010D1824099949B241180B9AD2B2059D5F
:10465000AB1824E0059D2B46014620E00B99C9B21A
:104660004118099A52B2059DAA1A521C6B1C154694
:1046700015E0099949B2411A4A1C0B99C9B2059B28
:10468000591A4D1C411C5B1C08E0099949B2059D53
:104690006B180B99C9B2411A4A1C411C104689B2C9
:1046A0000091A9B282B29BB22046FFF742FD0028DA
:1046B00063D00398B880216E3A7A05E00520385619
:1046C000099B5BB2984255DAD3B20878D840BB7CDC
:1046D0000B93D318DDB2082D09D34D1C256608268F
:1046E000B21AD2B24E7896400643083B01E00D461E
:1046F00006463B72D9B22878C840F97CCA18D7B2AE
:10470000082F09D36F1C27660827FB1ADBB26D78C8
:104710009D400543083A00E005460A9B18460B9F5A
:10472000B84086430C9F3A721846884085430CE097
:10473000411C21660822D21AD2B2407890403843F8
:10474000DA1F0C9F3A72C007B8D0F1B2002220469F
:1047500000F020F8E9B20122204600F01BF83B7A75
:10476000206E0778DF405A1CD1B20829E0D20146FA
:104770003846E6E7B87A089908700A990846079A11
:104780009040069B8343501EC0B28140581840B2EF
:104790000DB0F0BDF0B58DB007920C9105466420C8
:1047A000285A2A46643205215756042154569179D5
:1047B0000A9156880892137B099321463A46FFF7DF
:1047C000CBFD049030460C9E21460B973A46099F3C
:1047D0003B46FFF7D3FD024602940A98041BE0B261
:1047E0008642334600D3034628466F30039028465E
:1047F0006E3029469231059107990029069004D11F
:104800000898407A0028039807D100780599087025
:10481000009728460499FFF7FBFB0B98C2B2E0B261
:10482000864207D20298C4B208994A7130190871B9
:104830000DB0F0BD0495301B10E0079800280698D5
:104840002AD0007805990870009504980999FFF717
:10485000DFFBF01BF1B2B9420B9AE5D30C9008983C
:10486000877941880A91057B0088521C0B9256B2C9
:104870000024214632462B46FFF76EFD09900A9828
:10488000214632460C9E2B46FFF778FD0246F3B2D6
:10489000BB42D2D33B46D0E70898407A0028039821
:1048A000D7D1CEE7F0B581B00C46816D8630173197
:1048B000FF2C03D8612C3BD340883CE080880F1844
:1048C0003E4600253046294600F05EF83F1802219A
:1048D000304600F059F8361DA042F2D37878397886
:1048E000090208184DD0A0424AD0B9787818427809
:1048F000795C0902891844D0A14240D081784718D8
:104900007A78405C000280183BD0A04238D0B97859
:1049100078184278795C0902891832D0A1422ED0E9
:10492000817847187A78405C00028018DBD128E053
:10493000412C01D30088091848780025002820D090
:104940000A78A24219D009184878002819D00A78A4
:10495000A24212D009184878002812D00A78A24240
:104960000BD00918487800280BD00A78A24204D04E
:10497000091848780028E3D103E08D1C01E00746C0
:10498000FD1C284601B0F0BD42185278405C000280
:10499000801880B27047F0B587B017469222865CC7
:1049A000072204970592174001240394BC4000227B
:1049B000012E154600D02546022E00D31446049A37
:1049C000059EB2430668367C5643B2B2466BB218B7
:1049D00051180C9A002A16D00246923206920326EB
:1049E0001E405A1E002E00D18AE0019202960A78DB
:1049F00022436A400A70049A571C059A174010D047
:104A00006D00640019E003221A40581E002A54D099
:104A10000E7826436E400E70012A20D1491C0346B1
:104A20004BE0069A167801220092012E00D0009DDC
:104A3000012E00D8009C428F8918029A012A02D1C7
:104A4000019A13465CE00A7822436A400A70049A8D
:104A5000971C059A17400BD06D00640013E04E7848
:104A600026436E404E70022A21D19B1E891C24E0F1
:104A7000069A12780126012A00D03546012A00D86C
:104A80003446428F8918029E019A022E01D19B1E44
:104A900036E00A7822436A400A70049AD71C059AC5
:104AA0001740DB1E002F20D06D00640027E08A78BD
:104AB00022436A408A70DB1EC91C80B2032822D3BD
:104AC0000878204368400870487820436840487060
:104AD0008878204368408870C87820436840C87050
:104AE000091D1B1F1804EBD10DE0069A1278012A4C
:104AF00000D0039D012A00D8039C428F8918019A97
:104B000092B2032A06D207B0F0BD428F89181B1F4C
:104B10001A04F8D00A7822436A400A707A1C5207B5
:104B200002D06D0064000AE0069A16780122012E78
:104B300000D01546012E00D81446428F89180A78F5
:104B400022436A400A70BA1C520702D06D0064000A
:104B50000AE0069A16780122012E00D01546012E91
:104B600000D81446428F89180A7822436A400A7096
:104B7000FA1C520702D06D0064000AE0069A16780B
:104B80000122012E00D01546012E00D81446428F76
:104B900089180A7822436A400A703F1D059A174017
:104BA00002D06D006400B2E7069A16780122012E49
:104BB00000D01546012EA8D81446A6E7082101709A
:104BC0000048704748020020F0B583B00446382002
:104BD000205C02902068407C019020463830477865
:104BE000002501262068037C184668430A490840CE
:104BF000616B08180090FAB20021204600F059F8C5
:104C00000298864206D2761C08357F1CF8B20199BC
:104C10008842E7D303B0F0BDF8FF0000B0B53821FB
:104C2000415CCA008287046862694264227CD200C7
:104C30004287024638325378DD00C58715815D18FA
:104C4000607C854200D9C11AC818C0005081B0BD2F
:104C500070B582B004460546403500262E81006CB2
:104C6000E064A88868816B8AAA8A298AE88A009009
:104C70002046FFF75EFA8C34002817D00120207000
:104C8000288A2989814200D22881688A69898142DB
:104C900000D96881A88AA989814200D2A881E88ABE
:104CA000E989814200D9E88102B070BD267002B066
:104CB00070BDB0B582B06C46A27161712371069966
:104CC000009185680F2101222346A84702B0B0BD9C
:104CD00010B584680A2100221346A04710BD10B504
:104CE0008468102100221346A04710BD10B50A4663
:104CF00084680B210023A04710BDB0B523240025F4
:104D0000055505608561049C074608371EC70146A6
:104D10002331CD70FF224A714A7000F001F8B0BD16
:104D200010B58468092100221346A04710BD000079
:104D30000348002901D00A2900D17047084670476E
:104D4000FFFF000010B50469192100221346A04797
:104D500010BD80B582B001AA1170012100F002F8E7
:104D600002B080BD10B513460A4604691721A0475A
:104D700010BD10B50469182100221346A04710BDCC
:104D8000F0B581B0044614390020052954D8C04636
:104D90007944097949008F444E4F4F021215002A79
:104DA00049D0032414402548057817D01978254E9A
:104DB0007155691C012C15D1541E5B1C21E01F4844
:104DC000002137E02420215C1C4803787D20C000AE
:104DD00000901B481B4AFEF7A3F92CE01446042A56
:104DE00012D227E05F78C9B27754A91C022C02D1F5
:104DF000941E9B1C05E09C78C9B27454D41EDB1C25
:104E0000E91C0D46042A15D30E4A29461D78CEB258
:104E100095554D1CEDB25E7856558D1CEDB29E78C1
:104E20005655CD1CEDB2DE7856551B1D091D241FAD
:104E30002506EBD10170012001B0F0BD480600202D
:104E40004C0100204906002010B5C4681921002239
:104E50001346A04710BD10B50A46C46816210023AA
:104E6000A04710BD10B50A46C46815210023A0470D
:104E700010BD10B513460A46C4681721A04710BDDF
:104E800070B582B00C46054608E01838022815D2E5
:104E9000641CEE68002228461346B0472178084675
:104EA0001729F2DC1538022813D2627801A80270A3
:104EB000EE6800232846B047A41CEFE7FE2913D173
:104EC000627801A802702921284600F02EFAA41C5D
:104ED000E4E7172908D1607801AA1070012128465B
:104EE000FFF7C7FFA41CD9E702B070BD10B5C468B6
:104EF000182100221346A04710BD0000F0B581B074
:104F00001439052922D81E461546044679440979E4
:104F100049008F44021E123417B62420205CFF285B
:104F200003D12046243078210170276914212046BE
:104F30002A463346B84701B0F0BD20462946FFF760
:104F400008FFB1E05A4800210170ADE0002001B037
:104F5000F0BD574E3078012802D12046FFF7F2FE0F
:104F60002046FFF706FF00212046FFF7F2FE20460D
:104F70002946FFF7EEFE0120307001B0F0BD4C4F26
:104F80003878012802D12046FFF7DCFE192D00D227
:104F900083E018212046324600F0CCF93246183220
:104FA00028461838C1B2192975D31821204600F0B7
:104FB000C1F93246303228463038C1B219296AD395
:104FC0001821204600F0B6F93246483228464838C3
:104FD000C1B219295FD31821204600F0ABF932463F
:104FE000603228466038C1B2192954D318212046AE
:104FF00000F0A0F93246783228467838C1B2192933
:1050000049D31821204600F095F9324690322846BF
:105010007030C1B219293ED31821204600F08AF918
:105020003246A83228465830C1B2192933D3182144
:10503000204600F07FF93246C03228464030C1B2E7
:10504000192928D31821204600F074F93246D832A5
:1050500028462830C1B219291DD31821204600F056
:1050600069F93246F03228461030C1B2192912D3FC
:105070001821204600F05EF92120C0003618083DB6
:105080000BE00B4D2878012802D12046FFF75AFE8D
:105090000020287008E005461646E9B22046324650
:1050A00000F048F900203870012001B0F0BDC04682
:1050B00069060020F0B581B0044646692821002524
:1050C0002A462B46B047E668142120462A462B463E
:1050D000B0474B26012200922046314600F025F9C8
:1050E0002068027929272046394600F01EF920461B
:1050F00031462A4600F019F92068027920463946DF
:1051000000F013F920463146009A00F00EF92068AD
:1051100042792046394600F008F901B0F0BD8A7C9A
:105120002223C2540160704770B50E46054600F058
:105130001FF80124002801D0204670BD092E0AD096
:105140000A2E0ED12846FFF7B5FF08492846FFF77B
:1051500097FE204670BD04492846FFF7E0FF204631
:1051600070BD002070BDC046907D0008507D0008D5
:10517000F0B581B004460B39002004295DD81546EE
:105180007944097949008F44025806111D00002D09
:1051900046D02D4945E026462236002D45D02849E7
:1051A0002046FFF76DFE2068C07C44E02046FFF7F4
:1051B0009DFE81212046FFF755FE20462946FFF738
:1051C0004AFE29E01E462046FFF790FE2220205C82
:1051D0000090777940212046FFF744FEF8000099BF
:1051E0004718F8B2010910312046FFF73BFE0F21A6
:1051F00039402046FFF72FFEB079B0210143204609
:10520000FFF729FE32683079C006010E2046FFF70D
:1052100030FE6D1E2806F5D12046FFF715FE0BE087
:105220000A492046FFF72CFE06E006492046FFF714
:1052300027FE2068807C3070012001B0F0BDC046A0
:10524000497D0008427D00088A7D0008857D0008B0
:1052500080B529392A2963D8890001A251588F467F
:10526000175300080D5300080D5300082153000880
:105270000D53000821530008215300082153000852
:10528000215300082153000821530008215300082E
:10529000215300082153000821530008215300081E
:1052A000215300082153000821530008215300080E
:1052B00021530008215300082153000821530008FE
:1052C00021530008215300082153000821530008EE
:1052D00021530008215300082153000821530008DE
:1052E0002153000821530008215300080D530008E2
:1052F0000D530008215300082153000811530008E2
:10530000115300081153000811530008012080BDFB
:105310002721002206E00120FEF754FA012080BD7B
:10532000272101224254012080BD10B54469002389
:10533000A04710BDF0B581B015460E460446FFF7F4
:1053400018FD40212046FFF704FD2769172120465C
:1053500032462B46B8472046FFF7F4FC01B0F0BDBB
:10536000262100224254704743088B421AD3002260
:1053700003098B4279D3030A8B425ED3030B8B4222
:1053800042D3030C8B4227D30902FF2212BA030C2B
:105390008B4202D31212090203D0030B8B4233D388
:1053A0001AE0D3E0411A8041401C704703460B438A
:1053B00071D443088B42F5D3002203098B4254D3A6
:1053C000030A8B4239D3030B8B421DD3030C8B4250
:1053D00002D394466EE0090AC30B8B4201D3CB0380
:1053E000C01A5241830B8B4201D38B03C01A524126
:1053F000430B8B4201D34B03C01A5241030B8B4228
:1054000001D30B03C01A5241C30A8B4201D3CB0212
:10541000C01A5241830A8B4201D38B02C01A5241F7
:10542000430A8B4201D34B02C01A5241030A8B42FA
:1054300001D30B02C01A5241CDD2C3098B4201D312
:10544000CB01C01A524183098B4201D38B01C01A90
:10545000524143098B4201D34B01C01A5241030907
:105460008B4201D30B01C01A5241C3088B4201D3B6
:10547000CB00C01A524183088B4201D38B00C01A63
:10548000524143088B4201D34B00C01A5241411A8A
:10549000524110007047CA0F00D04942031000D398
:1054A0004042534000229C4603098B422DD3030AFD
:1054B0008B4212D38901FC2212BA030A8B420CD30D
:1054C000890192118B4208D3890192118B4204D336
:1054D000890137D0921100E08909C3098B4201D3B9
:1054E000CB01C01A524183098B4201D38B01C01AF0
:1054F000524143098B4201D34B01C01A5241030967
:105500008B4201D30B01C01A5241C3088B4201D315
:10551000CB00C01A524183088B4201D38B00C01AC2
:105520005241D9D243088B4201D34B00C01A524199
:10553000411A00D201465241104663465B1000D327
:105540004042704763465B1000D3404201B50021E2
:10555000004201D0C9430846C046C04602BDF8B566
:10556000040C8BB2264682B25E43104658430D0CA3
:10557000370C360400218019164679416E43370CEA
:1055800036048019264679416E438919F8BD00001A
:105590004900CA020243100000D004204A0D01D085
:1055A00001221043044A490D914201D102210843CE
:1055B000012800D105207047FF07000030380A2875
:1055C00001D20120704700207047000010B500296B
:1055D0000AD00878002807D005487844FCF71EFB5D
:1055E000002801D0002010BD0248784410BD000002
:1055F000EE270000E627000003B402487844844602
:1056000003BC604785BBFFFF80807F7E7D7C7B7A0B
:105610007978777676757473727171706F6E6E6D5E
:105620006C6C6B6A6A696868676666656464636304
:1056300062616160605F5F5E5E5D5D5C5C5B5B5A8A
:105640005A595958585757565655555554545353F7
:1056500052525251515050504F4F4F4E4E4D4D4D52
:105660004C4C4C4B4B4B4A4A4A494949484848479D
:1056700047474746464645454544444444434343DB
:1056800043424242424141418182838485868788E8
:10569000898B8C8D8E8F919293959697999A9C9DDC
:1056A0009FA0A2A3A5A7A8AAACAEB0B2B3B5B7B944
:1056B000BCBEC0C2C5C7C9CCCED1D4D7D9DCDFE20D
:1056C000E6E9ECF0F3F7FAFE02400000000000A06B
:1056D0000000000005400000000000C800000000BD
:1056E0000C4000000000409C000000001940000039
:1056F0000020BCBE0000000034400000BFC91B8E6B
:1057000000000004B5400000504BCFD06607E2CF48
:10571000010000006C4100003E8251AADFEEA73478
:1057200001000000D9420000DCB5A0E23A301F972A
:10573000FFFFFFFFB4450000FD25A0C8E9A3C14F4E
:10574000FFFFFFFFFF3F000000000080000000009F
:10575000FF3F000000000080000000001D4C00081A
:10576000514C0008B743000871000302040404050B
:1057700005090F00FD0AFD0BFF0193032A0A112002
:105780000500C8332108B10C330E91002208347B88
:1057900033225300230E861973A29661895A8625F7
:1057A0006A012414B7F9F2C2418922294CD2350981
:1057B00023A9328819002511A7097342254A4AAD49
:1057C000711AB5941231012612A70973C4288BB23D
:1057D00028543529A94595480B2706317C330628DE
:1057E0000CC3FBB29228897A8BB200290CC3FB321E
:1057F000B2288B7A8992082A0D7739F34A95B62D0B
:1058000069AA65002B0B7719F3E2DA3064710D2C6D
:105810000952DC32862451002D071749330E012E20
:1058200007220C3386002F0CA709B3D3382DA7E528
:105830003406300DA709B3B64AEA6B9265130031FE
:105840000DA709F35231C9A2B8B76108320CA709F4
:1058500073062555FB791802330EA709330E715ACA
:10586000DDE3584D06053411A709735331C9A25A17
:105870001226C390C61500350FA709330E7265486E
:10588000C4B8AC2683023610A709B386288D2B43F3
:1058900022AAD6645000370EA709330E711AA771D9
:1058A0001AA771083811A709B3B64A9A64D956499C
:1058B000D524CB2600390FA70973062575548624F5
:1058C000AE4643043A08720C338678083B0AA2DCE1
:1058D0003286784812053C09A50A33B38E69073D24
:1058E0000A4729330E393E0C013E0AA50A33D28EEF
:1058F0005947003F0EA70973062555E3B43987338E
:10590000004011A709730625350D4AA6449322E7E6
:105910008302410DA709F3D224ABA4D6E16A0D425C
:1059200012A7093306294C523119A430498DC920D8
:1059300001430DA70973062595FB9A0C0A00440D37
:10594000A7093306294C523F268304450DA7093386
:105950000E727990E2E66108460CA709330E72795F
:1059600090E2CE00470FA70973062595DB86D49AEF
:105970000C0A00480AA7093352D7E1EA35490AA5BB
:105980000A330629ECA7414A0DA809F30635EF535F
:10599000980D19004B11A709335231C9A2DA988426
:1059A00051560A93344C0AA70933E2FE3C0C014DD0
:1059B00010A7093352755B2A4A458AA448B5064E9A
:1059C0000FA709335275543229D21271B5064F0C04
:1059D000A709730625F5D7645000500DA709332E8B
:1059E000A9751892B83300510EC7E9720625F54B18
:1059F00026550635175210A709332EA97518922877
:105A00002B8549AA06530EA709730625B5EF56350F
:105A1000191400540AA709330E59DCDF00550BA7EF
:105A2000093352FF9A0C0A005611A70933526B92A0
:105A300045599455C2244CD20C5710A70933524FE4
:105A4000911449911429DD12005810A709335235D9
:105A5000C92A699C2659255503590DA70933523582
:105A6000C92A69DC1B005A0CA709330E71DAE778E2
:105A700018025B0AC4FB3206AD7F1B025C0BA70950
:105A800033F2382FE7E53C5D0AC4FA3286AC7F1B5F
:105A9000045E0A4769F3D224ABA4015F0718F83209
:105AA0000E026007338B33B202610E770973063D35
:105AB0004E862115952109620FA70933E29621111F
:105AC00055EBA80C0900630C7709730625955B93C9
:105AD0004101640DA709B35B86445C1D95210965EE
