:020000040800F2
:1000000068060020650100086D0D00080702000861
:1000100000000000000000000000000000000000E0
:10002000000000000000000000000000710D00084A
:1000300000000000000000006F0D0008730D0008B4
:100040007701000800000000770100087701000830
:1000500077010008770100087701000877010008A0
:100060000000000077010008770100087701000810
:100070007701000877010008770100080000000000
:100080007701000800000000000000007701000870
:1000900000000000770100087701000877010008E0
:1000A0007701000877010008770100087701000850
:1000B00077010008000000000000000000000000C0
:1000C00000F002F800F03EF80CA030C80838241800
:1000D0002D18671EA246AB4654465D46AC4201D180
:1000E00000F030F87E460F3EB6460FCC0126334274
:1000F00000D0FB1A3343A246AB461847C410000099
:10010000E4100000103A02D378C878C1FAD8520738
:1001100001D330C830C101D504680C6070470000BD
:100120000023002400250026103A01D378C1FBD813
:10013000520700D330C100D50B6070471FB51FBDFB
:1001400010B510BD00F02DF81146FFF7F7FF00F0D5
:100150008BFE00F045F803B4FFF7F2FF03BC00F09C
:100160004BF800000748804707480047FEE7FEE7D6
:10017000FEE7FEE7FEE7FEE704480549054A064BB1
:1001800070470000650E0008C100000868000020EC
:10019000680600206802002068020020704770474F
:1001A0007047754600F024F8AE4605006946534690
:1001B000C008C000854618B020B5FFF7DDFF60BC61
:1001C000B64600260027C0C5C0C5C0C5C0C5C0C54D
:1001D000C0C5C0C5C0C5403D490849008D467047EF
:1001E00010B50446C046C0462046FFF7B4FF10BD18
:1001F000004870470800002001491820ABBEFEE708
:10020000260002007047FEE78268D20712D1C2685A
:10021000094B13404A681A438B681343CA681A4350
:10022000C26003229207036993430968194301617D
:100230000020704701207047C73FFFFFF0B5C2683C
:10024000C2688268D20713D101225305C2689202A4
:10025000134A0FD54C68F02C0CD1C46814400D68BB
:1002600025430E460C3654CE2A43224332430CE03B
:100270000120F0BDC46814400D6825430F460837BF
:10028000D4CF2A43224332433A43C260C468002297
:100290001C4203D04968836A0B4383621046F0BD59
:1002A0003CC2FEFFF0B583B00B68002B5AD0002291
:1002B0000191029016E0764376430F2171438C43FF
:1002C00077432743029EF750019D009B696848438E
:1002D00031681940014331602B682946521C1C4685
:1002E000D4403FD0012494401C40F7D04868431EBE
:1002F000022B0090204615D260438F6847430325A8
:10030000454302998E68AE433E4302998E6001993F
:10031000CE68664302994F68A74337430199029B11
:100320005F6002E0604303254543EB430D460E69E1
:1003300046430299CF681F4037430299CF60029E1F
:1003400000990229C2D10093260A01D0242300E09B
:10035000202301994F690299CC58002EABD1064653
:100360004643AAE7002003B0F0BD0000F0B50368E3
:100370000122934303608B68CC6824021C431F2333
:100380001B0205689D43254305604B6803610368B4
:100390001343036084680F4B1C4084600C698D69B3
:1003A000254386680C4F37402F438760002C03D0CD
:1003B000D2038468144384600322120504689443C2
:1003C0000A682243026042681A4049691143416049
:1003D0000020F0BDFF7FFFFF00F8FFFF80B57D210B
:1003E000C90000F0F1FD401E03494860002088600C
:1003F0000520086080BDC04610E000E0F0B502684E
:10040000012352061A4629D40268174C14400A6880
:1004100022434C681443CA6822430C6914434A6956
:1004200014438D692543CE692E430C6A264306602A
:100430008D68120C2A4346680C4F374017434760BB
:10044000EA0A04D1012212034568154345600122DE
:1004500055030022AC4201D1898C0161D902C369E4
:100460008B43C3611046F0BD4000FFFFFBF0FFFF70
:10047000014908607047C04600000020F0B5CA6A14
:100480001B4B1340012214074D69A5431D438B6983
:100490002B4370C9174F2F40174D35400E782E4310
:1004A0003E43164D254035434C68154E26402E439D
:1004B0004D88144C2C4034431C43E94B0C39984272
:1004C00001D0234611E0104B1C4023231E06CD69AA
:1004D0000B6A4F6A896AB743274311246406A54310
:1004E0003D43520793432B430B4343640020F0BD2D
:1004F000FFFFF0EFFF87F0EFFF83F0EFFF8FF0EFEC
:10050000FFBFF0EFFF9F0000FFFF0FDC10B5046896
:10051000D34A904202D01B4B984204D170239C4393
:100520004B68234300E02346174CA04208DD90426D
:100530000CD0CC4CA04209D0CB4CA04206D01FE03E
:10054000104CA04202D0114CA04219D10324240225
:10055000A343CC681C4304608B68C3620B8883622E
:10056000904205D0BF4A904202D0BF4A904201D18A
:1005700009690163416901220A434261002010BDFB
:100580001C46E8E700040040FF2B0140002000402B
:10059000F0B584B00123B14CA1424DDC012900D15A
:1005A00082E0102900D1D2E001242402A14200D02F
:1005B00051E1016AA1430162B049491C13691B0260
:1005C0000B40032102910902046A8C431C43116809
:1005D000039153681B0223434568C469A04FB84286
:1005E00005D0A04FB84202D09F4FB84219D102990E
:1005F0000F03BD43566901969669D7690097370185
:100600009D4E3E402E43009D6D01354389028B4334
:100610009B49091D019EB6020E401E4391688B0244
:100620003343456092490C4003990C43C461D1683F
:10063000C163036200230EE101242503A9426CD0AB
:100640002504A94200D1C1E02505A94200D002E15C
:10065000016AA9430162016A166853680393156928
:10066000476D7F4B984205D07E4B984202D07E4B1F
:10067000984206D1A30444689C4393699B02234398
:1006800043607A4B1F4033023B434365D268C265E7
:100690000322120591436A0852050A43039909058A
:1006A000114301620023D6E00126F143036A0B40A7
:1006B000036213690B40046A0327BC431C4311689F
:1006C00003915168214345688469654B984205D080
:1006D000644B984202D0644B984213D13B029D4335
:1006E0007302566902969769D6699F432F43750036
:1006F0003D430C239943029B5B08DB000B4391684D
:100700008900194345605A4B1C40039B1C4384617C
:10071000D2684263016200239DE0016AA94301623D
:10072000016A436816685568039515690295C7699B
:100730004B4DA84205D04B4DA84202D04A4DA8428D
:1007400072D1A403A3439469A4011C436DE0016A20
:10075000102399430162016A3023994313695B08AE
:100760005C010C431768516809012143456883699E
:100770003B4EB04205D03B4EB04202D03A4EB04262
:1007800019D10326B602B543546903943E469769CE
:10079000D4690294BF003A4C3C4037462C43029D3A
:1007A000ED002543C024A143039C6408E4010C43ED
:1007B00091688901214345602E4C23403C021C4333
:1007C0008461D26882630162002344E0284D73355E
:1007D000016A29400162016A16685368039314692B
:1007E000476D1F4B984205D01E4B984202D01E4BBE
:1007F000984205D143682B4095692D021D43456001
:100800001B4BDB1C1F4037434765836DD2688265F5
:10081000032212049143620852040A430399090413
:1008200011430162002316E01C464460114B1F4037
:1008300033023B43C361D268026403221203914333
:100840000D4A1032029B1B0313400B43039909030B
:10085000194301620023184604B0F0BDFF0F0000E9
:10086000002C01400048014000440140FF8FFFFE82
:100870008CFFFEFFFF8CFFFEF0DFFFFFFFFDFFFFA1
:10088000FCF7FFFFF0B591B000270C970B970A9784
:1008900009970897079706970597049703970126E6
:1008A0003005E649CA680243CA60CA6802400D9230
:1008B0000D98086830430860086830400D900320A8
:1008C00000900290022001900D980520040701ADD0
:1008D00020462946FFF7E6FC05970098029008207D
:1008E0000090019020462946FFF7DCFC10970F97F7
:1008F0000E97B0070D902B4C0DA92046FFF784FCF6
:100900007005E1680143E16075032068284208D161
:100910002068284205D12068284202D12068284258
:10092000F3D02560F0200890079709970A970B9756
:100930000C9707A92046FFF781FC2069B04320618E
:1009400070072169814321616069072188436061E3
:100950006069702188436061606804218843606039
:100960006068009988436060A0680F4901403007C3
:100970000818A060A06A30430E218843A062206856
:10098000284208D12068284205D12068284202D197
:1009900020682842F3D0256070026169814361615B
:1009A00011B0F0BD00240140E8FFFF6F80B588B0B2
:1009B0000021069102200390E54A13680343136067
:1009C00013680340079307980120029013680343BC
:1009D0001360126802400792079805200007102252
:1009E000826205910491019201A9FFF75BFC08B0B6
:1009F00080BDC046F0B58FB003200003D44A116A11
:100A00008143116210680227384310601068384033
:100A10000790062000900690002405940126049675
:100A200003940297300201900798CA4801AD294605
:100A3000FFF738FC009806900594049603940297FB
:100A400070020190C3482946FFF72CFC7005C04A8C
:100A5000916801439160916801400E91114808909E
:100A6000079409940A940B940C940D940E980E4CD0
:100A700007A92046FFF77AFC7006616801436160B0
:100A8000E0680A490140E160F003E1688143E16008
:100A9000F004216881432160700421688143216052
:100AA0000FB0F0BDBC7D70100054004001F8FFFF96
:100AB000F0B591B001200103A54AD3680B43D36080
:100AC000D3680B40079307991168014311601168BF
:100AD00001400791022602962020019000270397EB
:100AE00004970597069707980520040701AD20464F
:100AF0002946FFF7D7FB03970296802001900497C1
:100B00000597069720462946FFF7CCFB0720109053
:100B10000F970E9718200D900B970A960F20000242
:100B200009900797412080000890FC300C900A4DF6
:100B30002C1F07A92046FFF761FC28681021884375
:100B4000286028680821014329602068402101436A
:100B5000216011B0F0BDC04604300140F0B5A1B035
:100B600000261B960A960124E002794AD1680143C7
:100B7000D1601BA90E80D268024013921F961E9668
:100B800024201D901C9613982D4D2846FFF7BEFC7F
:100B90008020C743286838402860A8687049014011
:100BA000A960A86908210143A9611796122016902F
:100BB00015961496189619961A966020139013AAF3
:100BC00028462146FFF7E4FCA86904218843A86170
:100BD00068687021884368600F2000056968814358
:100BE0006960A8683840A86007A9CE810E73129684
:100BF0001196109660060F900E960D960C96600357
:100C00000B900796089609962846FFF737FC50493F
:100C10000868204308600868204020900220069061
:100C200005960496039602902002019020980520D4
:100C3000000701A9FFF736FB21B0F0BD34100240D8
:100C4000002C0140F0B58DB000240B940A94099457
:100C500008940794022502953D48816829438160E4
:100C6000816829400C910C99016829430160006852
:100C700028400C90059404940394102001900C9843
:100C800001270697334801A9FFF70CFB07A93F206E
:100C900008800A94304809900894304E3446183C35
:100CA0002046FFF733FC2168802001432160314654
:100CB00010390A682A4B13400B600A68294B13400D
:100CC00050330B600A68284B13401A1D0A603268C3
:100CD000F0239A433260B2680A239A43B2603246E4
:100CE0000C3A13684024A3431360BB0314689C436D
:100CF00014607022D3433246143A14681C401460C6
:100D0000C2430C6814400C6031683943A943316018
:100D100031680C24A14331603168014319403160CE
:100D20000320010233688B43790259183160800235
:100D30003168814331600F200003316881433160A5
:100D4000B068202101431140B1600DB0F0BDC04634
:100D50003410024000040050FFFF0000180400405F
:100D6000F8BFFEFF8FFFCFFFF8FFFEFFFEE77047E3
:100D70007047704770B5364A106802210843052352
:100D800098431060146807200440022C0BD01468AC
:100D90000440022C07D014680440022C03D01468CD
:100DA0000440022CEED1012425022A4A16682E4363
:100DB0001660A50216682E4208D116682E4205D18B
:100DC00016682E4202D116682E42F3D0D568224E04
:100DD0002E40224D7519D560250616682E431660E3
:100DE0002507D6682E43D66064061568254208D1CB
:100DF0001568254205D11568254202D1156825429E
:100E0000F3D00F2424029568A543956094680C43A1
:100E10009C439460936838210B40102B0BD093684F
:100E20000B40102B07D093680B40102B03D0936816
:100E30000B40102BEED10003916881439160084C68
:100E40002046FFF7CBFA2046FFF712FB70BDC046E5
:100E500000200240001002408C80FF1F020800208A
:100E60000090D0037047000082B04F4841680124D1
:100E700021434160416821400091009921070268A7
:100E80000A4302600068084001900198FF200006B4
:100E900046490A6882430325A80710180860FFF72F
:100EA00069FFFFF783FDFFF759FEFFF701FEFFF72C
:100EB000C9FEFFF79FFDFFF7E5FC3D48802101607B
:100EC000016123023B4A938013681B0608D513680F
:100ED0001B0605D513681B0602D513681B06F3D441
:100EE000016001600161344B1E46D8369680166859
:100EF000360608D51668360605D51668360602D5B4
:100F000016683606F3D40160016001612B4E9680AD
:100F10001668360608D51668360605D516683606EC
:100F200002D516683606F3D4016001600161244ED3
:100F300096801668360608D51668360605D51668F2
:100F4000360602D516683606F3D4016001600161E9
:100F5000AD03958015682D0608D515682D0605D5B5
:100F600015682D0602D515682D06F3D401600160C1
:100F70000161938013681B0608D513681B0605D50D
:100F800013681B0602D513681B06F3D40160E00347
:100F90000C494A6C02434A64086A204308620868A4
:100FA00020430860FEE7C0463C10024020ED00E010
:100FB0001800005008300140282000002A47000097
:100FC0005A440000002C014043088B421AD30022EF
:100FD00003098B4279D3030A8B425ED3030B8B4206
:100FE00042D3030C8B4227D30902FF2212BA030C0F
:100FF0008B4202D31212090203D0030B8B4233D36C
:101000001AE0D3E0411A8041401C704703460B436D
:1010100071D443088B42F5D3002203098B4254D389
:10102000030A8B4239D3030B8B421DD3030C8B4233
:1010300002D394466EE0090AC30B8B4201D3CB0363
:10104000C01A5241830B8B4201D38B03C01A524109
:10105000430B8B4201D34B03C01A5241030B8B420B
:1010600001D30B03C01A5241C30A8B4201D3CB02F6
:10107000C01A5241830A8B4201D38B02C01A5241DB
:10108000430A8B4201D34B02C01A5241030A8B42DE
:1010900001D30B02C01A5241CDD2C3098B4201D3F6
:1010A000CB01C01A524183098B4201D38B01C01A74
:1010B000524143098B4201D34B01C01A52410309EB
:1010C0008B4201D30B01C01A5241C3088B4201D39A
:1010D000CB00C01A524183088B4201D38B00C01A47
:1010E000524143088B4201D34B00C01A5241411A6E
:1010F000524110007047CA0F00D04942031000D37C
:101100004042534000229C4603098B422DD3030AE0
:101110008B4212D38901FC2212BA030A8B420CD3F0
:10112000890192118B4208D3890192118B4204D319
:10113000890137D0921100E08909C3098B4201D39C
:10114000CB01C01A524183098B4201D38B01C01AD3
:10115000524143098B4201D34B01C01A524103094A
:101160008B4201D30B01C01A5241C3088B4201D3F9
:10117000CB00C01A524183088B4201D38B00C01AA6
:101180005241D9D243088B4201D34B00C01A52417D
:10119000411A00D201465241104663465B1000D30B
:1011A0004042704763465B1000D3404201B50021C6
:1011B000004201D0C9430846C046C04602BD0000F7
:1011C000E0110008000000200800000004010008F1
:1011D000E811000808000020600600002001000857
:0811E0000024F40000000000EF
:04000005080000C12E
:00000001FF
